:020000020000FC
:100000000C94000D18951895189518951895189535
:100010001895189518951895189518951895189578
:100020001895189518951895189518951895189568
:100030000C94D50718951895189518951895189536
:10004000189518950C94B209189518951895189547
:10005000189518950C9440090C94630918951895F7
:100060001895189518951895189518951895189528
:100070001895189518951895189518951895189518
:1000800000C1814001C0804101C0804100C1814068
:1000900001C0804100C1814000C1814001C0804158
:1000A00001C0804100C1814000C1814001C0804148
:1000B00000C1814001C0804101C0804100C1814038
:1000C00001C0804100C1814000C1814001C0804128
:1000D00000C1814001C0804101C0804100C1814018
:1000E00000C1814001C0804101C0804100C1814008
:1000F00001C0804100C1814000C1814001C08041F8
:1001000001C0804100C1814000C1814001C08041E7
:1001100000C1814001C0804101C0804100C18140D7
:1001200000C1814001C0804101C0804100C18140C7
:1001300001C0804100C1814000C1814001C08041B7
:1001400000C1814001C0804101C0804100C18140A7
:1001500001C0804100C1814000C1814001C0804197
:1001600001C0804100C1814000C1814001C0804187
:1001700000C1814001C0804101C0804100C1814077
:1001800000C0C101C30302C2C60607C705C5C40437
:10019000CC0C0DCD0FCFCE0E0ACACB0BC90908C8A7
:1001A000D81819D91BDBDA1A1EDEDF1FDD1D1CDC97
:1001B00014D4D515D71716D6D21213D311D1D01007
:1001C000F03031F133F3F23236F6F737F53534F4F7
:1001D0003CFCFD3DFF3F3EFEFA3A3BFB39F9F83867
:1001E00028E8E929EB2B2AEAEE2E2FEF2DEDEC2C57
:1001F000E42425E527E7E62622E2E323E12120E0C7
:10020000A06061A163A3A26266A6A767A56564A4B6
:100210006CACAD6DAF6F6EAEAA6A6BAB69A9A86826
:1002200078B8B979BB7B7ABABE7E7FBF7DBDBC7C16
:10023000B47475B577B7B67672B2B373B17170B086
:100240005090915193535292965657975595945476
:100250009C5C5D9D5F9F9E5E5A9A9B5B99595898E6
:10026000884849894B8B8A4A4E8E8F4F8D4D4C8CD6
:100270004484854587474686824243834181804046
:100280000E94300DD80180E090E00E94910A009118
:100290001B0310911C030A0F1B1F003921E01207DA
:1002A000E8F400911B0310911C0320911B03309173
:1002B0001C032A0F3B1F0217130780F400911B0336
:1002C00010911C038BE891E0800F911FEBE1F3E0AC
:1002D000008111810A0F1B1F008311830E94970A5E
:1002E0008C01E4E00C943F0D08950FEF04B9509A8F
:1002F000519A529A399A389A5598569857983C98E4
:100300003D983E983F98539A5498089598012D5FD0
:100310003F4FF801218332832FEF3FEFF801238312
:10032000348398012D5F3F4FF80125833683980170
:100330002D5F3F4FF8012783308720E0F8012083AD
:10034000089520E030E0F801208731870895BD014D
:10035000F801A181B281FD0142815381F9014283FB
:100360005383F80141815281F901448355831296E8
:10037000ED91FC91139724833583FD012283338310
:10038000F80121833283F90100871187F801008188
:1003900003950083DB010895AD01F80124813581C7
:1003A000F801A281B38114962D933C93F801228128
:1003B0003381F801A481B58112962D933C93F80105
:1003C000A085B185FD01218132812017310731F4EB
:1003D000F80124813581FD012183328320E030E062
:1003E000F801208731870C910A950C93DA01089562
:1003F0000E94B00208950E94080BFFCF0E94080BD4
:10040000FFCF0E94750130E040E052EC61E070E007
:1004100020E011E000E00E9442020E949D0200E004
:1004200010E01A930A9300E010E01A930A9300E098
:1004300010E01A930A9302E00A9360E070E045E549
:1004400050E020E631E00EEF11E00E94D60900E016
:1004500010E01A930A9300E010E01A930A9300E068
:1004600010E01A930A9301E00A9360E070E045E51A
:1004700050E028E631E00BEF11E00E94D6090E941F
:100480006B0AFFCF9A938A93902F022E232F80E03E
:10049000112321F0112311F0183F10F082E049C020
:1004A00010931D039923B9F506ED15E00093210380
:1004B0001093220304EE15E000932303109324030A
:1004C00001E216E000931F03109320030FEE15E0E6
:1004D000009325031093260300E010E00093270308
:1004E000109328030DE716E00093290310932A03C5
:1004F00002ED16E000932B0310932C030CE017E0A1
:1005000000932D0310932E03102D00911D030E94C4
:10051000A905802F01C082E0882359F40E94EB07CF
:10052000002311F483E005C090931E0301E00093C3
:100530006D01082F8991999108958A9380E0009127
:100540006D01013049F4E0912103F09122030995F6
:1005500000E000936D0101C086E0082F89910895A5
:100560009A938A93219700E010916D01112311F065
:1005700006E0B7C08E010E94F707013009F0B0C055
:100580000881015041F00A9539F0025001F1045000
:1005900009F4A6C0A5C0A4C043E353E02FE233E0B2
:1005A00001E313E0E0912503F09126030995002370
:1005B00069F40091310310911D03011721F000919E
:1005C0003103002319F404E00E94F00789C0E09190
:1005D0002F03F091300300810093320301E0009378
:1005E000350380E090E001C00196873000E090077D
:1005F00074F503E010E0AC010E94120DF801E2591D
:10060000FE4F0081002319F103E010E0AC010E94CD
:10061000120DF801E259FE4F0081109132030117CB
:1006200019F723E333E000912F0310913003B80151
:1006300043E050E08C010E94120DF801E259FE4F98
:1006400001811281F8018B01099500933503009116
:100650003103002309F444C000913503002389F1DC
:1006600000E010E000933303109334030091320351
:1006700000682091330330913403E0912F03F0910F
:100680003003E20FF31F0083E3E3F3E00081118105
:100690000F5F1F4F008311830091350320913303B7
:1006A00030913403E0912F03F0913003E20FF31FF8
:1006B0000083E3E3F3E0008111810F5F1F4F0083AC
:1006C0001183409133035091340320912F033091D3
:1006D000300300911D03E0911F03F0912003099561
:1006E00000E02196899199910895592F282EC801EB
:1006F0004FEF6FEF12C0062E1124FC01008110E0B5
:10070000002611260196F001E058FF4F0491402782
:10071000642FF001E058FE4F449189019801215067
:100720003040012B41F7142F00E070E0062B172B0F
:10073000822D952F08950E94300DD90190E02D91C2
:100740003C911197253040E0340709F058C0F8017A
:10075000318120E0F801428150E0242B352B2F5FBE
:100760003F4FF80113800024F801448150E0042A2F
:10077000152A402D412909F440C040ED041647E0F8
:100780001406D8F5F80100E010E00D931C931197C2
:1007900001E0008331960D911C910F5F1F4F1C9358
:1007A0000E93002D0770002339F043E080010E9472
:1007B0001C0D802F839505C043E080010E941C0D15
:1007C000802F808331960D911C910F5F1F4F1C93DA
:1007D0000E9360E0A0018F010E94A30C002321F082
:1007E0000E942807902F0CC0082F10E02D913C91FB
:1007F000200F311F3C932E9303C093E001C093E080
:10080000092FE4E00C943F0D0E94300D2297F8016F
:1008100080E0D9010D911C91053020E0120749F5C7
:10082000318120E0028110E0202B312B2F5F3F4FE0
:1008300004810023E1F403810F3F19F003810023B9
:10084000B1F400E0098303810F3F19F401E008834C
:1008500002C000E0088361E041E050E08E010E94A8
:10086000A30C002339F00E942807802F03C083E0E7
:1008700001C083E0082F2296E4E00C943F0D0E9413
:10088000300D0801D90180E0ED91FC911197369768
:1008900008F442C0F001318120E0F001028110E053
:1008A000202B312B2F5F3F4FF00133802224F001AA
:1008B000048110E0202A312AF0015581022D0770B1
:1008C000002331F043E081010E941C0D039504C018
:1008D00043E081010E941C0D122D1329D9F011EB68
:1008E000211617E03106B0F40517A1F461E0A1016B
:1008F00006E0000E00E0101E80010E94A30C002301
:1009000021F00E942807802F08C005E010E00D9319
:100910001C9303C083E001C083E0082FE4E00C9443
:100920003F0D8A9380E0F90120813181253040E03C
:100930003407B9F4F801318120E0F801428150E038
:10094000242B352B2F5F3F4F61E041E050E00D5FDE
:100950001F4F0E94D40C002329F00E942807802FEB
:1009600001C083E0082F899108950E94300DD901BC
:1009700080E0ED91FC911197369790F1F80131816B
:1009800020E0F801428150E0242B352B2F5F3F4FB0
:10099000F801538140E0F801648170E0462B572B49
:1009A000F8017581642F652BC9F0493760E056075F
:1009B000A8F4042E62E0069E701581F461E00A5FDF
:1009C0001F4F0E94D40C002321F00E942807802F83
:1009D00008C005E010E00D931C9303C083E001C044
:1009E00083E0082FE4E00C943F0D0E942F0DF801E6
:1009F000D90144240D911C911197053020E0120774
:100A000009F046C0318120E0028110E0202B312B1B
:100A10002F5F3F4F048110E0C801082F092BA9F177
:100A20008E3700E0900788F58F0140E050E04D934D
:100A30005C93119743E0F80140830F5F1F4F4D9186
:100A40005C914F5F5F4F5C934E93582F42E0549FF1
:100A5000F80100820F5F1F4F4D915C914F5F5F4F18
:100A60005C934E9360E0AC010E94D40C002321F013
:100A70000E942807402E0EC0880F991F0D911C91CF
:100A8000080F191F1C930E9305C003E0402E02C0EF
:100A900003E0402E042DE5E00C943E0D0E942F0D46
:100AA000F801D90144240D911C911197053020E0E3
:100AB000120709F048C0318120E0028110E0202BAC
:100AC000312B2F5F3F4F938180E0048110E0802B1A
:100AD000912B082F092BA1F18D3700E0900780F5AD
:100AE0008F0140E050E04D935C93119744E0F80192
:100AF00040830F5F1F4F4D915C914F5F5F4F5C9341
:100B00004E93582F42E0549FF80100820F5F1F4F11
:100B10004D915C914F5F5F4F5C934E93AC010E948F
:100B2000BE0C002321F00E942807402E0EC0880F23
:100B3000991F0D911C91080F191F1C930E9305C04E
:100B400003E0402E02C003E0402E042DE5E00C94AB
:100B50003E0D0E942D0D612ECA01DB01522E442450
:100B60000E948609252D18E0AC01BD01062D0E94CA
:100B70001609013019F003E0402E12C081300BE459
:100B8000900700E0A00700E0B00720F003E210E0CB
:100B900020E030E00E948D09013011F003E0402E8A
:100BA0000E948809042DE7E00C943C0D0E94860900
:100BB00000E00093370310E001E00E94F3080E9478
:100BC00095090E94880908950E94860910E000E0B6
:100BD0000E94F3080E94A3090E94880908950E94B8
:100BE0002C0D3801D901CA0144240E948609E091E4
:100BF0003C04F0913D043497E0F020913C043091A6
:100C00003D0408E313E00E947503012B91F4009169
:100C10003803F301008300913C0410913D0403501C
:100C20001040FC010083118309E313E00D931C9332
:100C300002C005E0402E0E948809042DE8E00C94D3
:100C40003B0D0E942E0DB02FC9012A01A0E00E9489
:100C5000860900913703013009F048C0019780935D
:100C600038049093390401E010E000933A041093A3
:100C70003B04E0913804F0913904B083EAE3F4E0F6
:100C800000811181040D151D0083118320913A0408
:100C900030913B0400913804109139040E9475038F
:100CA00020913A0430913B04C901019680933A04A3
:100CB00090933B04402FF901E85CFC4F4083209166
:100CC0003A0430913B04C901019680933A04909311
:100CD0003B04012FF901E85CFC4F008301E0009325
:100CE000360311E000E00E94F30801C0A5E00E9475
:100CF00088090A2FE6E00C943D0D0E94310D2197E2
:100D0000A0E08E010E943A0910913703105039F08B
:100D10001A9559F01A9521F11A9521F03EC00E94BA
:100D200095093BC00E94950938C000E010E000938F
:100D30003C0410933D0400913C0410913D04C80113
:100D4000019680933C0490933D042881F801E85C6F
:100D5000FC4F208302E0009337030E9495091DC0D9
:100D600000913C0410913D04003021E0120780F412
:100D700000913C0410913D04C801019680933C040D
:100D800090933D042881F801E85CFC4F208303C068
:100D900003E0009337030E9495090A2F2196E3E0B0
:100DA0000C94400D8A9380E000913603005019F0B6
:100DB0000A9531F02EC010E001E00E94F30829C02E
:100DC00000913A0410913B04012BC1F0E0913804EA
:100DD000F091390400810E943009E8E3F4E00081D9
:100DE00011810F5F1F4F00831183EAE3F4E000815C
:100DF000118101501040008311830BC008E00E9454
:100E0000F007802F10E001E00E94F30800E000935B
:100E10003603082F899108958A9380E00091370363
:100E2000005029F0025041F00A9551F009C001E04C
:100E30000E94F007802F04C002E00E94F007802F7C
:100E40000E94A30901E000933703082F89910895B8
:100E5000005029F00A9529F0065029F006C000E05C
:100E6000089502E0089506E0089504E00895BC01A5
:100E7000F80101E10083319702E20083319703E337
:100E800000833197CF018901202F20833197012FD3
:100E900000833197729700E00083319700E8008368
:100EA000319702978C01202F20833197012F0083E7
:100EB000319701E00083319702E00083319703E02E
:100EC0000083319704E00083319705E00083319778
:100ED00006E00083319707E00083319708E0008344
:100EE000319709E00083319700E10083319701E1F8
:100EF0000083319702E10083319703E1008331974A
:100F000004E10083319705E1008331978A01202FA6
:100F100020833197012F0083319708E100833197B7
:100F200009E10083319700E20083319701E20083F9
:100F3000319702E20083319703E20083319704E2A4
:100F40000083319705E20083319706E200833197F1
:100F500007E20083319700E30083319701E30083C8
:100F6000319700E000838F01CB01089504D00E94E7
:100F7000C40801E0089500E81EE320E030E046E008
:100F80000E94230D0150104020403040A801012F45
:100F900000938900409388004BE0409381000091CA
:100FA0006F00026000936F0008950E946408189516
:100FB0000895F894009183010395009383010895A7
:100FC000009183010A95009383010091830100231E
:100FD00009F47894089500E000933F0401E0089537
:100FE00011E010933F0400933E0401E0089520E0D7
:100FF00030913F04332341F020913E04F8012083D7
:1010000000E000933F0421E0022F08950A920FB6FA
:10101000F8940A920DB60A920EB60A921A922A9281
:101020003A924A925A926A927A928A929A92AA92A0
:10103000BA92CA92DA92EA92FA920A931A932A938D
:101040003A934A935A936A937A938A939A93AA9378
:10105000BA93EA93FA93009083010A92A091400414
:10106000B0914104CD93DD930E94C40BA091400444
:10107000B0914104CD91DD91099000928301F991E5
:10108000E991B991A9919991899179916991599130
:1010900049913991299119910991F990E990D99043
:1010A000C990B990A9909990899079906990599038
:1010B000499039902990199009900EBE09900DBE63
:1010C00009900FBE099008950A920FB6F8940A92FB
:1010D0000DB60A920EB60A921A922A923A924A9241
:1010E0005A926A927A928A929A92AA92BA92CA92E0
:1010F000DA92EA92FA920A931A932A933A934A93CB
:101100005A936A937A938A939A93AA93BA93EA9397
:10111000FA93009083010A92A0914004B091410497
:10112000CD93DD930E94160B0E94C40BA091400446
:10113000B0914104CD91DD91099000928301F99124
:10114000E991B991A991999189917991699159916F
:1011500049913991299119910991F990E990D99082
:10116000C990B990A9909990899079906990599077
:10117000499039902990199009900EBE09900DBEA2
:1011800009900FBE09900895A0914004B0914104C8
:10119000CD91DD91099000928301F991E991B99186
:1011A000A99199918991799169915991499139912F
:1011B000299119910991F990E990D990C990B99024
:1011C000A990999089907990699059904990399017
:1011D0002990199009900EBE09900DBE09900FBE7E
:1011E0000990089518959A938A93902F812F8ED005
:1011F000992331F00091C10000680093C10005C03F
:101200000091C1000F770093C100882331F0009155
:10121000C10000620093C10005C00091C1000F7DB4
:101220000093C10075D089919991089501E01091C2
:10123000C00012601093C00010E01093C100109124
:10124000C20016601093C20020E130E03093C50068
:101250002093C4001091C10018611093C10008953B
:1012600002C00093C6001091C000212F25FFF9CFC6
:1012700001E008952091C600F801208301E008955F
:101280008A93FA93EA933A922A921A920A927A935A
:101290006A935A934A933A932A931A930A938FB76D
:1012A0000E947D068FBF0991199129913991499129
:1012B0005991699179910990199029903990E99102
:1012C000F991899118958A93FA93EA933A922A921E
:1012D0001A920A927A936A935A934A933A932A9368
:1012E0001A930A938FB70E94D2068FBF0991199162
:1012F0002991399149915991699179910990199060
:1013000029903990E991F99189911895F894089567
:10131000789408950E940C07089500E004BD00E051
:1013200005BD789410D001E0089500916E00016031
:1013300000936E0004EE06BD05B5046005BD05B55D
:10134000016005BD089505B50B7F05BD05B50D7F91
:1013500005BD05B50E7F05BD00916E000E7F0093A3
:101360006E0008958A93FA93EA933A922A921A9217
:101370000A927A936A935A934A933A932A931A93C6
:101380000A938FB704EE06BDC5DF8FBF099119918F
:1013900029913991499159916991799109901990BF
:1013A00029903990E991F991899118950E94260D1B
:1013B000680159013A014B0129893A89830195D283
:1013C000D8014E840A2F0B2B09F471C0FD018789C7
:1013D000908D860D971D01977A926A926D897E890C
:1013E000442D95018D0121D2A40196018C010E940A
:1013F00037070D931C931197EF85F8890E2F0F2B4C
:1014000011F0A083B1830E94D90700918E04039547
:1014100000938E040091400410914104012B51F47B
:10142000A0934004B093410400918E04013089F4EC
:101430002AD20FC000919304002359F4E091400494
:10144000F09141040689401620F0A0934004B09327
:10145000410400919104FD011689011720F4FD015A
:1014600006890093910400919804039500939804D1
:1014700000919204FD011689011720F4FD010689EF
:10148000009392049D012E5F3F4FFD01468950E07D
:1014900009E010E00E94120DA80102E414E0040F1C
:1014A000151F0E94A70181E00E94E00701C08FEF95
:1014B000813069F400919304002349F0E0914004E5
:1014C000F09141040689041510F40E940608082FC3
:1014D000E5E10C94350D00E010E01A930A9300E06A
:1014E00010E01A930A9300E010E01A930A9300E0C8
:1014F0000A9360E070E045E550E024E831E001E166
:101500001CE054DF013061F4F89401E0009393048F
:1015100000E010E000938F04109390040E94B6073F
:1015200008950091940403950093940408950E94F3
:10153000300D90E00E94D907009194040A95009321
:10154000940400919404002309F05CC000918E047F
:10155000002309F457C080E035C0E0918104F09188
:101560008204A681B7818D01045F1F4F0E94CC01C8
:101570008D010E5F1F4F0E94CC0100919204FD016E
:101580001689011720F4FD010689009392049D013C
:101590002E5F3F4FFD01468950E009E010E00E94B8
:1015A000120DA80102E414E0040F151F0E94A70108
:1015B000FD010689E0914004F0914104168901176C
:1015C00008F081E000917C04002339F60091950435
:1015D000002339F40BC02AD0009195040A9500939A
:1015E0009504009195040023B1F781E0813021F04A
:1015F00000919604013031F491E000E000939604EC
:101600000E9406080E94E007092FE4E00C943F0DB9
:101610009A938A930E94D90780918F0490919004A5
:101620000E94E0078C01899199910895BA93AA9339
:1016300000919404002309F09FC0EFE8F4E00081DA
:1016400011810F5F1F4F0083118300918F04109150
:101650009004012B99F50091780410917904209160
:101660007A0430917B0420937804309379040093BA
:101670007A0410937B0400919704039500939704D8
:10168000E0917804F09179040081002339F40FEFA0
:101690001FEF0093890110938A0110C0A091780474
:1016A000B09179041596ED91FC91A681B781FD0169
:1016B000028113810093890110938A0100918F04A4
:1016C000109190042091890130918A01021713072B
:1016D00008F457C02AC08D010E5F1F4F0E94CC0135
:1016E000FD0104891589012B29F08D01045F1F4F2D
:1016F0000E94CC0100919204FD011689011720F48B
:10170000FD010689009392049D012E5F3F4FFD016C
:10171000468950E009E010E00E94120DA80102E4A1
:1017200014E0040F151F0E94A701E0917804F091C6
:1017300079040081002339F40FEF1FEF0093890132
:1017400010938A011EC0A0917804B0917904159677
:10175000ED91FC91A681B781FD0102811381209159
:101760008F04309190042017310708F0B4CF009314
:10177000890110938A0105C0009195040395009397
:101780009504A991B9910895BD0100919404002395
:1017900049F001E00093960442C0009192040A953A
:1017A000009392044091920450E009E010E00E94FE
:1017B000120DF801EE5BFB4F0081002371F34091A5
:1017C000920450E009E010E00E94120DA2E4B4E09F
:1017D000A00FB11F1196ED91FC9112970281138118
:1017E000FD0101831283FD01218132818D010D5F95
:1017F0001F4F2017310749F41196ED91FC91129774
:1018000002811381FD0101831283FD01A181B28157
:1018100016960D911C910093400410934104DB0136
:10182000089562D00E94F801FCCF0E94300DD801CB
:10183000842F48E050E08D01075E1F4F0E947B0D12
:1018400000E0FD0100A3843008F083E0FD01868BF9
:101850008D010E5F1F4F0E94A1018D01045F1F4F7C
:101860000E94A101FD01A087B18704E010E090E093
:10187000081B190BFD0104871587FD01A28BB38B93
:10188000E6E00C943F0D8A9380E00EC0482F50E0B4
:1018900009E010E00E94120D980102E414E0020F2A
:1018A000131F0E9486018395843080F306E614E0BE
:1018B0000E9486010FE614E00E9486010CE714E006
:1018C0000E94860105E814E00E94860106E614E005
:1018D00000937804109379040FE614E000937A04DF
:1018E00010937B048991089508950E942E0D28017C
:1018F000C90101E210E00E944001D8010A2F0B2B20
:10190000F1F0082F092B21F482010E94400101C04F
:101910008C01FD01078B108FFD010789108D012BB4
:1019200031F48D010E947401A0E0B0E008C0A20172
:1019300025EA30E0FD010789108D0E944A0D8D01D6
:10194000E6E00C943D0D00E00A01F901E40FF51FFB
:10195000719790F4A901605019F06A9539F00895D3
:1019600011E0011610E01106DCF7089511E00116F0
:1019700010E01106DCF7089501E0089500E0F90198
:10198000E40FF51F719770F421503040420F531F40
:10199000440F551F12E0219F11240416150618F458
:1019A0000394FACF01E00895792F282EC90100E0B1
:1019B000FC01E40FF51F7197E0F40197480F591FE0
:1019C000440F551F605019F06A9551F013C012E092
:1019D000819F01C00394112404161506D8F30AC090
:1019E00012E0819F01C00394112404161506D8F358
:1019F00001C001E0822D972F089500008895FECF49
:101A00000FE50DBF01E00EBFC0E4D1E00E94480D1C
:101A1000002311F00E94610D0E9401020E94FD0C42
:101A20000C94FD0C149F102D059F100D049F002D8C
:101A3000110D0895169507954A95E2F70895369584
:101A40002795179507954A95D2F70895DA92CA9285
:101A5000BA92AA929A928A927A926A925A924A92E6
:101A6000BA93AA939A938A930895DD84CC84BB8415
:101A7000AA84998488847F806E805D804C80BB813D
:101A8000AA8199818881F0E0EC0FFD1FEF01089594
:101A900001E00895F80101C02193BA01415050407E
:101AA000672BD1F7089520E006D0E9F70895259136
:101AB00002D0E9F708952D9301501040202F212BDB
:101AC000089584E29BE1FC0105911491FC0132969A
:101AD000A591B491FC01349625913491422F432B6A
:101AE00019F0F901E4DF01C0DEDF06961BE1803367
:101AF000910748F30895BD01D801F90198010DD06F
:101B000049F001910D930023D1F707D019F000E0BF
:101B10000D93FBCF8901DB0108958A0141505040AC
:101B2000012B08950E038B0100002B006001301B78
:101B3000436F6E74726F6C00554152540002044E34
:101B40000503F50410B504069104019B0305040484
:0B1B50000F3F045049444C4500FFFFCC
:0400000300000000F9
:00000001FF
