:020000020000FC
:100000000C949012189518951895189518951895A0
:100010001895189518951895189518951895189578
:100020001895189518951895189518951895189568
:100030000C947F0C18951895189518951895189587
:10004000189518950C94B10E189518951895189543
:10005000189518950C94FF0D0C94250E189518956D
:100060001895189518951895189518951895189528
:100070001895189518951895189518951895189518
:10008000000000000000000000065F5F06000000A6
:10009000000007000700000000147F147F14000018
:1000A00000242A7F2A120000002313086462000043
:1000B00000364955225000000000050300000000F2
:1000C000001C3E63410000000041633E1C00000034
:1000D0000014083E081400000008083E080800004C
:1000E00080E06000000000001C1C1C1C1C1C1C008C
:1000F0000060600000000000002010080402000002
:100100003E7F71594D7F3E0000427F7F40000000DE
:10011000627359494F460000226349497F36000007
:100120001C1E13517F7F5000276745457D39000015
:100130003C7E4B4979300000030371790F070000C2
:10014000367F49497F360000266F49497F3E0000CF
:100150000000666600000000000056360000000047
:1001600000081422410000000014141414140000AC
:10017000000041221408000000020151090600009D
:1001800000324979413E00007C7E13137E7C0000E2
:10019000417F7F49497F36001C3E63414163220015
:1001A000417F7F41633E1C00417F7F49496363007B
:1001B000417F7F491D0103001C3E63415173720062
:1001C0007F7F08087F7F000000417F7F41000000A3
:1001D0006141417F7F0100007F7F1C366341000049
:1001E000417F7F41406070007F7F061C067F7F005B
:1001F0007F7F060C187F7F001C3E6341633E1C001E
:10020000417F7F09090F06001C7E6351633E5C003D
:10021000417F7F09197F6600266F4D5973320000B8
:1002200003417F7F410300007F7F40407F7F0000CC
:10023000071F7840781F07007F7F301C307F7F00CA
:1002400041633E083E634100074F78784F07000046
:10025000436171594D47630000007F414100000038
:100260000002040810200000000041417F0000004F
:100270000004020102040000004040404040000031
:10028000000102040000000020545454387840005B
:100290007F7F4844447C3800387C44446C2800000C
:1002A000307848493F7F4000387C54545C18000047
:1002B000487E7F490302000098BCA4A4F87C040097
:1002C000417F7F08047C780000447D7D4000000071
:1002D000206040447D3D0000417F7F10386C440029
:1002E00000417F7F400000007C7C1838187C7C0037
:1002F0007C7C04047C780000387C44447C3800001A
:1003000084FCF8A4243C18000C1E1E92FEFE9200F1
:10031000447C784C041C1800485C5454742400003D
:1003200000043E7F442400003C7C40403C7C400074
:100330001C3C60603C1C00003C7C7038707C3C00C5
:10034000446C3810386C44009CBCA0A0FC7C0000BD
:100350004464745C4C440000000008364100000016
:100360000000007700000000000041360800000097
:10037000000201020402000000FFFFFFFFFF000077
:1003800000C1814001C0804101C0804100C1814065
:1003900001C0804100C1814000C1814001C0804155
:1003A00001C0804100C1814000C1814001C0804145
:1003B00000C1814001C0804101C0804100C1814035
:1003C00001C0804100C1814000C1814001C0804125
:1003D00000C1814001C0804101C0804100C1814015
:1003E00000C1814001C0804101C0804100C1814005
:1003F00001C0804100C1814000C1814001C08041F5
:1004000001C0804100C1814000C1814001C08041E4
:1004100000C1814001C0804101C0804100C18140D4
:1004200000C1814001C0804101C0804100C18140C4
:1004300001C0804100C1814000C1814001C08041B4
:1004400000C1814001C0804101C0804100C18140A4
:1004500001C0804100C1814000C1814001C0804194
:1004600001C0804100C1814000C1814001C0804184
:1004700000C1814001C0804101C0804100C1814074
:1004800000C0C101C30302C2C60607C705C5C40434
:10049000CC0C0DCD0FCFCE0E0ACACB0BC90908C8A4
:1004A000D81819D91BDBDA1A1EDEDF1FDD1D1CDC94
:1004B00014D4D515D71716D6D21213D311D1D01004
:1004C000F03031F133F3F23236F6F737F53534F4F4
:1004D0003CFCFD3DFF3F3EFEFA3A3BFB39F9F83864
:1004E00028E8E929EB2B2AEAEE2E2FEF2DEDEC2C54
:1004F000E42425E527E7E62622E2E323E12120E0C4
:10050000A06061A163A3A26266A6A767A56564A4B3
:100510006CACAD6DAF6F6EAEAA6A6BAB69A9A86823
:1005200078B8B979BB7B7ABABE7E7FBF7DBDBC7C13
:10053000B47475B577B7B67672B2B373B17170B083
:100540005090915193535292965657975595945473
:100550009C5C5D9D5F9F9E5E5A9A9B5B99595898E3
:10056000884849894B8B8A4A4E8E8F4F8D4D4C8CD3
:100570004484854587474686824243834181804043
:10058000000101CF08CF0801E307020108048C082D
:10059000089F08FB0E942C13D80180E090E00E9485
:1005A00005100091790310917A030A0F1B1F00397F
:1005B00021E01207E8F40091790310917A03209169
:1005C000790330917A032A0F3B1F0217130780F437
:1005D0000091790310917A0389EE91E0800F911FC9
:1005E000E9E7F3E0008111810A0F1B1F00831183EB
:1005F0000E940B108C01E4E00C943B1308950FEF64
:1006000005B90FEF04B9509A5898519A529A399AED
:10061000389A40985598569857983C983D983E98E7
:100620003F98539A54985C9A089500E010E014B9EA
:100630005A98599A000000000000419A00000000FA
:1006400000001F9B03C003950B3FD8F30A3F10F037
:1006500001E001C000E041981FEF14B908958A93AA
:10066000802FE3DF002311F003E00FC05A98599860
:1006700041980000000085B900000000419A05E0A3
:100680000A95F1F70000419800E0899108958A9356
:10069000802FCBDF002311F003E00FC05A9A599846
:1006A00041980000000085B900000000419A05E073
:1006B0000A95F1F70000419800E0899108959A9316
:1006C0008A93902F812F00E0803420F401E00E9473
:1006D000ED0E03C000E00E94ED0E9770986B092F9D
:1006E000BEDF033021F08F738064082FB8DF89915B
:1006F000999108959A938A9390E001C093959830C8
:1007000070F480E001C083958038C0F7182F092F5E
:10071000D6DF033021F000E0BADF0330A1F7899182
:10072000999108958A9301E00E94ED0E00EC97DF05
:100730000FE395DF802F00E00E94ED0E00EC8FDFCD
:10074000802F0FE38CDF802FD5DF802F082F89913A
:1007500008950E942B13902FA12F822FB0E014C078
:10076000192F1B0F0A2FABDF482F50E008E010E0D5
:100770000E94A2122B2F30E0020F131FF801E05845
:10078000F040049184DFB395B83050F3042DE5E0D8
:100790000C943A130E942B13902F812FD90107C07C
:1007A000FD012081182F092FD4DF1196985F0C913D
:1007B0000023B1F7042DE5E00C943A1398012D5F66
:1007C0003F4FF801218332832FEF3FEFF80123835E
:1007D000348398012D5F3F4FF801258336839801BC
:1007E0002D5F3F4FF8012783308720E0F8012083F9
:1007F000089520E030E0F801208731870895BD0199
:10080000F801A181B281FD0142815381F901428346
:100810005383F80141815281F90144835583129633
:10082000ED91FC91139724833583FD01228333835B
:10083000F80121833283F90100871187F8010081D3
:1008400003950083DB0108950D01F9016081718139
:100850006F3F4FEF740721F4F801A781B0850FC0F7
:10086000D801139603C0FD01A281B381FD0142812D
:100870005381FA014081518164177507A0F7FD018A
:1008800042815381F90142835383F90142815381AB
:10089000FA0124833583F901A483B583FD01228302
:1008A0003383F90100871187F801008103950083E4
:1008B000D0010895AD01F80124813581F801A281AC
:1008C000B38114962D933C93F80122813381F80172
:1008D000A481B58112962D933C93F801A085B18532
:1008E000FD01218132812017310731F4F801248183
:1008F0003581FD012183328320E030E0F80120873B
:1009000031870C910A950C93DA01089508958A9322
:1009100022970E947C100883198380E083958A3097
:1009200008F080E00E94CD0724E630E08E010E94AE
:10093000950FF4CF9A938A9328970E947C100C838A
:100940001D8320E631E010E000E00E94CA0321E7A9
:1009500031E011E000E00E94CA0322E831E012E039
:1009600000E00E94CA0321E731E013E000E00E94AA
:10097000CA0322E931E014E000E00E94CA0321EA40
:1009800031E015E000E00E94CA0322EB31E016E0FE
:1009900000E00E94CA0328EB31E017E000E00E946B
:1009A000CA037EC1839590E00E94CA0B0D5F1F4F62
:1009B00080179107B8F32E813F8116E008E20E946C
:1009C000CA03EBE7F3E0008100FF05C021E310E07C
:1009D00000E20E94A903EBE7F3E0008101FF05C0FC
:1009E00021E310E008E30E94A903EBE7F3E00081B4
:1009F00002FF05C021E310E000E50E94A903EBE738
:100A0000F3E0008103FF05C021E310E008E70E9446
:100A1000A903EBE7F3E0008104FF05C021E314E044
:100A200008E20E94A903EBE7F3E0008105FF05C09F
:100A300021E314E008E40E94A903EBE7F3E000815E
:100A400006FF05C021E314E008E60E94A903EBE7D6
:100A5000F3E0008107FF05C021E315E008E20E94F2
:100A6000A903EBE7F3E0018100FF05C021E315E0F6
:100A700008E40E94A903EBE7F3E0018101FF05C050
:100A800021E315E008E70E94A903EBE7F3E0018109
:100A900002FF05C021E311E008E70E94A903EBE78C
:100AA000F3E0018103FF05C021E313E008E70E94A2
:100AB000A903EBE7F3E0018104FF05C021E311E0A6
:100AC00000E40E94A903EBE7F3E0018105FF05C004
:100AD00021E313E000E40E94A903EBE7F3E00181C6
:100AE00006FF05C021E312E000E30E94A903EBE743
:100AF000F3E0018107FF05C021E312E000E50E9459
:100B0000A903EBE7F3E0028100FF05C021E312E057
:100B100008E10E94A903EBE7F3E0028101FF05C0B1
:100B200021E312E008E60E94A903EBE7F3E0008569
:100B300000FF05C020E310E000E20E94A903EBE7FC
:100B4000F3E0008501FF05C020E310E008E30E9408
:100B5000A903EBE7F3E0008502FF05C020E310E006
:100B600000E50E94A903EBE7F3E0008503FF05C061
:100B700020E310E008E70E94A903EBE7F3E000851B
:100B800004FF05C020E314E008E20E94A903EBE79C
:100B9000F3E0008505FF05C020E314E008E40E94AF
:100BA000A903EBE7F3E0008506FF05C020E314E0AE
:100BB00008E60E94A903EBE7F3E0008507FF05C004
:100BC00020E315E008E20E94A903EBE7F3E00185CA
:100BD00000FF05C020E315E008E40E94A903EBE74D
:100BE000F3E0018501FF05C020E315E008E70E945E
:100BF000A903EBE7F3E0018502FF05C020E311E064
:100C000008E70E94A903EBE7F3E0018503FF05C0B5
:100C100020E313E008E70E94A903EBE7F3E0018576
:100C200004FF05C020E311E000E40E94A903EBE704
:100C3000F3E0018505FF05C020E313E000E40E9416
:100C4000A903EBE7F3E0018506FF05C020E312E00E
:100C500000E30E94A903EBE7F3E0018507FF05C06D
:100C600020E312E000E50E94A903EBE7F3E0028530
:100C700000FF05C020E312E008E10E94A903EBE7B2
:100C8000F3E0028501FF05C020E312E008E60E94C0
:100C9000A90328EE33E08E010C5F1F4F0E94950FD1
:100CA0000AE010E020E030E03A932A931A930A9386
:100CB000482F50E021E030E001E00E94090900E007
:100CC00010E020E030E0088319832A833B830EE0A4
:100CD0000E94DF0E06B1007F005B79F0005249F000
:100CE000005119F0005969F00FC0088101600883B4
:100CF0000BC009810061098307C00981006809836D
:100D000003C00881006108830DE00E94DF0E06B178
:100D1000007F005B79F0005249F0005119F0005952
:100D200069F00FC00881026008830BC0098104606C
:100D3000098307C00A8102600A8303C00881006238
:100D400008830BE00E94DF0E06B1007F005B79F0A4
:100D5000005249F0005119F0005969F00FC00881A4
:100D6000046008830BC00A8101600A8307C00981FF
:100D70000062098303C008810064088307E00E94C1
:100D8000DF0E06B1007F005B61F0005231F00051D0
:100D900059F408810860088307C009810064098349
:100DA00003C00981086009834D9903C00881006868
:100DB00008834E9903C00981016009834F9903C0DC
:100DC000098102600983088119812A813B81488158
:100DD00059816A817B81EBE7F3E0048015802680EE
:100DE00037804025512562257325042315232623AA
:100DF0003723EBE7F3E000831183228333830881F9
:100E000019812A813B81EBE7F3E0408151816281C6
:100E100073810427152726273727EBE7F3E0448162
:100E20005581668177810427152726273727EBE729
:100E3000F3E00087118722873387088119812A818F
:100E40003B81EBE7F3E004831583268337838E0130
:100E50000A5F1F4F0E94B90B80E0A5CD0E94FF02E0
:100E60000E94920320E040E05BE460E070E010E06C
:100E700000E00E9470070E94BA0700E010E01A9399
:100E80000A9300E010E01A930A9300E010E01A932E
:100E90000A9301E00A9360E070E045E550E02EEB34
:100EA00031E00AE914E00E94000F00E010E01A931C
:100EB0000A9300E010E01A930A9300E010E01A93FE
:100EC0000A9302E00A9360E070E045E550E026EC0A
:100ED00031E007E814E00E94000F0E94DF0FFFCF0F
:100EE0008A93302F012F122F80E03323A1F52DE2BA
:100EF0003AE020938C0330938D032BE33AE0209368
:100F00008E0330938F0328E73AE020938A033093CF
:100F10008B0326E43AE0209390033093910320E082
:100F200030E0209392033093930328ED3AE020932E
:100F30009403309395032EE23BE020939603309385
:100F4000970326E73BE020939803309399030E9490
:100F5000F309802F01C082E0882349F40E94950C98
:100F6000002311F483E003C001E00093CB01082FBC
:100F7000899108958A9380E00091CB01013049F472
:100F8000E0918C03F0918D03099500E00093CB0173
:100F900001C086E0082F899108950E942C132297A2
:100FA00000E01091CB01112311F006E0F9C08E0191
:100FB0000E94A30C013009F0F2C008811981E0E819
:100FC000F5E00C94E1124EE953E02AE933E00CE934
:100FD00013E0E0919003F09191030995002351F4FF
:100FE00080919C03E4D0801729F404E010E00E9473
:100FF0009A0CD5C001E0E4D000E110E00E949A0C08
:10100000CEC0E0919A03F0919B03008100939D0371
:1010100001E00093A003EDE9F3E0008107FF08C0C1
:10102000E0919A03F0919B0301810093A00366C0B5
:1010300080E090E001C00196873000E090070CF05E
:101040005DC003E010E0AC010E94A212F801E4537D
:10105000FE4F0081002309F451C003E010E0AC0111
:101060000E94A212F801E453FE4F008110919D03EB
:10107000011709F701E098D00E94CF0B002331F14E
:101080000E94CA0B00939E0310939F03A1E0B0E05F
:10109000A13100E0B00784F50A2F8CD02EE933E0AF
:1010A00000919A0310919B03B80103E010E0AC019A
:1010B0000E94A212F801E453FE4F01811281F8014F
:1010C0008B0109950093A0031196E2CF2EE933E03E
:1010D00000919A0310919B03B80143E050E08C010A
:1010E0000E94A212F801E453FE4F01811281F8011F
:1010F0008B0109950093A00300E056D00091A00356
:10110000002339F002E05CD000E110E00E949A0C6C
:1011100046C00E94B80C43C00AE913E00E94BF0B0E
:101120000E94CA0BC80143D0AC0120919A033091B0
:101130009B03E0918A03F0918B03099530C03DD069
:10114000802F0AE913E00E94BF0B805029F08A9596
:1011500079F08A95C9F023C00E94CA0BC80127D034
:10116000AC0120919A0330919B030E94B50C17C0EB
:101170000E94CA0BC8011BD0AC0120919A03309188
:101180009B030E94B60C0BC00E94CA0BC8010FD073
:10119000AC0120919A0330919B030E94B70C00E0B0
:1011A0002296E4E00C943B13009388030895009189
:1011B0008703089500938703089500918903089594
:1011C000009389030895592F282EC8014FEF6FEF20
:1011D00012C0062E1124FC01008110E00026112609
:1011E0000196F001E058FC4F04914027642FF00174
:1011F000E058FB4F44918901980121503040012B68
:1012000041F7142F00E070E0062B172B822D952F4D
:1012100008950E942A132297A02FC9012A0100E0F5
:10122000A13110F002E026C08E010E94BF0B0A2FF0
:101230000E94DA0806E0A881B9810C938C01012F85
:10124000A881B98111960C93E881F981828382018A
:10125000012FE881F9810383A881B98114964C920A
:1012600005E010E00E94C50B08E010E00E949A0C17
:101270000E94B90C2296EAE00C9439138A9380E01C
:10128000F90120813181253040E03407B9F4F801BB
:10129000318120E0F801428150E0242B352B2F5F73
:1012A0003F4F61E041E050E00D5F1F4F0E9464122C
:1012B000002329F00E94D20B802F01C083E0082F69
:1012C000899108950E942C13229780E0F9010081F2
:1012D0001181053020E0120721F00E94CF0B00237E
:1012E00099F18E010E94BF0BE881F981318120E0E4
:1012F000E881F981028110E0202B312B2F5F3F4FD5
:10130000E881F981538140E0E881F981048110E0AE
:10131000402B512BA881B98115966C9170E08A0100
:10132000000F111F6017710769F461E008811981CE
:101330000A5F1F4F0E946412002339F00E94D20BF3
:10134000802F03C083E001C083E0082F2296E4E0F1
:101350000C943B130E942A132297D801290180E0A4
:101360000E94CF0B002311F080E038C0F201008111
:1013700011810230104088F18E010E94BF0BE8817C
:10138000F981318120E0E881F981028110E0202B90
:10139000312B2F5F3F4FE881F981538140E0E88195
:1013A000F981048110E0402B512B042F052B99F07B
:1013B0008A01000F111FFD01618170E006171707F8
:1013C00051F412968D010E944E12002339F00E94B2
:1013D000D20B802F03C083E001C083E0082F229648
:1013E000E6E00C9439130E942913602ECA01DB0138
:1013F000512E44240E944B0E252D18E0AC01BD0156
:10140000062D0E94DB0D013019F003E0402E1FC0B5
:1014100081300BE4900700E0A00700E0B00728F05F
:1014200003E210E020E030E00CC0880F991FAA1FF3
:10143000BB1FAC01BD0100EA1FE727E130E00E94BD
:10144000B1120E94550E013011F003E0402E0E94AF
:101450004D0E042DE7E00C9438130E944B0E00E073
:101460000093A20310E001E00E94B80D0E946E0EEE
:101470000E944D0E08950E944B0E10E000E00E9465
:10148000B80D0E94A20E0E944D0E08950E942813CE
:101490003801D901CA0144240E944B0EE091E903AE
:1014A000F091EA033497E0F02091E9033091EA03E8
:1014B00003EC13E00E94E308012B91F40091C303B5
:1014C000F30100830091E9031091EA0303501040F7
:1014D000FC010083118304EC13E00D931C9302C004
:1014E00005E0402E0E944D0E042DE8E00C943713C9
:1014F0000E942A13B02FC9012A01A0E0B13110F0D7
:1015000002E053C00E944B0E0091A203013009F08B
:1015100048C001978093E5039093E60301E010E053
:101520000093E7031093E803E091E503F091E603ED
:10153000B083E7EEF3E000811181040D151D0083F7
:1015400011832091E7033091E8030091E5031091A6
:10155000E6030E94E3082091E7033091E803C90104
:1015600001968093E7039093E803402FF901ED552E
:10157000FC4F40832091E7033091E803C9010196B5
:101580008093E7039093E803012FF901ED55FC4F99
:10159000008301E00093A10311E000E00E94B80D78
:1015A00001C0A5E00E944D0E0A2FE6E00C9439130D
:1015B0000E942D132197A0E08E010E94F90D109139
:1015C000A203105039F01A9559F01A9539F11A956D
:1015D00021F03FC00E946E0E3CC00E946E0E39C0CA
:1015E0000E94A20E00E00093A10300E010E000932F
:1015F000E9031093EA030091E9031091EA03C8019B
:1016000001968093E9039093EA032881F801ED5352
:10161000FC4F208302E00093A2031BC0E091E9038A
:10162000F091EA03B09780F40091E9031091EA0386
:10163000C80101968093E9039093EA032881F80199
:10164000ED53FC4F208303C003E00093A2030E94EC
:101650006E0E0A2F2196E3E00C943C138A9380E0EF
:101660000091A103005019F00A9531F03CC010E040
:1016700001E00E94B80D37C00091E7031091E80324
:10168000012BC1F0E091E503F091E60300810E9497
:10169000F00DE5EEF3E0008111810F5F1F4F008335
:1016A0001183E7EEF3E000811181015010400083C7
:1016B000118319C00091A303002311F401E001C0BC
:1016C00000E00093EB0310E001E00E94B80D02E09F
:1016D0000093A1030091EB03013019F40E94800EE6
:1016E00002C00E94910E082F899108958A9380E08C
:1016F0000091A203005029F0025049F00A9569F0C8
:1017000014C001E010E00E949A0C802F0EC002E08D
:1017100010E00E949A0C802F08C001E00E94E008AF
:1017200000E110E00E949A0C802F01E00093A203D8
:101730000091A103023061F40091EB03002341F416
:1017400000E00E94E00800E110E00E949A0C802F67
:1017500000E00093A1030E94A20E0091EC0302306E
:1017600029F404E010E00E949A0C802F082F899140
:10177000089523EA33E0F80120833183089524EAB1
:1017800033E0F8012083318308950093E30310933D
:10179000E40308950091E3031091E4030895009198
:1017A000EB030895005029F00A9529F0065029F01E
:1017B00006C000E0089502E0089506E0089504E000
:1017C0000895BC01F80101E10083319702E2008332
:1017D000319703E300833197CF018901202F2083C4
:1017E0003197012F00833197729700E00083319782
:1017F00000E80083319702978C01202F20833197D6
:10180000012F0083319701E00083319702E00083CC
:10181000319703E00083319704E00083319705E0BE
:101820000083319706E00083319707E0008331970A
:1018300008E00083319709E00083319700E10083DD
:10184000319701E10083319702E10083319703E191
:101850000083319704E10083319705E100833197DC
:101860008A01202F20833197012F0083319708E1CF
:101870000083319709E10083319700E200833197BB
:1018800001E20083319702E20083319703E2008393
:10189000319704E20083319705E20083319706E235
:1018A0000083319707E20083319700E3008331978B
:1018B00001E30083319700E000838F01CB0108959D
:1018C00004D00E94890D01E0089500E81EE320E0A5
:1018D00030E046E00E94AE120150104020403040FF
:1018E000A801012F00938900409388004BE04093AA
:1018F000810000916F00026000936F0008950E94C4
:10190000290D18950895F8940091E101039500932D
:10191000E10108950091E1010A950093E101009130
:10192000E101002309F47894089500E00093EF03A7
:1019300001E0089521E02093EF030093ED0310935D
:10194000EE0301E0089520E03091EF03332359F0D6
:101950002091ED033091EE03F8012083318300E004
:101960000093EF0321E0022F08950895089508954C
:10197000089500E0B09771F0B09739F0E054F0406E
:1019800031F0E058F04029F0089504E0089503E0B4
:10199000089506E008950A920FB6F8940A920DB6DB
:1019A0000A920EB60A921A922A923A924A925A923F
:1019B0006A927A928A929A92AA92BA92CA92DA9287
:1019C000EA92FA920A931A932A933A934A935A9371
:1019D0006A937A938A939A93AA93BA93EA93FA931F
:1019E0000090E1010A92A091F403B091F503CD9328
:1019F000DD930E943811A091F403B091F503CD91CD
:101A0000DD9109900092E101F991E991B991A991D3
:101A10009991899179916991599149913991299136
:101A200019910991F990E990D990C990B990A9902C
:101A3000999089907990699059904990399029901E
:101A4000199009900EBE09900DBE09900FBE099025
:101A500008950A920FB6F8940A920DB60A920EB63D
:101A60000A921A922A923A924A925A926A927A92D6
:101A70008A929A92AA92BA92CA92DA92EA92FA92C6
:101A80000A931A932A933A934A935A936A937A93AE
:101A90008A939A93AA93BA93EA93FA930090E101F6
:101AA0000A92A091F403B091F503CD93DD930E94C7
:101AB0008A100E943811A091F403B091F503CD91E2
:101AC000DD9109900092E101F991E991B991A99113
:101AD0009991899179916991599149913991299176
:101AE00019910991F990E990D990C990B990A9906C
:101AF000999089907990699059904990399029905E
:101B0000199009900EBE09900DBE09900FBE099064
:101B10000895A091F403B091F503CD91DD91099062
:101B20000092E101F991E991B991A9919991899175
:101B30007991699159914991399129911991099115
:101B4000F990E990D990C990B990A990999089900D
:101B500079906990599049903990299019900990FD
:101B60000EBE09900DBE09900FBE099008951895FC
:101B70009A938A93902F812F8ED0992331F00091E0
:101B8000C10000680093C10005C00091C1000F773B
:101B90000093C100882331F00091C10000620093DE
:101BA000C10005C00091C1000F7D0093C10075D038
:101BB00089919991089501E010E01093C10010916E
:101BC000C20016601093C20023E330E03093C500DA
:101BD0002093C4001091C10018611093C1000895B2
:101BE0001091C000212F25FFFBCF0093C60001E01C
:101BF00008952091C600F801208301E008958A939A
:101C0000FA93EA933A922A921A920A927A936A93F0
:101C10005A934A933A932A931A930A938FB7E0916F
:101C20009403F091950309958FBF0991199129911A
:101C30003991499159916991799109901990299017
:101C40003990E991F991899118958A93FA93EA93D9
:101C50003A922A921A920A927A936A935A934A93E0
:101C60003A932A931A930A938FB7E0919603F091CF
:101C7000970309958FBF099119912991399149913C
:101C80005991699179910990199029903990E99128
:101C9000F99189911895F894089578940895E091B0
:101CA0009803F091990309950895A8012FEF30E06A
:101CB00000E213E00E94A212012F10E006950695A3
:101CC000201B310B2093F1033093F20300E004BD9D
:101CD00000E005BD789436D001E0089500916E00D3
:101CE000016000936E000091F10306BD05B504602C
:101CF00005BD05B5016005BD00E00093F003089542
:101D000000916E00016000936E000FE506BD05B501
:101D1000046005BD05B5016005BD04E10093F00355
:101D2000089500916E00016000936E000FE506BDFE
:101D300005B5046005BD05B5016005BD0AE0009369
:101D4000F003089505B50B7F05BD05B50D7F05BDF5
:101D500005B50E7F05BD00916E000E7F00936E00ED
:101D600008958A93FA93EA933A922A921A920A92DF
:101D70007A936A935A934A933A932A931A930A93BB
:101D80008FB70FE506BD0091F003002331F00091FD
:101D9000F0030A950093F00301C081DF8FBF099122
:101DA00019912991399149915991699179910990A4
:101DB000199029903990E991F99189911895000F1E
:101DC000000F0093F3030091F30305B9409A05E077
:101DD0000A95F1F7000040980895002321F00DEFD7
:101DE0000093F30303C00EEF0093F3030091F3039A
:101DF00005B9409A05E00A95F1F70000409808956A
:101E00000E942213680159013A014B0129893A893C
:101E1000830116D3D8014E840A2F0B2B09F471C00D
:101E2000FD018789908D860D971D01977A926A92A0
:101E30006D897E89442D95018D016BD2A401960197
:101E40008C010E94E10B0D931C931197EF85F8898B
:101E50000E2F0F2B11F0A083B1830E94830C0091F1
:101E600042040395009342040091F4031091F5039A
:101E7000012B51F4A093F403B093F50300914204B5
:101E8000013089F474D20FC000914704002359F443
:101E9000E091F403F091F5030689401620F0A09339
:101EA000F403B093F50300914504FD011689011771
:101EB00020F4FD0106890093450400914C0403952C
:101EC00000934C0400914604FD011689011720F48B
:101ED000FD010689009346049D012E5F3F4FFD01E1
:101EE000468950E009E010E00E94A212A80106EF26
:101EF00013E0040F151F0E94FF0381E00E948A0C6B
:101F000001C08FEF813069F400914704002349F04C
:101F1000E091F403F091F5030689041510F40E9492
:101F2000CB0C082FE5E10C9431130E942813D80143
:101F3000390144246AD08D919C911197860D971D8B
:101F400000914304109144042D913C911197021784
:101F5000130780F40D911C91119780179107C8F415
:101F600000914304109144040817190790F4442485
:101F700043940FC00D911C9111978017910738F071
:101F800000914304109144040817190710F44424E5
:101F900043948D939C93442051F00091F40310914D
:101FA000F5030E5F1F4F0E945A048C0112D233D0EA
:101FB000002311F40E94CB0CE8E00C94371300E0EE
:101FC00010E01A930A9300E010E01A930A9300E0DD
:101FD00010E01A930A9300E00A9360E070E045E590
:101FE00050E022EE31E005E811E10ADF013061F452
:101FF000F89401E00093470400E010E000934304EC
:10200000109344040E94600C0895009148040395C5
:102010000093480408950E942C1390E00E94830CC2
:10202000009148040A950093480400914804002355
:1020300009F05CC000914204002309F457C080E01D
:1020400035C0E0913504F0913604A681B7818D0149
:10205000045F1F4F0E945A048D010E5F1F4F0E94A4
:102060005A0400914604FD011689011720F4FD0170
:102070000689009346049D012E5F3F4FFD0146896E
:1020800050E009E010E00E94A212A80106EF13E060
:10209000040F151F0E94FF03FD010689E091F40360
:1020A000F091F5031689011708F081E000913004E2
:1020B000002339F600914904002339F40BC02AD0DB
:1020C000009149040A9500934904009149040023B2
:1020D000B1F781E0813021F000914A04013031F400
:1020E00091E000E000934A040E94CB0C0E948A0C0D
:1020F000092FE4E00C943B139A938A930E94830C7B
:1021000080914304909144040E948A0C8C0189912F
:1021100099910895BA93AA9300914804002309F075
:102120009FC0E3E4F4E0008111810F5F1F4F008343
:1021300011830091430410914404012B99F50091FF
:102140002C0410912D0420912E0430912F04209303
:102150002C0430932D0400932E0410932F0400912F
:102160004B04039500934B04E0912C04F0912D0453
:102170000081002339F40FEF1FEF0093E701109364
:10218000E80110C0A0912C04B0912D041596ED919A
:10219000FC91A681B781FD01028113810093E701C3
:1021A0001093E80100914304109144042091E70149
:1021B0003091E8010217130708F457C02AC08D01B7
:1021C0000E5F1F4F0E945A04FD0104891589012BDF
:1021D00029F08D01045F1F4F0E945A0400914604AC
:1021E000FD011689011720F4FD01068900934604BC
:1021F0009D012E5F3F4FFD01468950E009E010E050
:102200000E94A212A80106EF13E0040F151F0E94FE
:10221000FF03E0912C04F0912D040081002339F498
:102220000FEF1FEF0093E7011093E8011EC0A0918C
:102230002C04B0912D041596ED91FC91A681B781E7
:10224000FD01028113812091430430914404201741
:10225000310708F0B4CF0093E7011093E80105C0FF
:1022600000914904039500934904A991B9910895F7
:10227000BD0100914804002349F001E000934A04A5
:1022800042C0009146040A950093460440914604DA
:1022900050E009E010E00E94A212F801EA50FC4F61
:1022A0000081002371F34091460450E009E010E002
:1022B0000E94A212A6EFB3E0A00FB11F1196ED91FC
:1022C000FC91129702811381FD0101831283FD01AC
:1022D000218132818D010D5F1F4F2017310749F495
:1022E0001196ED91FC91129702811381FD010183FA
:1022F0001283FD01A181B28116960D911C9100936C
:10230000F4031093F503DB01089562D00E94860464
:10231000FCCF0E942C13D801842F48E050E08D019F
:10232000075E1F4F0E94771300E0FD0100A3843079
:1023300008F083E0FD01868B8D010E5F1F4F0E9428
:10234000F9038D01045F1F4F0E94F903FD01A0876F
:10235000B18704E010E090E0081B190BFD01048731
:102360001587FD01A28BB38BE6E00C943B138A9397
:1023700080E00EC0482F50E009E010E00E94A21259
:10238000980106EF13E0020F131F0E94DE038395EE
:10239000843080F30AE114E00E94DE0303E214E0DB
:1023A0000E94DE0300E314E00E94DE0309E314E070
:1023B0000E94DE030AE114E000932C0410932D0424
:1023C00003E214E000932E0410932F0489910895E2
:1023D00008959A938A93C801E091F403F091F5036C
:1023E00082839383009143041091440480179107E2
:1023F00068F42091F4033091F5032E5F3F4F009174
:102400002E0410912F040E94240417C02091F4037D
:102410003091F5032E5F3F4F00912C0410912D0455
:102420000E9424040091E7011091E80180179107B0
:1024300020F48093E7019093E801899199910895A0
:102440000E942A132801C90101E210E00E94CA0279
:10245000D8010A2F0B2BF1F0082F092B21F4820150
:102460000E94CA0201C08C01FD01078B108FFD0183
:102470000789108D012B31F48D010E94FE02A0E02E
:10248000B0E008C0A20125EA30E0FD010789108D07
:102490000E9446138D01E6E00C94391300E0F90127
:1024A000E40FF51F719770F421503040420F531F15
:1024B000440F551F12E0219F11240416150618F42D
:1024C0000394FACF01E00895792F282EC90100E086
:1024D000FC01E40FF51F7197E0F40197480F591FB5
:1024E000440F551F605019F06A9551F013C012E067
:1024F000819F01C00394112404161506D8F30AC065
:1025000012E0819F01C00394112404161506D8F32C
:1025100001C001E0822D972F089500008895FECF1D
:102520000FE50DBF01E00EBFC0E4D1E00E944413EF
:10253000002311F00E945D130E942E070E948D124D
:102540000C948D12149F102D059F100D049F002DCB
:10255000110D089536952795179507954A95D2F749
:102560000895002411241001E0E2EA9592F0001F82
:10257000111F221F331F001C111C221C331C0416A8
:1025800015062606370688F3041A150A260A370A9E
:10259000ECCF001F111F221F331FA001B1010095B6
:1025A00010952095309508957591659155914591B7
:1025B000159011FA259035900895F9DF041B10E06D
:1025C00003C0F4DF041B150B20E030E005C0ECDF96
:1025D000041B150B260B370BB8F010FC17C04591E8
:1025E0000590E00FF11F0417100540E024073407A1
:1025F00058F436F404910024F101E01BF009099429
:10260000E00FF11F25903590F101099411F4D6F7F0
:10261000F1CF31960EF0319650E060E070E04591D8
:102620004B3F48F089F34F3F29F04E3F11F0759131
:10263000659155914591041B150B260B370B39F30A
:1026400018F3E7CFDA92CA92BA92AA929A928A9231
:102650007A926A925A924A92BA93AA939A938A93D6
:102660000895DD84CC84BB84AA84998488847F8087
:102670006E805D804C80BB81AA8199818881F0E069
:10268000EC0FFD1FEF01089501E00895F80101C06E
:102690002193BA0141505040672BD1F7089520E0B3
:1026A00006D0E9F70895259102D0E9F708952D9312
:1026B00001501040202F212B08958CE197E2FC015E
:1026C00005911491FC013296A591B491FC013496C8
:1026D00025913491422F432B19F0F901E4DF01C019
:1026E000DEDF069617E28832910748F30895BD01B0
:1026F000D801F90198010DD049F001910D93002303
:10270000D1F707D019F000E00D93FBCF8901DB0171
:1027100008958A0141505040012B08956402E90157
:1027200000008900600128275345543A303C3A3074
:102730003E3A3043616E3A30002020202020205E57
:102740003A30202020205D3A3000205B3A303C3A7D
:1027500030203E3A305D3A5F2000464545443A30ED
:10276000492B3A30492D3A3000535441523A3053B4
:10277000533A3053544F503A300053454E443A0088
:10278000524543563A00436F6E74726F6C00554168
:102790005254000204AA09106209063E0900000012
:1027A0000000000000000000005049444C4500FFBC
:0127B000FF29
:0400000300000000F9
:00000001FF
