:020000020000FC
:100000000C94B11A18951895189518951895189577
:100010001895189518951895189518951895189578
:100020001895189518951895189518951895189568
:100030000C9490141895189518951895189518956E
:10004000189518950C94CB16189518951895189521
:10005000189518950C9419160C943F161895189528
:100060001895189518951895189518951895189528
:100070001895189518951895189518951895189518
:10008000FFFFFFFFFFFFFF8080F0FCFFFFFFFF3F50
:100090000F030000F0F8FCFEFFFF7F3F3F3F7FFFB4
:1000A000FFFEFCF8F0000000FFFFFFFFFFFFFF0076
:1000B0000000FFFFFFFFFFFF80000080FFFFFFFF4A
:1000C000FFFF0000FFFFFFFFFFFFFF000000000039
:1000D000FFFFFFFFFFFF000000F0F8FCFEFFFF7FC7
:1000E0003F3F3F7FFFFFFEFCF8F000000000FFFFF6
:1000F000FFFFFFFFFFF8E0C00000FFFFFFFFFFFF73
:10010000FFFFFFFFFFFFFF0F0F3FFFFFFFFFFCFCA5
:10011000F8000000FFFFFFFFFFFF00007C7C7EFF78
:10012000FFFFFFFFFF000000FFFFFFFFFFFFFF00DB
:10013000000003070F1F3FFFFFFEFEFFFF3F1F0FE3
:10014000070300007FFFFFFFFFFFFFC0808080C02C
:10015000FFFFFFFFFFFF000000FFFFFFFFFFFF00AB
:10016000007C7C7EFFFFFFFFFFFF00000000FFFF21
:10017000FFFFFFFF1F7FFFFFFFFEFFFFFFFFFFFFF0
:100180001F1F1F1F1F1F1F0000001F1F1F1F1F1FDC
:100190001F0000001F1F1F1F1F1F00000000001F67
:1001A0001F1F1F1F1F0000001F1F1F1F1F1F1F00DB
:1001B000000000000000001F1F1F1F1F1F00000085
:1001C00000000000000103070F1F1F1F1F1F1F1F3C
:1001D000DF1F0F070300C000401F1F1F1F1F1F004E
:1001E000000000001F1F1F1F1F1F000000001F1F17
:1001F0001F1F1F1F00000003070F1F1F1F1F0F07D8
:10020000000000030C300E010E300C0300030C3014
:100210000E010E300C0300030C300E010E300C03E7
:10022000000020001225252912001E252525160074
:10023000FF1221211E001E212121120008080800A2
:10024000030C300E010E300C03001E252525160070
:100250003F001E2121123F003F003F0101013E00EF
:100260009EA1A1927F000020001E21212112001ECC
:100270002121211E003E01013F01013E000000003E
:1002800000C1814001C0804101C0804100C1814066
:1002900001C0804100C1814000C1814001C0804156
:1002A00001C0804100C1814000C1814001C0804146
:1002B00000C1814001C0804101C0804100C1814036
:1002C00001C0804100C1814000C1814001C0804126
:1002D00000C1814001C0804101C0804100C1814016
:1002E00000C1814001C0804101C0804100C1814006
:1002F00001C0804100C1814000C1814001C08041F6
:1003000001C0804100C1814000C1814001C08041E5
:1003100000C1814001C0804101C0804100C18140D5
:1003200000C1814001C0804101C0804100C18140C5
:1003300001C0804100C1814000C1814001C08041B5
:1003400000C1814001C0804101C0804100C18140A5
:1003500001C0804100C1814000C1814001C0804195
:1003600001C0804100C1814000C1814001C0804185
:1003700000C1814001C0804101C0804100C1814075
:1003800000C0C101C30302C2C60607C705C5C40435
:10039000CC0C0DCD0FCFCE0E0ACACB0BC90908C8A5
:1003A000D81819D91BDBDA1A1EDEDF1FDD1D1CDC95
:1003B00014D4D515D71716D6D21213D311D1D01005
:1003C000F03031F133F3F23236F6F737F53534F4F5
:1003D0003CFCFD3DFF3F3EFEFA3A3BFB39F9F83865
:1003E00028E8E929EB2B2AEAEE2E2FEF2DEDEC2C55
:1003F000E42425E527E7E62622E2E323E12120E0C5
:10040000A06061A163A3A26266A6A767A56564A4B4
:100410006CACAD6DAF6F6EAEAA6A6BAB69A9A86824
:1004200078B8B979BB7B7ABABE7E7FBF7DBDBC7C14
:10043000B47475B577B7B67672B2B373B17170B084
:100440005090915193535292965657975595945474
:100450009C5C5D9D5F9F9E5E5A9A9B5B99595898E4
:10046000884849894B8B8A4A4E8E8F4F8D4D4C8CD4
:100470004484854587474686824243834181804044
:1004800088006800FF0F28084004FE031208F205E8
:1004900012029105710800000008FF0701025F02C7
:1004A0005502550A550FD502D5025F020102000020
:1004B0001000FC0F0300F8031008940A8B0A4A0985
:1004C0002A0596041002000084004500F60F4C0037
:1004D000A00000000000FF0F10002000C00000007E
:1004E00040084808500442044402C0017F00400113
:1004F00040024004400800002000AA0FB204A304F8
:10050000B204AA0F2000FE0F02023202CE01000048
:1005100084008408FF0F44008F04A906AF05F90486
:10052000AF04A9068F0C00001003D202320292021F
:10053000100300080806FF0108080808F807000073
:1005400010081104F2030004FA0BAB0AAE0AAA0A5F
:10055000AA0AAB0AFA0B00000408D3095205560395
:100560005201F40F530152015609720902070000AB
:10057000400040004000400040004000400040007B
:1005800040004000400000000008F0051001100588
:1005900010091F01120512091201F20502080000DC
:1005A0001000FC0F030008086808880B09080A0CF3
:1005B000080BE80808080000FC03240124012401BA
:1005C000FF07240924092409FC090008000E000083
:1005D0000008FE070208420842084208FA0F4208D3
:1005E0004209420A020800002204440200082404CE
:1005F000B4032C00A50F2600A4073408640E0000E5
:10060000200020002000FF0F28042802E40024011D
:1006100022022204200400000008FE070A008A08C3
:10062000BE09AA0AAB04AA04BE0A8A090A08000085
:10063000880878050F02F80D0000D80F5404530401
:100640005004D80F300000009804D404B30208020C
:1006500048004402AB0292042A054608400000000C
:10066000E9040A05E8020000AE0FA800A807EF00A1
:10067000A807A808AE0F000010081104F203000636
:10068000FE090A082A0A4A0989084909390A0000A4
:100690000000FE0F02040204F20492049204F20429
:1006A00002040204FE0F0000E20F220422023E01B7
:1006B00020081004EF0208018802780408080000EE
:1006C00088006800FF0F48000000FF0F4904C901BF
:1006D00049027F05800800000000F90F0200F803BE
:1006E0004902490249024902F90B0108FF0F0000C3
:1006F000FE0F02023202CE010404FA02A808AF0F74
:10070000A800FA020404000008080806FF0108080F
:100710000808F8070000FC0F04040404FC0F0000A4
:1007200004020809FC070400D4035402D40B040497
:10073000FF038405650E000000080006FC01A40FFD
:10074000A404A504A604A404A404A404BC0F0000EB
:100750009400F30F9204640ADC07880AAA0AFF0FC8
:10076000AA0ABE0A080A0000100410029201120030
:100770001208F20F12001200920010011006000081
:10078000A8026A023F0AAA0F6C010A011008EF05CD
:100790000802F8050808000088006800FF0F4800FC
:1007A000020AFA0AAF06AA03AF06FA0A020A000012
:1007B000080848084808C807480448040804FF0017
:1007C000080309040A0E00000202FE03520252024C
:1007D000FE0F02010408FC040403FC0400080000EE
:1007E0001004220204010000F20F540150015F01C5
:1007F00050015409F20F00004200F2072E02E207F6
:100800000008F4075301F2075A015609F00F0000DF
:1008100010001100F207000200090006C0013F00AD
:10082000C00100060008000020001000FC0F0300BB
:100830008201BA02AA0AAB0EAA02BA028201000021
:1008400000080008F80F000800080008FF0F100853
:10085000100810080008000048092A0B98057F05B9
:10086000280B4A001008EF050802F80508080000E8
:100870001108F20700087A0A4A09CA08FF0FCA08D5
:100880004A097A0A020800001008100928092409F8
:100890002209E10F22092409280910091008000083
:1008A00010001100F20700025008CF084105410274
:1008B0004F05D0081008000010081708D50F55087C
:1008C00057087D0E57085508D50F17081008000067
:1008D00020002A08F20F2E0060000000F2091A041E
:1008E000D6031204F20900009804D404B30288026B
:1008F000100008002700C40004080408FC070000DA
:1009000044002400F40F5C015701540154015401C8
:100910005409F40F04000000440834048502060161
:10092000940224041008EF040803F80408080000E7
:100930009000540AB60A950A5C0A540934059404D6
:10094000360454029000000000000003C000300094
:100950000C0002000C003000C0000003000000008A
:1009600000000C003000C000000300040003C000C1
:1009700030000C00000000000000000030033003D5
:100980000000000000000000000000000000000067
:1009900010081104F2030004280A2609E4083F089D
:1009A000E409240A200B000088008808FF0F480093
:1009B0002102A3029502E90F9502A3022002000082
:1009C00000088808880888088908FA0F88088808B5
:1009D00088088808000800000108F90909040904CA
:1009E0000D02CB01090209020904F9050108000002
:1009F000200020002000200020000000020204014E
:100A0000880050002000000078080006FF0108025E
:100A100004055F015501D50F55015F01000100007C
:100A200088008808FF0F4800A408AC0AB50BE6044C
:100A3000B404AC0BA40800000000F8018800880092
:100A40008800FF0F880088008800F801000000007F
:100A50001201D200FE0F910008084409AB045205B0
:100A60006A024601C00000000208220932092A0970
:100A70002609E20F22092A09320962090208000048
:100A800088006800FF0F28084004FE0302000200EF
:100A9000FE070008000E00002001270FA50AA50A86
:100AA000670E3800670EA50AAD0A370F2001000057
:100AB000000800040002800160001F006000800147
:100AC0000002000400080000FC033C00C0033C00DE
:100AD000FC030000FC033C00C0033C00FC030000DE
:100AE0000002E0039C00F000800300020000000010
:100AF00000000000000000000000000000000000F6
:100B00000000000004007C008003E0001C000400E2
:100B100000000000000000000000000000000000D5
:100B200000000000000000000000000000000000C5
:100B300000000000000000000003000300000000AF
:100B4000F8010402040204020C010000FC033C0052
:100B5000C0033C00FC0300000004800360001C0094
:100B600002000000FC033C00C0033C00FC0300004A
:100B700004020402FC030402040200000402FC0359
:100B80003002C400FC030400820F8200BA00AA0EE7
:100B9000AA0AAB0AAA0AAA0EBA008208820F0000AB
:100BA00034012C01F70FA400E80FA402EA0F09009A
:100BB000CA030408E80F000080071E041004100494
:100BC0001004FF071004100410041E04800F00001E
:100BD000220444020008880888088908FA0F880857
:100BE000880888080008000008080A06FA00AE060F
:100BF000AA08AB09AA0AAE08FA0C0A02080C0000FF
:100C00002C082408A40964053D05260224022405B5
:100C1000E40424082C000000800092009200920856
:100C20009208FE0F91009100910091008000000059
:100C30000000FC0F24092409260925092409240998
:100C40002409FC0F000000002008220422022201D7
:100C5000E2003E00E207220822082208200E0000DF
:100C600004040402840974084F084408C40F4408AB
:100C70004408440804080000040204018400E40F4E
:100C80005C044704440444044404C40F040000000A
:100C900086088208920492039200930092009207C1
:100CA00092088208860C00000008FC072400240239
:100CB000E40B0404FF02040185026604040F000033
:100CC0009800F70F940484021000D40F5F055405B8
:100CD00054055F05D40F00002200E40F0005400119
:100CE0005E095205D20352055E0940010001000071
:100CF000F801040204020402F801000000000802E6
:100D0000FC030002000000001803840244022402D5
:100D1000180000000801040224022402D801000087
:100D2000C000B0008802FC03800200003C012402E5
:100D300024022402C4010000F801240224022C022F
:100D4000C00100000C000400E4031C0004000000CB
:100D5000D801240224022402D801000038004403F0
:100D600044024402F80100000000FE03FC01F80008
:100D700070002000000000000000000000000000E3
:100D800038393A1F204638393A3B3C4638393A021E
:100D9000034638393A5859462C2D3A1F20462C2DF7
:100DA0003A3B3C46461D071E1D071F2046462C2D7C
:100DB0001E2C2D1F203229464646464646464646AC
:100DC0004646004646013546434646463B3C1011E2
:100DD0003546434646461F200B2935460B464646B8
:100DE0001246134614354646464604050646073560
:100DF00046464646090A0B0C2D35464646463E07F2
:100E00004041423F464646461F2009460B0C2D46B0
:100E10004646464646464646464646464646461F99
:100E2000203D464646464B0E4C4D4E4F502B4646B7
:100E300027281E27281F2046464646464646464641
:100E40004646464625261F200B0C2D46464646465E
:100E50004646464646464646464646464646464632
:100E600046461805191A35464346464646464646FE
:100E700046464646464646461F205657464646463E
:100E8000461D071E1D073B3C46462C2D1E2C2D3BA8
:100E90003C322946121314354646464646463B0820
:100EA00035464646464646460203211F46464646C6
:100EB0004646464646464646464646462E2F354612
:100EC00046464646464646464646464646464646C2
:100ED0004646464646464646464602033B3C3D4657
:100EE00046464646464646464646464646460D0F12
:100EF0003546440D0E3547453B2A354648494A4656
:100F000046463B08354649464646464646464646D8
:100F1000464646464646585935464646464646465D
:100F20004646464646464646464646464646464661
:100F3000464646462C2D46464646464646460217F7
:100F4000333435363746151625263334351B1C46C3
:100F50002324252646464646464623242C2D46462F
:100F600046464646151653465446554654550001C6
:100F700001A30DAE0C01B30C02D10C04600D08737B
:100F80000DFB00013C110E11101311101711101B55
:100F900011101E11102211102511102811102A11E4
:100FA000102E11103111103411103611103911108A
:100FB0003B11FB00000173114511104A11104E1135
:100FC000105211105511105911105C11105F1110B1
:100FD0006111106511106811106B11106D111070F6
:100FE00011107211FB000001AA117C111081111067
:100FF0008511108911108C111090111093111096F9
:1010000011109811109C11109F1110A21110A41111
:1010100010A71110A911FB000E94591BD80180E0F4
:1010200090E00E940C1800914D0310914E030A0F9E
:101030001B1F003921E01207E8F400914D031091C5
:101040004E0320914D0330914E032A0F3B1F021790
:10105000130780F400914D0310914E038DEB91E046
:10106000800F911FEDE4F3E0008111810A0F1B1F37
:10107000008311830E9412188C01E4E00C94681B19
:1010800008950FEF05B90FEF04B9509A5898519A87
:10109000529A399A389A40985598569857983C9849
:1010A0003D983E983F98539A54985C9A3B9A3A9A46
:1010B000089500E004B90FEF05B95A98599AF894C9
:1010C000419A000000001F99FECF419878940FEFDD
:1010D00004B908958A93802FECDF5A985998F894B0
:1010E00085B900000000419A05E00A95F1F700007B
:1010F000419878940000899108958A93802FD9DFD0
:101100005A9A5998F89485B900000000419A05E070
:101110000A95F1F7000041987894899108950FEFAE
:1011200005B900E004B95A9A599A41980AE10A951A
:10113000F1F700C0419A0AE10A95F1F700C0419821
:101140000AE10A95F1F700C0F894419A0AE10A957C
:10115000F1F700C003B17894419810E015B91FEF82
:1011600014B908958A93812F803418F4429A4398D1
:1011700002C0439A4298086BADDF8064082FAADF53
:10118000899108959A938A9390E00DC0803429F450
:10119000439A4298092F086B9DDF00E0AEDF8395EC
:1011A0008038A0F39395983038F4429A4398092FE9
:1011B000086B90DF80E0F4CF899199910895429A6D
:1011C000439800EC87DF0FE385DF439A429800ECF9
:1011D00081DF0FE37FDFD6DF08950E94591B902F38
:1011E00080E017C01A2F092FBDDF482F50E000E81C
:1011F00010E00E94C31AE0E8F0E0E00FF11FB0E059
:10120000EA0FFB1F049179DFA395A03858F393955B
:101210008395843010F4A0E0F8CF80E014C0429AA7
:101220004398082F006C56DF439A4298082F006CB1
:1012300051DF0FEF10E722E0015010402040E1F7AE
:1012400000C000008395813450F30FEF17EA21E6C8
:10125000015010402040E1F700C00000E4E00C9491
:10126000681B0E94521B2801A22E3A01932E88244B
:1012700029C044E08C019D010E94D41AC801D90103
:10128000F201108106E06EDF4ADF10E00F7010708F
:10129000212F220F220B322F802B912BA22BB32B2D
:1012A000F201108106E05EDF8C0127DFF201108180
:1012B00007E058DF892F082F20DFF2010081039516
:1012C00000838394891408F009C1F2010081013878
:1012D00018F000E8F2010083F3013196849190E068
:1012E000A0E0BA2FA92F982F80E0F301049110E01D
:1012F00020E030E0802B912BA22BB32B02E0600E7C
:1013000000E0701E0A2D005061F00A9559F10A950F
:1013100009F46AC00A9509F49FC00A9509F4A9CF97
:10132000CCCFF201108100E01DDF8C01E6DEF2017E
:10133000108101E017DF892F9A2FAB2FB0E0EFDE8D
:1013400010E0007E1070212F220F220B322F802BF5
:10135000912BA22BB32BF201108101E003DF082FA8
:10136000CCDEABCF45E08C019D010E94D41AC801B0
:10137000D901F201108101E0F5DED1DE10E00F713C
:101380001070212F220F220B322F802B912BA22B9A
:10139000B32BF201108101E0E5DE8C01AEDEF2013B
:1013A000108102E0DFDE892F9A2FAB2FB0E08C0195
:1013B000A4DEF201108103E0D5DE892F9A2FAB2F36
:1013C000B0E0ADDE10E00E7F1070212F220F220B57
:1013D000322F802B912BA22BB32BF201108103E033
:1013E000C1DE082F8ADE69CF42E08C019D010E9498
:1013F000D41AC801D901F201108103E0B3DE8FDEF7
:1014000010E003701070212F220F220B322F802B3F
:10141000912BA22BB32BF201108103E0A3DE8C01F0
:101420006CDEF201108104E09DDE892F9A2FAB2F34
:10143000B0E075DE10E0007C1070212F220F220B2F
:10144000322F802B912BA22BB32BF201108104E0C1
:1014500089DE082F52DE31CF47E08C019D010E94CA
:10146000D41AC801D901F201108104E07BDE57DEF5
:1014700010E00F771070212F220F220B322F802BBC
:10148000912BA22BB32BF201108104E06BDE8C01B7
:1014900034DEF201108105E065DE892F9A2FAB2F33
:1014A000B0E08C012ADEF201108106E05BDE892FBC
:1014B0009A2FAB2FB0E033DE10E0007F1070212FA9
:1014C000220F220B322F802B912BA22BB32BF20158
:1014D000108106E047DE082F10DEEFCEEBE00C9423
:1014E000611B98012D5F3F4FF801218332832FEF5D
:1014F0003FEFF8012383348398012D5F3F4FF801BC
:101500002583368398012D5F3F4FF801278330876D
:1015100020E0F8012083089520E030E0F8012087E2
:1015200031870895BD01F801A181B281FD01428199
:101530005381F90142835383F80141815281F901BA
:10154000448355831296ED91FC9113972483358340
:10155000FD0122833383F80121833283F90100875F
:101560001187F801008103950083DB0108950D01C7
:10157000F901608171816F3F4FEF740721F4F80129
:10158000A781B0850FC0D801139603C0FD01A281C9
:10159000B381FD0142815381FA0140815181641779
:1015A0007507A0F7FD0142815381F90142835383FE
:1015B000F90142815381FA0124833583F901A4831F
:1015C000B583FD0122833383F90100871187F80178
:1015D000008103950083D0010895AD01F8012481B5
:1015E0003581F801A281B38114962D933C93F801C3
:1015F00022813381F801A481B58112962D933C9309
:10160000F801A085B185FD012181328120173107C4
:1016100031F4F80124813581FD012183328320E0FA
:1016200030E0F801208731870C910A950C93DA019C
:10163000089500917D0310917E030E940912089580
:101640000E94831800938103109382030E94980CD8
:1016500023E030E001E813E00E949C17F7CF0E94DE
:10166000591B24970E948318088319830BE513E004
:1016700000937D0310937E0314C00AE010E020E085
:1016800030E03A932A931A930A934FE050E02CE00B
:1016900030E001E00E94960E2EE130E08E010E94C3
:1016A0009C1700917F03002329F00091800303958C
:1016B000009380030E94FF10C801D901EFE4F3E01A
:1016C00044815581668177818C019D01042715270E
:1016D00026273727AC01BD01402351236223732302
:1016E000EFE4F3E04083518362837383EFE4F3E03C
:1016F0000081118122813381AC01BD014027512736
:1017000062277327EFE4F3E0048115812681378196
:101710004027512762277327EFE4F3E04087518782
:1017200062877387EFE4F3E084839583A683B783AE
:101730008E010E5F1F4F0E94B4140A811B8101307D
:1017400020E0120709F0A8CF8C01E0917D03F09111
:101750007E0300831183892F9A2FE0917D03F091FE
:101760007E0382839383EFE4F3E000811181228181
:101770003381012B022B032BA1F00AE010E020E0C3
:1017800030E03A932A931A930A9360917D03709103
:101790007E0342E050E02AE030E001E00E94DD0DEF
:1017A0007BCFEFE4F3E00085118522853385012BA3
:1017B000022B032B09F461CF0AE010E020E030E0B7
:1017C0003A932A931A930A9360917D0370917E0352
:1017D00042E050E02AE030E001E00E94DD0D5CCF05
:1017E0000E9441080E94DF0802E00E94ED080E946A
:1017F000C20820E040E056E960E070E010E000E060
:101800000E943B0C0E94850C01E010E00E94AB148A
:1018100000E010E01A930A9300E010E01A930A9394
:1018200000E010E01A930A9302E00A9360E070E08F
:1018300045E550E020E931E00FE21BE00E94071788
:1018400000E010E01A930A9300E010E01A930A9364
:1018500000E010E01A930A9301E00A9360E070E060
:1018600045E550E028E931E000E21BE00E9407175F
:101870000E94E617FFCF8A93302F012F122F80E0AE
:101880003323A1F52FE43FE02093880330938903AD
:101890002DE53FE020938A0330938B032AE93FE054
:1018A000209386033093870328E63FE020938C0340
:1018B00030938D0320E030E020938E0330938F032C
:1018C0002AEF3FE0209390033093910322E530E12B
:1018D00020939203309393032AE930E120939403F9
:1018E000309395030E94150F802F01C082E088235A
:1018F00049F40E94A614002311F483E003C001E020
:1019000000939F01082F899108958A9380E00091A8
:101910009F01013049F4E0918803F0918903099512
:1019200000E000939F0101C086E0082F899108958F
:101930000E94591B229700E010919F01112311F082
:1019400006E002C18E010E94B414013009F0FBC010
:1019500008811981EEE6FFE00C940E1B01E010E017
:101960000E94AB14F0C04AE953E026E933E008E9ED
:1019700013E0E0918C03F0918D030995002351F45D
:1019800080919803E8D0801729F404E010E00E94C9
:10199000AB14D9C002E0E8D000E110E00E94AB1423
:1019A000D2C0E0919603F0919703008100939903D0
:1019B00001E000939C03E9E9F3E0008107FF08C020
:1019C000E0919603F0919703018100939C0366C018
:1019D00080E090E001C00196873000E090070CF0B5
:1019E0005DC003E010E0AC010E94C31AF801E056AC
:1019F000FE4F0081002309F451C003E010E0AC0168
:101A00000E94C31AF801E056FE4F0081109199031D
:101A1000011709F701E09CD00E94ED10002331F17D
:101A20000E94E81000939A0310939B03A1E0B0E09A
:101A3000A13100E0B00784F50A2F90D02AE933E005
:101A40000091960310919703B80103E010E0AC01F8
:101A50000E94C31AF801E056FE4F01811281F8017D
:101A60008B01099500939C031196E2CF2AE933E09C
:101A70000091960310919703B80143E050E08C0168
:101A80000E94C31AF801E056FE4F01811281F8014D
:101A90008B01099500939C0300E05AD000919C03B0
:101AA000002339F003E060D000E110E00E94AB14A5
:101AB0004AC00E94D21401E010E00E94AB1443C05F
:101AC00006E913E00E94DD100E94E810C80143D02F
:101AD000AC012091960330919703E0918603F09139
:101AE0008703099530C03DD0802F06E913E00E949E
:101AF000DD10815029F08A9579F08A95C9F023C0CC
:101B00000E94E810C80127D0AC01209196033091C3
:101B100097030E94C61417C00E94E810C8011BD08A
:101B2000AC0120919603309197030E94CA140BC018
:101B30000E94E810C8010FD0AC01209196033091AB
:101B400097030E94CE1400E02296E4E00C94681BF8
:101B50000093840308950091830308950093830301
:101B60000895009185030895009385030895592FE2
:101B7000282EC8014FEF6FEF12C0062E1124FC0172
:101B8000008110E0002611260196F001E058FD4F7B
:101B900004914027642FF001E058FC4F44918901E3
:101BA000980121503040012B41F7142F00E070E0E4
:101BB000062B172B822D952F08950E94541B2297D8
:101BC000802ED901CA013B014424552400E011E1D3
:101BD000811610F002E05EC08E010E94DD10082D1B
:101BE0000E94AE0D20E1E881F98120838D01012F53
:101BF000202FE881F98121830A2FE881F98102836E
:101C00008C01012FE881F9810383082FE881F98194
:101C10000483182F02E0109FE881F9810582088172
:101C200019810A5F1F4F0883198325C08201000FA5
:101C3000111FF301E00FF11F1181012FE881F981DC
:101C40000083088119810F5F1F4F08831983820168
:101C5000000F111FF301E00FF11F0081E881F981EE
:101C6000008301E0400E00E0501E088119810F5FE3
:101C70001F4F0883198348165906C0F2880F991F11
:101C800006968C010E94E31008E010E00E94AB145D
:101C90000E94D3142296EDE00C94631B0E94591B02
:101CA000229780E0F90100811181053020E01207C0
:101CB00021F00E94ED10002399F18E010E94DD10A9
:101CC000E881F981318120E0E881F981028110E029
:101CD000202B312B2F5F3F4FE881F981538140E06A
:101CE000E881F981048110E0402B512BA881B98152
:101CF00015966C9170E08A01000F111F6017710733
:101D000069F461E0088119810A5F1F4F0E94551A2A
:101D1000002339F00E94F010802F03C083E001C03F
:101D200083E0082F2296E4E00C94681B0E94571B66
:101D30002297A02FC9012A0100E0A13110F002E092
:101D400026C08E010E94DD100A2F0E94AE0D03E016
:101D5000A881B9810C938C01012FA881B9811196BA
:101D60000C93E881F98182838201012FE881F98156
:101D70000383A881B98114964C9205E010E00E947B
:101D8000E31008E010E00E94AB140E94D3142296E6
:101D9000EAE00C94661B0E94571B2297D801290188
:101DA00080E00E94ED10002311F080E039C0F201C4
:101DB000008111810230104090F18E010E94DD10EF
:101DC000E881F981318120E0E881F981028110E028
:101DD000202B312B2F5F3F4FE881F981538140E069
:101DE000E881F981048110E0402B512B042F052B51
:101DF000A1F08A01000F111FFD01618170E006173B
:101E0000170759F460E012968D010E94551A0023BD
:101E100039F00E94F010802F03C083E001C083E0FE
:101E2000082F2296E6E00C94661B0E94561B602E3B
:101E3000CA01DB01512E44240E946516252D18E0AD
:101E4000AC01BD01062D0E94F515013019F003E02B
:101E5000402E1FC081300BE4900700E0A00700E097
:101E6000B00728F003E210E020E030E00CC0880F5B
:101E7000991FAA1FBB1FAC01BD0100EA1FE727E1A4
:101E800030E00E94DE1A0E946F16013011F003E06C
:101E9000402E0E946716042DE7E00C94651B0E94FB
:101EA000651600E000939E0310E001E00E94D21549
:101EB0000E9488160E94671608950E94651610E019
:101EC00000E00E94D2150E94BC160E946716089579
:101ED0000E94551B3801D901CA0144240E9465168D
:101EE000E091D903F091DA033497E0F02091D9031F
:101EF0003091DA030FEA13E00E94B70D012B91F441
:101F00000091AF03F30100830091D9031091DA032C
:101F100003501040FC010083118300EB13E00D938C
:101F20001C9302C005E0402E0E946716042DE8E0D5
:101F30000C94641B0E94571BB02FC9012A01A0E01A
:101F4000B13110F002E053C00E94651600919E036B
:101F5000013009F048C001978093D5039093D603D0
:101F600001E010E00093D7031093D803E091D5036C
:101F7000F091D603B083E7EDF3E000811181040D09
:101F8000151D008311832091D7033091D803009150
:101F9000D5031091D6030E94B70D2091D70330913D
:101FA000D803C90101968093D7039093D803402F9B
:101FB000F901E156FC4F40832091D7033091D803BB
:101FC000C90101968093D7039093D803012FF9019B
:101FD000E156FC4F008301E000939D0311E000E017
:101FE0000E94D21501C0A5E00E9467160A2FE6E004
:101FF0000C94661B0E945A1B2197A0E08E010E9440
:10200000131610919E03105039F01A9559F01A9535
:1020100049F11A9521F041C00E9488163EC00E94E5
:1020200088163BC00E94BC1600E000939D0300E0B0
:1020300010E00093D9031093DA030091D9031091B3
:10204000DA03C80101968093D9039093DA032881BB
:10205000F801E155FC4F208302E000939E030E94AB
:1020600088161BC0E091D903F091DA03B49780F48D
:102070000091D9031091DA03C80101968093D90326
:102080009093DA032881F801E155FC4F208303C0C7
:1020900003E000939E030E9488160A2F2196E3E036
:1020A0000C94691B8A9380E000919D03005019F005
:1020B0000A9531F03CC010E001E00E94D21537C013
:1020C0000091D7031091D803012BC1F0E091D50303
:1020D000F091D60300810E940A16E5EDF3E000813D
:1020E00011810F5F1F4F00831183E7EDF3E0008143
:1020F0001181015010400083118319C000919F038A
:10210000002311F401E001C000E00093DB0310E0C4
:1021100001E00E94D21502E000939D030091DB03D1
:10212000013019F40E949A1602C00E94AB16082FC3
:10213000899108958A9380E000919E03005029F0D0
:10214000025049F00A9569F014C001E010E00E94C5
:10215000AB14802F0EC002E010E00E94AB14802F61
:1021600008C002E00E94B40D00E110E00E94AB1430
:10217000802F01E000939E0300919D03023061F4E3
:102180000091DB03002341F401E00E94B40D00E163
:1021900010E00E94AB14802F00E000939D030E948A
:1021A000BC160091DC03023029F404E010E00E9428
:1021B000AB14802F082F8991089520EA33E0F801AD
:1021C0002083318308950093D3031093D40308959B
:1021D0000091D3031091D40308950091DB03089577
:1021E000005029F00A9529F0065029F006C000E0B9
:1021F000089502E0089506E0089504E008950E941D
:10220000591B80E090E0A0E0B0E00EE00E94F916DB
:1022100006B1007FE2E8FFE00C940A1B8160916048
:102220008068906129C091608068906125C081605C
:102230008068906121C0806890611EC0816091605B
:1022400090611AC09160906117C08160906114C064
:10225000906112C08160916080680EC0916080685A
:102260000BC08160806808C0806806C08160916092
:1022700003C0916001C081600DE00E94F91606B1B3
:10228000007FE4EBFFE00C940A1B826094608062A4
:10229000906229C094608062906225C082608062F2
:1022A000906221C0806290621EC0826094609062E1
:1022B0001AC09460906217C08260906214C09062ED
:1022C00012C08260946080620EC0946080620BC015
:1022D0008260806208C0806206C08260946003C031
:1022E000946001C082600BE00E94F91606B1007F85
:1022F000E6EEFFE00C940A1B8460806192609064BB
:1023000029C080619260906425C08460926090646E
:1023100021C0926090641EC08460806190641AC085
:102320008061906417C08460906414C0906412C08F
:102330008460806192600EC0806192600BC0846096
:10234000926008C0926006C08460806103C08061B2
:1023500001C0846007E00E94F91606B1007F0058B2
:1023600069F0005179F0005181F0005189F000517D
:1023700089F0005191F0005191F012C088608064A2
:1023800098600EC0806498600BC08860986008C038
:10239000986006C08860806403C0806401C0886063
:1023A0000FEF0E94F9164D9B90684E9BA1604F9BCA
:1023B000A2608C019D01E4E00C94681B0E94561BF6
:1023C000D801522E632EFA018081918144241BC0D2
:1023D00036E08C010F7010704CE050E00E94C31A80
:1023E00040EF5CE0400F511F252D8D010E94310907
:1023F00044E08C010E94CD1AC801461419F40C91D6
:102400000A5F0C93439403E0401610F3E7E00C944A
:10241000651B0E94571B219728010091DF03109133
:10242000E003F201008B118BF20180899189009108
:10243000DD030F70202F8C010F70201799F100E041
:102440000883A0E01EC03CE08C010F70107046E0D5
:1024500050E00E94C31AE0E8FDE0E00FF11FB0E099
:10246000EA0FFB1F449150E008E110E00E94C31AFC
:1024700040E854E0400F511F20E08E010E943109D6
:10248000A395A63000F32091DD033091DE03207F79
:102490003F7F8C010F701070202B312B2093DD03B8
:1024A0003093DE0344E00091DD031091DE030E94CF
:1024B000CD1A0F77202F44E08C010E94CD1A0F77A0
:1024C000201709F445C0B0E02EC03CE044E08C0188
:1024D0000E94CD1A0F77107043E050E00E94C31A9B
:1024E0004B2F50E0040F151F4AE050E00E94C31A22
:1024F000E4EAFDE0E00FF11F0A2F10E0E00FF11F0A
:10250000449150E008E110E00E94C31A40E854E012
:10251000400F511F2B2F23958E010E943109A39547
:10252000AA3098F2B395B33020F407E00883A0E016
:10253000F7CF2091DD033091DE032F70387F8C01BF
:10254000007F1770202B312B2093DD033093DE03A7
:102550001091DE03012F0695069506950770202F32
:102560008C01012F0695069506950770201709F432
:1025700059C000E00883A0E02FC0A23011F403E2AC
:102580000883A53011F403E40883A83011F408E6A9
:1025900008833CE08C01012F10E006950695069516
:1025A000077010704AE050E00E94C31AEAE2FFE0B0
:1025B000E00FF11FB0E0EA0FFB1F449150E008E18B
:1025C00010E00E94C31A40E854E0400F511F24E07D
:1025D0008E010E943109A395AA3078F28C01012F57
:1025E0000695069506950770023039F401E00093D0
:1025F0007F0300E00093800306C000E000937F03A8
:1026000000E0009380032091DD033091DE032F7FF3
:10261000377C8C0100701873202B312B2093DD0345
:102620003093DE03A1E017C04BE000918003093234
:1026300018F000E00093800336E050E00CE010E07A
:102640000E94C31A40EF5CE0400F511F2A2F8E01F9
:102650000E943109A395A43078F400E008838C012E
:1026600024E0012F029F012DA017F1F600918003B5
:102670000431D0F64AE0D9CF44E08C010E94CD1A53
:102680000F77015049F00A95E9F0045009F471C040
:10269000055009F47AC0A2C0A0E011C00DE3088380
:1026A00034E00A2F10E0000F111FA201400F511F4C
:1026B000465F5F4F2A2F23958E0180DEA395A330BE
:1026C00068F38CC0F201868109E408833CE068E18C
:1026D0007CE0482F4170507008E110E00E94C31A5E
:1026E000600F711FAB0121E08E010E9431093CE0B7
:1026F00048E255E021E08E010E94310909E4088397
:10270000A0E01FC03CE0082F0695069510E003707E
:102710001070000F111FE6E6FFE0E00FF11FB0E0C0
:10272000EA0FFB1F449150E008E110E00E94C31A39
:1027300040E854E0400F511F22E08E010E94310911
:10274000A395A230F8F209E408833CE060E67CE05F
:10275000482F41FB40E050E040F908E110E00E94C2
:10276000C31A600F711FAB0123E08E010E94310973
:1027700035C00DE3088334E008E0400E00E0501E51
:10278000A20122E08E011ADE29C0A0E011C005E2FC
:10279000088334E00A2F10E0000F111FA201400F40
:1027A000511F4C5E5F4F2A2F23958E0107DEA395A4
:1027B000A33068F301E6088331E0A201465E5F4F73
:1027C00021E08E01FBDD0DE3088334E002E1400EE1
:1027D00000E0501EA20123E08E01F0DD2196E6E02C
:1027E0000C94661BBC01F80101E10083319702E201
:1027F0000083319703E300833197CF018901202FB4
:1028000020833197012F00833197729700E0008376
:10281000319700E80083319702978C01202F2083A5
:102820003197012F0083319701E00083319702E057
:102830000083319703E00083319704E000833197F0
:1028400005E00083319706E00083319707E00083BD
:10285000319708E00083319709E00083319700E168
:102860000083319701E10083319702E100833197C2
:1028700003E10083319704E10083319705E1008390
:1028800031978A01202F20833197012F00833197C0
:1028900008E10083319709E10083319700E200836A
:1028A000319701E20083319702E20083319703E21E
:1028B0000083319704E20083319705E2008331976A
:1028C00006E20083319707E20083319700E300833B
:1028D000319701E30083319700E000838F01CB0142
:1028E000089504D00E94A31501E0089500E81EE3B6
:1028F00020E030E046E00E94DB1A0150104020400A
:102900003040A801012F00938900409388004BE0DC
:102910004093810000916F00026000936F00089562
:102920000E94431518950895F8940091B5010395F8
:102930000093B50108950091B5010A950093B50182
:102940000091B501002309F47894089500E0009304
:10295000E30301E0089521E02093E3030093E10302
:102960001093E20301E0089520E03091E303332364
:1029700059F02091E1033091E203F8012083318383
:1029800000E00093E30321E0022F089501E00093AB
:10299000E403089502E00093E403089503E0009344
:1029A000E4030895089500E0B09771F0B09739F00E
:1029B000E054F04031F0E058F04029F0089504E090
:1029C000089503E0089506E008950A920FB6F8947A
:1029D0000A920DB60A920EB60A921A922A923A9268
:1029E0004A925A926A927A928A929A92AA92BA9247
:1029F000CA92DA92EA92FA920A931A932A933A9333
:102A00004A935A936A937A938A939A93AA93BA931E
:102A1000EA93FA930090B5010A92A091E903B0916C
:102A2000EA03CD93DD930E943F19A091E903B09191
:102A3000EA03CD91DD9109900092B501F991E991F8
:102A4000B991A991999189917991699159914991F6
:102A50003991299119910991F990E990D990C990EA
:102A6000B990A990999089907990699059904990DE
:102A700039902990199009900EBE09900DBE0990C9
:102A80000FBE099008950A920FB6F8940A920DB6F7
:102A90000A920EB60A921A922A923A924A925A923E
:102AA0006A927A928A929A92AA92BA92CA92DA9286
:102AB000EA92FA920A931A932A933A934A935A9370
:102AC0006A937A938A939A93AA93BA93EA93FA931E
:102AD0000090B5010A92A091E903B091EA03CD9369
:102AE000DD930E9491180E943F19A091E903B091D3
:102AF000EA03CD91DD9109900092B501F991E99138
:102B0000B991A99199918991799169915991499135
:102B10003991299119910991F990E990D990C99029
:102B2000B990A9909990899079906990599049901D
:102B300039902990199009900EBE09900DBE099008
:102B40000FBE09900895A091E903B091EA03CD91D9
:102B5000DD9109900092B501F991E991B991A9919E
:102B600099918991799169915991499139912991D5
:102B700019910991F990E990D990C990B990A990CB
:102B800099908990799069905990499039902990BD
:102B9000199009900EBE09900DBE09900FBE0990C4
:102BA000089518959A938A93902F812F8ED0992308
:102BB00031F00091C10000680093C10005C0009190
:102BC000C1000F770093C100882331F00091C1004C
:102BD00000620093C10005C00091C1000F7D009309
:102BE000C10075D089919991089501E010E010938A
:102BF000C1001091C20016601093C20029E130E0BC
:102C00003093C5002093C4001091C1001861109347
:102C1000C10008951091C000212F25FFFBCF009324
:102C2000C60001E008952091C600F801208301E06C
:102C300008958A93FA93EA933A922A921A920A9200
:102C40007A936A935A934A933A932A931A930A93DC
:102C50008FB7E0919003F091910309958FBF09918F
:102C600019912991399149915991699179910990D5
:102C7000199029903990E991F991899118958A9341
:102C8000FA93EA933A922A921A920A927A936A9360
:102C90005A934A933A932A931A930A938FB7E091DF
:102CA0009203F091930309958FBF0991199129918E
:102CB0003991499159916991799109901990299087
:102CC0003990E991F99189911895F894089578943B
:102CD0000895E0919403F091950309950895A80152
:102CE0002FEF30E000E213E00E94C31A012F10E042
:102CF00006950695201B310B2093E6033093E703DE
:102D000000E004BD00E005BD789436D001E00895F0
:102D100000916E00016000936E000091E60306BD15
:102D200005B5046005BD05B5016005BD00E0009373
:102D3000E503089500916E00016000936E000FE5B9
:102D400006BD05B5046005BD05B5016005BD04E11E
:102D50000093E503089500916E00016000936E00FA
:102D60000FE506BD05B5046005BD05B5016005BDEF
:102D700000E00093E503089505B50B7F05BD05B59B
:102D80000D7F05BD05B50E7F05BD00916E000E7F60
:102D900000936E0008958A93FA93EA933A922A92E6
:102DA0001A920A927A936A935A934A933A932A937D
:102DB0001A930A938FB70FE506BD0091E503002330
:102DC00031F00091E5030A950093E50301C081DF2E
:102DD0008FBF09911991299139914991599169911F
:102DE00079910990199029903990E991F9918991F7
:102DF0001895000F000F0093E8030091E80305B950
:102E0000409A05E00A95F1F70000409808950E9465
:102E10004F1B680159013A014B0129893A89830105
:102E200016D3D8014E840A2F0B2B09F471C0FD0173
:102E30008789908D860D971D01977A926A926D8988
:102E40007E89442D95018D016BD2A40196018C01E0
:102E50000E94F2130D931C931197EF85F8890E2FA2
:102E60000F2B11F0A083B1830E94941400913704BA
:102E70000395009337040091E9031091EA03012BB5
:102E800051F4A093E903B093EA03009137040130B1
:102E900089F474D20FC000913C04002359F4E091EE
:102EA000E903F091EA030689401620F0A093E903B4
:102EB000B093EA0300913A04FD011689011720F44A
:102EC000FD01068900933A040091410403950093A3
:102ED000410400913B04FD011689011720F4FD0116
:102EE000068900933B049D012E5F3F4FFD014689FB
:102EF00050E009E010E00E94C31AA8010BEE13E0B5
:102F0000040F151F0E94920A81E00E949B1401C0C9
:102F10008FEF813069F400913C04002349F0E09187
:102F2000E903F091EA030689041510F40E94E51400
:102F3000082FE5E10C945E1B0E94551BD801390156
:102F400044246AD08D919C911197860D971D009114
:102F50003804109139042D913C91119702171307F1
:102F600080F40D911C91119780179107C8F400917E
:102F70003804109139040817190790F44424439435
:102F80000FC00D911C9111978017910738F0009197
:102F90003804109139040817190710F44424439495
:102FA0008D939C93442051F00091E9031091EA0322
:102FB0000E5F1F4F0E94ED0A8C0112D233D0002306
:102FC00011F40E94E514E8E00C94641B00E010E0AA
:102FD0001A930A9300E010E01A930A9300E010E0BD
:102FE0001A930A9300E00A9360E070E045E550E030
:102FF00026EB31E00CE819E10ADF013061F4F894C6
:1030000001E000933C0400E010E0009338041093CA
:1030100039040E947114089500913D0403950093B2
:103020003D0408950E94591B90E00E949414009161
:103030003D040A9500933D0400913D04002309F0EE
:103040005CC000913704002309F457C080E035C00C
:10305000E0912A04F0912B04A681B7818D01045FD1
:103060001F4F0E94ED0A8D010E5F1F4F0E94ED0A57
:1030700000913B04FD011689011720F4FD0106892A
:1030800000933B049D012E5F3F4FFD01468950E0B8
:1030900009E010E00E94C31AA8010BEE13E0040F30
:1030A000151F0E94920AFD010689E091E903F09143
:1030B000EA031689011708F081E000912504002336
:1030C00039F600913E04002339F40BC02AD0009158
:1030D0003E040A9500933E0400913E040023B1F79C
:1030E00081E0813021F000913F04013031F491E022
:1030F00000E000933F040E94E5140E949B14092FF6
:10310000E4E00C94681B9A938A930E949414809133
:103110003804909139040E949B148C0189919991F3
:103120000895BA93AA9300913D04002309F09FC02B
:10313000E8E3F4E0008111810F5F1F4F00831183EA
:103140000091380410913904012B99F50091210464
:10315000109122042091230430912404209321040F
:10316000309322040093230410932404009140041C
:10317000039500934004E0912104F0912204008122
:10318000002339F40FEF1FEF0093BB011093BC0134
:1031900010C0A0912104B09122041596ED91FC91EC
:1031A000A681B781FD01028113810093BB011093B9
:1031B000BC0100913804109139042091BB01309179
:1031C000BC010217130708F457C02AC08D010E5F17
:1031D0001F4F0E94ED0AFD0104891589012B29F07A
:1031E0008D01045F1F4F0E94ED0A00913B04FD0119
:1031F0001689011720F4FD01068900933B049D0107
:103200002E5F3F4FFD01468950E009E010E00E942B
:10321000C31AA8010BEE13E0040F151F0E94920AB7
:10322000E0912104F09122040081002339F40FEF92
:103230001FEF0093BB011093BC011EC0A09121049D
:10324000B09122041596ED91FC91A681B781FD0104
:1032500002811381209138043091390420173107FD
:1032600008F0B4CF0093BB011093BC0105C00091DE
:103270003E04039500933E04A991B9910895BD01C0
:1032800000913D04002349F001E000933F0442C057
:1032900000913B040A9500933B0440913B0450E0AD
:1032A00009E010E00E94C31AF801E551FC4F0081CB
:1032B000002371F340913B0450E009E010E00E94CC
:1032C000C31AABEEB3E0A00FB11F1196ED91FC91C4
:1032D000129702811381FD0101831283FD01218177
:1032E00032818D010D5F1F4F2017310749F4119670
:1032F000ED91FC91129702811381FD0101831283EC
:10330000FD01A181B28116960D911C910093E903F4
:103310001093EA03DB01089562D00E94190BFCCFE1
:103320000E94591BD801842F48E050E08D01075EB0
:103330001F4F0E94A41B00E0FD0100A3843008F091
:1033400083E0FD01868B8D010E5F1F4F0E948C0A6A
:103350008D01045F1F4F0E948C0AFD01A087B18779
:1033600004E010E090E0081B190BFD0104871587AD
:10337000FD01A28BB38BE6E00C94681B8A9380E07E
:103380000EC0482F50E009E010E00E94C31A9801D7
:103390000BEE13E0020F131F0E94710A8395843015
:1033A00080F30FE014E00E94710A08E114E00E942B
:1033B000710A05E214E00E94710A0EE214E00E9414
:1033C000710A0FE014E0009321041093220408E135
:1033D00014E0009323041093240489910895089520
:1033E0009A938A93C801E091E903F091EA038283FA
:1033F000938300913804109139048017910768F481
:103400002091E9033091EA032E5F3F4F009123049E
:10341000109124040E94B70A17C02091E90330914B
:10342000EA032E5F3F4F00912104109122040E9475
:10343000B70A0091BB011091BC018017910720F4DD
:103440008093BB019093BC018991999108950E944A
:10345000571B2801C90101E210E00E940C08D801A5
:103460000A2F0B2BF1F0082F092B21F482010E9467
:103470000C0801C08C01FD01078B108FFD0107892D
:10348000108D012B31F48D010E944008A0E0B0E0C6
:1034900008C0A20125EA30E0FD010789108D0E94D5
:1034A000731B8D01E6E00C94661B0D01D80110E042
:1034B000240F351F203001E0300708F04BC04E5F6D
:1034C0005F4F662309F047C002E03DC0FD01608107
:1034D00070E0202F30E0220F331FE0917D03F09148
:1034E0007E03E20FF31F608371831196202F30E07B
:1034F000220F331FE0917D03F0917E03E20FF31F53
:103500006081762F60E0202F30E0220F331FE091A2
:103510007D03F0917E03E20FF31F608371836C9152
:1035200070E0202F30E0220F331FE0917D03F091F7
:103530007E03E20FF31F20813181262B372B20835E
:10354000318311960395202F30E02417350708F4B6
:10355000BDCF01C011E0012FD00108950000889572
:10356000FECF0FE80DBF01E00EBFC0E5D1E00E9425
:10357000711B002311F00E948A1B0E94F00B0E9415
:10358000AE1A0C94AE1A149F102D059F100D049FB7
:10359000002D110D0895169507954A95E2F70895A7
:1035A000000F111F221F331F4A95D2F70895369539
:1035B0002795179507954A95D2F708950024112469
:1035C0001001E0E2EA9592F0001F111F221F331F45
:1035D000001C111C221C331C041615062606370677
:1035E00088F3041A150A260A370AECCF001F111FA8
:1035F000221F331FA001B101009510952095309531
:1036000008957591659155914591159011FA259000
:1036100035900895F9DF041B10E003C0F4DF041BAC
:10362000150B20E030E005C0ECDF041B150B260B6A
:10363000370BB8F010FC17C045910590E00FF11F53
:103640000417100540E02407340758F436F40491B9
:103650000024F101E01BF0090994E00FF11F25900F
:103660003590F101099411F4D6F7F1CF31960EF0AF
:10367000319650E060E070E045914B3F48F089F3AF
:103680004F3F29F04E3F11F075916591559145914D
:10369000041B150B260B370B39F318F3E7CFDA921F
:1036A000CA92BA92AA929A928A927A926A925A92FA
:1036B0004A92BA93AA939A938A930895DD84CC840C
:1036C000BB84AA84998488847F806E805D804C80CE
:1036D000BB81AA8199818881F0E0EC0FFD1FEF0189
:1036E000089501E00895F80101C02193BA01415005
:1036F0005040672BD1F7089520E006D0E9F70895F0
:10370000259102D0E9F708952D9301501040202F04
:10371000212B089586E797E3FC0105911491FC01A4
:103720003296A591B491FC01349625913491422FA3
:10373000432B19F0F901E4DF01C0DEDF069617E341
:103740008238910748F30895BD01D801F901980125
:103750000DD049F001910D930023D1F707D019F056
:1037600000E00D93FBCF8901DB0108958A014150F0
:103770005040012B08958502BD0100002D009001ED
:103780008237436F6E74726F6C004D6F6462757335
:10379000000203CB0E104E0E0000000000000000DF
:0F37A000000000000000005049444C4500FFFFAE
:0400000300000000F9
:00000001FF
