:020000020000FC
:100000000C94690D189518951895189518951895CC
:100010001895189518951895189518951895189578
:100020001895189518951895189518951895189568
:100030000C942208189518951895189518951895E8
:10004000189518950C94FF091895189518951895FA
:10005000189518950C948D090C94B009189518955D
:100060001895189518951895189518951895189528
:100070001895189518951895189518951895189518
:1000800000C1814001C0804101C0804100C1814068
:1000900001C0804100C1814000C1814001C0804158
:1000A00001C0804100C1814000C1814001C0804148
:1000B00000C1814001C0804101C0804100C1814038
:1000C00001C0804100C1814000C1814001C0804128
:1000D00000C1814001C0804101C0804100C1814018
:1000E00000C1814001C0804101C0804100C1814008
:1000F00001C0804100C1814000C1814001C08041F8
:1001000001C0804100C1814000C1814001C08041E7
:1001100000C1814001C0804101C0804100C18140D7
:1001200000C1814001C0804101C0804100C18140C7
:1001300001C0804100C1814000C1814001C08041B7
:1001400000C1814001C0804101C0804100C18140A7
:1001500001C0804100C1814000C1814001C0804197
:1001600001C0804100C1814000C1814001C0804187
:1001700000C1814001C0804101C0804100C1814077
:1001800000C0C101C30302C2C60607C705C5C40437
:10019000CC0C0DCD0FCFCE0E0ACACB0BC90908C8A7
:1001A000D81819D91BDBDA1A1EDEDF1FDD1D1CDC97
:1001B00014D4D515D71716D6D21213D311D1D01007
:1001C000F03031F133F3F23236F6F737F53534F4F7
:1001D0003CFCFD3DFF3F3EFEFA3A3BFB39F9F83867
:1001E00028E8E929EB2B2AEAEE2E2FEF2DEDEC2C57
:1001F000E42425E527E7E62622E2E323E12120E0C7
:10020000A06061A163A3A26266A6A767A56564A4B6
:100210006CACAD6DAF6F6EAEAA6A6BAB69A9A86826
:1002200078B8B979BB7B7ABABE7E7FBF7DBDBC7C16
:10023000B47475B577B7B67672B2B373B17170B086
:100240005090915193535292965657975595945476
:100250009C5C5D9D5F9F9E5E5A9A9B5B99595898E6
:10026000884849894B8B8A4A4E8E8F4F8D4D4C8CD6
:100270004484854587474686824243834181804046
:100280000E94990DD80180E090E00E94FA0A009146
:100290001B0310911C030A0F1B1F003921E01207DA
:1002A000E8F400911B0310911C0320911B03309173
:1002B0001C032A0F3B1F0217130780F400911B0336
:1002C00010911C038BE891E0800F911FEBE1F3E0AC
:1002D000008111810A0F1B1F008311830E94000BF4
:1002E0008C01E4E00C94A80D08950FEF05B90FEF11
:1002F00004B9509A5898519A529A399A389A409813
:100300005598569857983C983D983E983F98539AE0
:10031000549808955A98599A000000000000419A94
:1003200000E004B900000000000000E01F99039500
:1003300041981FEF14B908958A93802FEBDF0023B3
:1003400049F000EE00C00A95E9F7E4DF002311F060
:1003500003E00FC05A98599841980000000085B9F1
:1003600000000000419A05E00A95F1F7000041986D
:1003700000E0899108958A9301E00E94260A00EC2A
:10038000DBDF0FE3D9DF802F00E00E94260A00ECBC
:10039000D3DF802F0FE3D0DF802F082F89910895BE
:1003A00098012D5F3F4FF801218332832FEF3FEFFC
:1003B000F8012383348398012D5F3F4FF801258393
:1003C000368398012D5F3F4FF8012783308720E067
:1003D000F8012083089520E030E0F801208731877C
:1003E0000895BD01F801A181B281FD0142815381CF
:1003F000F90142835383F80141815281F901448319
:1004000055831296ED91FC91139724833583FD015A
:1004100022833383F80121833283F9010087118716
:10042000F801008103950083DB010895AD01F80117
:1004300024813581F801A281B38114962D933C93D8
:10044000F80122813381F801A481B58112962D93A0
:100450003C93F801A085B185FD01218132812017EF
:10046000310731F4F80124813581FD012183328384
:1004700020E030E0F801208731870C910A950C9339
:10048000DA0108950E94FF0208950E94710BFFCFC8
:100490000E94710BFFCF0E9475010E94BB010E9458
:1004A000230A05B930E040E052EC61E070E020E062
:1004B00011E000E00E9491020E94EC0200E010E0D6
:1004C0001A930A9300E010E01A930A9300E010E0F8
:1004D0001A930A9302E00A9360E070E045E550E069
:1004E00020E631E008E412E00E943F0A00E010E05C
:1004F0001A930A9300E010E01A930A9300E010E0C8
:100500001A930A9301E00A9360E070E045E550E039
:1005100028E631E005E412E00E943F0A0E94D40A76
:10052000FFCF9A938A93902F022E232F80E01123DE
:1005300021F0112311F0183F10F082E049C0109310
:100540001D039923B9F505E216E0009321031093EA
:10055000220303E316E0009323031093240300E730
:1005600016E000931F03109320030EE316E00093A0
:1005700025031093260300E010E000932703109357
:1005800028030CEC16E00093290310932A030FE1D3
:1005900017E000932B0310932C0309E517E0009359
:1005A0002D0310932E03102D00911D030E94F805BA
:1005B000802F01C082E0882359F40E94380800236C
:1005C00011F483E005C090931E0301E000936D01D8
:1005D000082F8991999108958A9380E000916D0187
:1005E000013049F4E0912103F0912203099500E0E4
:1005F00000936D0101C086E0082F899108959A93B8
:100600008A93219700E010916D01112311F006E00B
:10061000B7C08E010E944408013009F0B0C00881C3
:10062000015041F00A9539F0025001F1045009F4EB
:10063000A6C0A5C0A4C043E353E02FE233E001E32A
:1006400013E0E0912503F09126030995002369F456
:100650000091310310911D03011721F00091310326
:10066000002319F404E00E943D0889C0E0912F03A3
:10067000F091300300810093320301E000933503D1
:1006800080E090E001C00196873000E0900774F5AB
:1006900003E010E0AC010E947B0DF801E259FE4F2F
:1006A0000081002319F103E010E0AC010E947B0DF2
:1006B000F801E259FE4F008110913203011719F73A
:1006C00023E333E000912F0310913003B80143E09E
:1006D00050E08C010E947B0DF801E259FE4F018130
:1006E0001281F8018B0109950093350300913103C4
:1006F000002309F444C000913503002389F100E090
:1007000010E0009333031093340300913203006828
:100710002091330330913403E0912F03F0913003A3
:10072000E20FF31F0083E3E3F3E0008111810F5F29
:100730001F4F0083118300913503209133033091C3
:100740003403E0912F03F0913003E20FF31F008395
:10075000E3E3F3E0008111810F5F1F4F00831183FA
:10076000409133035091340320912F033091300393
:1007700000911D03E0911F03F0912003099500E013
:100780002196899199910895592F282EC8014FEFEC
:100790006FEF12C0062E1124FC01008110E000262C
:1007A00011260196F001E058FF4F04914027642F75
:1007B000F001E058FE4F44918901980121503040EA
:1007C000012B41F7142F00E070E0062B172B822D30
:1007D000952F08950E94990DD90190E02D913C919B
:1007E0001197253040E0340709F058C0F8013181F5
:1007F00020E0F801428150E0242B352B2F5F3F4F42
:10080000F80113800024F801448150E0042A152ADD
:10081000402D412909F440C040ED041647E014067C
:10082000D8F5F80100E010E00D931C93119701E05A
:10083000008331960D911C910F5F1F4F1C930E93F7
:10084000002D0770002339F043E080010E94850DE0
:10085000802F839505C043E080010E94850D802F85
:10086000808331960D911C910F5F1F4F1C930E9347
:1008700060E0A0018F010E940C0D002321F00E9476
:100880007507902F0CC0082F10E02D913C91200F80
:10089000311F3C932E9303C093E001C093E0092FD6
:1008A000E4E00C94A80D0E94990D2297F80180E0D5
:1008B000D9010D911C91053020E0120749F53181D5
:1008C00020E0028110E0202B312B2F5F3F4F04816D
:1008D0000023E1F403810F3F19F003810023B1F4F9
:1008E00000E0098303810F3F19F401E0088302C08F
:1008F00000E0088361E041E050E08E010E940C0DB1
:10090000002339F00E947507802F03C083E001C0E7
:1009100083E0082F2296E4E00C94A80D0E94990D24
:100920000801D90180E0ED91FC911197369708F408
:1009300042C0F001318120E0F001028110E0202B63
:10094000312B2F5F3F4FF00133802224F0010481CF
:1009500010E0202A312AF0015581022D0770002372
:1009600031F043E081010E94850D039504C043E00E
:1009700081010E94850D122D1329D9F011EB21164A
:1009800017E03106B0F40517A1F461E0A10106E01B
:10099000000E00E0101E80010E940C0D002321F0CB
:1009A0000E947507802F08C005E010E00D931C938E
:1009B00003C083E001C083E0082FE4E00C94A80D9D
:1009C0008A9380E0F90120813181253040E03407AD
:1009D000B9F4F801318120E0F801428150E0242B84
:1009E000352B2F5F3F4F61E041E050E00D5F1F4F1F
:1009F0000E943D0D002329F00E947507802F01C041
:100A000083E0082F899108950E94990DD90180E013
:100A1000ED91FC911197369790F1F801318120E02A
:100A2000F801428150E0242B352B2F5F3F4FF80116
:100A3000538140E0F801648170E0462B572BF801A8
:100A40007581642F652BC9F0493760E05607A8F41B
:100A5000042E62E0069E701581F461E00A5F1F4F6C
:100A60000E943D0D002321F00E947507802F08C0D1
:100A700005E010E00D931C9303C083E001C083E008
:100A8000082FE4E00C94A80D0E94980DF801D901FC
:100A900044240D911C911197053020E0120709F0B4
:100AA00046C0318120E0028110E0202B312B2F5FE6
:100AB0003F4F048110E0C801082F092BA9F18E37A0
:100AC00000E0900788F58F0140E050E04D935C9383
:100AD000119743E0F80140830F5F1F4F4D915C91E8
:100AE0004F5F5F4F5C934E93582F42E0549FF80145
:100AF00000820F5F1F4F4D915C914F5F5F4F5C9382
:100B00004E9360E0AC010E943D0D002321F00E9455
:100B10007507402E0EC0880F991F0D911C91080F6C
:100B2000191F1C930E9305C003E0402E02C003E082
:100B3000402E042DE5E00C94A70D0E94980DF801BD
:100B4000D90144240D911C911197053020E0120722
:100B500009F048C0318120E0028110E0202B312BC8
:100B60002F5F3F4F938180E0048110E0802B912B19
:100B7000082F092BA1F18D3700E0900780F58F0138
:100B800040E050E04D935C93119744E0F8014083BE
:100B90000F5F1F4F4D915C914F5F5F4F5C934E9382
:100BA000582F42E0549FF80100820F5F1F4F4D9174
:100BB0005C914F5F5F4F5C934E93AC010E94270D99
:100BC000002321F00E947507402E0EC0880F991F48
:100BD0000D911C91080F191F1C930E9305C003E083
:100BE000402E02C003E0402E042DE5E00C94A70D3A
:100BF0000E94960D612ECA01DB01522E44240E94F0
:100C0000D309252D18E0AC01BD01062D0E94630912
:100C1000013019F003E0402E12C081300BE4900740
:100C200000E0A00700E0B00720F003E210E020E0C1
:100C300030E00E94DA09013011F003E0402E0E94FA
:100C4000D509042DE7E00C94A50D0E94D30900E01E
:100C50000093370310E001E00E9440090E94E2097E
:100C60000E94D50908950E94D30910E000E00E9477
:100C700040090E94F0090E94D50908950E94950D2F
:100C80003801D901CA0144240E94D309E0916003CC
:100C9000F09161033497E0F020916003309161039B
:100CA00008E313E00E94C403012B91F40091380380
:100CB000F301008300916003109161030350104021
:100CC000FC010083118309E313E00D931C9302C020
:100CD00005E0402E0E94D509042DE8E00C94A40DF7
:100CE0000E94970DB02FC9012A01A0E00E94D309EC
:100CF00000913703013009F048C0019780935C03ED
:100D000090935D0301E010E000935E0310935F0396
:100D1000E0915C03F0915D03B083EEE5F3E00081C8
:100D20001181040D151D0083118320915E03309104
:100D30005F0300915C0310915D030E94C403209146
:100D40005E0330915F03C901019680935E03909327
:100D50005F03402FF901E85CFC4F408320915E0364
:100D600030915F03C901019680935E0390935F0306
:100D7000012FF901E85CFC4F008301E0009336038A
:100D800011E000E00E94400901C0A5E00E94D509E1
:100D90000A2FE6E00C94A60D0E949A0D2197A0E080
:100DA0008E010E94870910913703105039F01A956F
:100DB00059F01A9521F11A9521F03CC00E94E209E0
:100DC00039C00E94E20936C000E010E000936003E1
:100DD000109361030091600310916103C8010196B3
:100DE00080936003909361032881F801E85CFC4FD5
:100DF000208302E0009337030E94E2091BC0E091C8
:100E00006003F0916103B49780F400916003109146
:100E10006103C80101968093600390936103288168
:100E2000F801E85CFC4F208303C003E00093370324
:100E30000E94E2090A2F2196E3E00C94A90D8A93FF
:100E400080E000913603005019F00A9531F02EC071
:100E500010E001E00E94400929C000915E0310915A
:100E60005F03012BC1F0E0915C03F0915D03008111
:100E70000E947D09ECE5F3E0008111810F5F1F4FB7
:100E800000831183EEE5F3E00081118101501040F1
:100E9000008311830BC008E00E943D08802F10E002
:100EA00001E00E94400900E000933603082F899179
:100EB00008958A9380E000913703005029F0025092
:100EC00041F00A9551F009C001E00E943D08802FD1
:100ED00004C002E00E943D08802F0E94F00901E05A
:100EE00000933703082F89910895005029F00A953F
:100EF00029F0065029F006C000E0089502E00895A8
:100F000006E0089504E00895BC01F80101E10083C2
:100F1000319702E20083319703E300833197CF01D9
:100F20008901202F20833197012F008331977297F9
:100F300000E00083319700E80083319702978C012D
:100F4000202F20833197012F0083319701E0008308
:100F5000319702E00083319703E00083319704E08A
:100F60000083319705E00083319706E000833197D5
:100F700007E00083319708E00083319709E00083A0
:100F8000319700E10083319701E10083319702E15D
:100F90000083319703E10083319704E100833197A7
:100FA00005E1008331978A01202F20833197012F9B
:100FB0000083319708E10083319709E1008331977D
:100FC00000E20083319701E20083319702E200835F
:100FD000319703E20083319704E20083319705E201
:100FE0000083319706E20083319707E2008331974F
:100FF00000E30083319701E30083319700E0008331
:101000008F01CB01089504D00E94110901E00895D9
:1010100000E81EE320E030E046E00E948C0D015025
:10102000104020403040A801012F009389004093D8
:1010300088004BE04093810000916F0002600093B4
:101040006F0008950E94B10818950895F8940091D2
:1010500083010395009383010895009183010A950C
:101060000093830100918301002309F4789408958B
:1010700000E00093630301E0089511E0109363031F
:101080000093620301E0089520E03091630333236D
:1010900041F020916203F801208300E00093630394
:1010A00021E0022F08950A920FB6F8940A920DB625
:1010B0000A920EB60A921A922A923A924A925A9238
:1010C0006A927A928A929A92AA92BA92CA92DA9280
:1010D000EA92FA920A931A932A933A934A935A936A
:1010E0006A937A938A939A93AA93BA93EA93FA9318
:1010F000009083010A92A0916503B0916603CD939D
:10110000DD930E942D0CA0916503B0916603CD91F3
:10111000DD91099000928301F991E991B991A9912A
:10112000999189917991699159914991399129912F
:1011300019910991F990E990D990C990B990A99025
:101140009990899079906990599049903990299017
:10115000199009900EBE09900DBE09900FBE09901E
:1011600008950A920FB6F8940A920DB60A920EB636
:101170000A921A922A923A924A925A926A927A92CF
:101180008A929A92AA92BA92CA92DA92EA92FA92BF
:101190000A931A932A933A934A935A936A937A93A7
:1011A0008A939A93AA93BA93EA93FA93009083014D
:1011B0000A92A0916503B0916603CD93DD930E94DE
:1011C0007F0B0E942D0CA0916503B0916603CD9119
:1011D000DD91099000928301F991E991B991A9916A
:1011E000999189917991699159914991399129916F
:1011F00019910991F990E990D990C990B990A99065
:101200009990899079906990599049903990299056
:10121000199009900EBE09900DBE09900FBE09905D
:101220000895A0916503B0916603CD91DD91099079
:1012300000928301F991E991B991A99199918991CC
:10124000799169915991499139912991199109910E
:10125000F990E990D990C990B990A9909990899006
:1012600079906990599049903990299019900990F6
:101270000EBE09900DBE09900FBE099008951895F5
:101280009A938A93902F812F8ED0992331F00091D9
:10129000C10000680093C10005C00091C1000F7734
:1012A0000093C100882331F00091C10000620093D7
:1012B000C10005C00091C1000F7D0093C10075D031
:1012C00089919991089501E01091C00012601093E6
:1012D000C00010E01093C1001091C200166010937E
:1012E000C20020E130E03093C5002093C40010918B
:1012F000C10018611093C100089502C00093C60098
:101300001091C000212F25FFF9CF01E00895209111
:10131000C600F801208301E008958A93FA93EA93C6
:101320003A922A921A920A927A936A935A934A9319
:101330003A932A931A930A938FB70E94CC068FBFD1
:10134000099119912991399149915991699179910D
:101350000990199029903990E991F99189911895FE
:101360008A93FA93EA933A922A921A920A927A9379
:101370006A935A934A933A932A931A930A938FB78C
:101380000E941F078FBF09911991299139914991A5
:101390005991699179910990199029903990E99121
:1013A000F99189911895F8940895789408950E9478
:1013B0005907089500E004BD00E005BD789410D001
:1013C00001E0089500916E00016000936E0004EE4C
:1013D00006BD05B5046005BD05B5016005BD0895F0
:1013E00005B50B7F05BD05B50D7F05BD05B50E7FA8
:1013F00005BD00916E000E7F00936E0008958A93E4
:10140000FA93EA933A922A921A920A927A936A93F8
:101410005A934A933A932A931A930A938FB704EEF6
:1014200006BDC5DF8FBF0991199129913991499165
:101430005991699179910990199029903990E99180
:10144000F9918991189500916403089515B10023CD
:1014500031F000916403026F0093640305C00091B2
:101460006403016F009364030091640305B9409A1B
:1014700005E00A95F1F70000409815B908950E941B
:101480008F0D680159013A014B0129893A8983017D
:1014900095D2D8014E840A2F0B2B09F471C0FD019F
:1014A0008789908D860D971D01977A926A926D8932
:1014B0007E89442D95018D0121D2A40196018C01D4
:1014C0000E9484070D931C931197EF85F8890E2FC6
:1014D0000F2B11F0A083B1830E9426080091B30363
:1014E00003950093B3030091650310916603012BEC
:1014F00051F4A0936503B09366030091B3030130E8
:1015000089F42AD20FC00091B803002359F4E09166
:101510006503F09166030689401620F0A0936503E9
:10152000B09366030091B603FD011689011720F4FC
:10153000FD0106890093B6030091BD030395009356
:10154000BD030091B703FD011689011720F4FD01C9
:1015500006890093B7039D012E5F3F4FFD01468929
:1015600050E009E010E00E947B0DA80107E613E0BF
:10157000040F151F0E94F10181E00E942D0801C097
:101580008FEF813069F40091B803002349F0E091B6
:101590006503F09166030689041510F40E94530850
:1015A000082FE5E10C949E0D00E010E01A930A93D9
:1015B00000E010E01A930A9300E010E01A930A93F7
:1015C00000E00A9360E070E045E550E024E831E097
:1015D0000AE71CE054DF013061F4F89401E0009365
:1015E000B80300E010E00093B4031093B5030E9429
:1015F000030808950091B90303950093B903089572
:101600000E94990D90E00E9426080091B9030A9566
:101610000093B9030091B903002309F05CC0009165
:10162000B303002309F457C080E035C0E091A6035E
:10163000F091A703A681B7818D01045F1F4F0E941F
:1016400016028D010E5F1F4F0E9416020091B70314
:10165000FD011689011720F4FD0106890093B703E7
:101660009D012E5F3F4FFD01468950E009E010E0EB
:101670000E947B0DA80107E613E0040F151F0E94CE
:10168000F101FD010689E0916503F0916603168979
:10169000011708F081E00091A103002339F60091C1
:1016A000BA03002339F40BC02AD00091BA030A957B
:1016B0000093BA030091BA030023B1F781E08130AF
:1016C00021F00091BB03013031F491E000E0009380
:1016D000BB030E9453080E942D08092FE4E00C94DC
:1016E000A80D9A938A930E9426088091B403909142
:1016F000B5030E942D088C01899199910895BA93A0
:10170000AA930091B903002309F09FC0E4EBF3E032
:10171000008111810F5F1F4F008311830091B4037B
:101720001091B503012B99F500919D0310919E0333
:1017300020919F033091A00320939D0330939E033B
:1017400000939F031093A0030091BC0303950093A3
:10175000BC03E0919D03F0919E030081002339F4C6
:101760000FEF1FEF0093890110938A0110C0A09121
:101770009D03B0919E031596ED91FC91A681B781D2
:10178000FD01028113810093890110938A01009168
:10179000B4031091B5032091890130918A01021799
:1017A000130708F457C02AC08D010E5F1F4F0E9417
:1017B0001602FD0104891589012B29F08D01045FB2
:1017C0001F4F0E9416020091B703FD0116890117F1
:1017D00020F4FD0106890093B7039D012E5F3F4F62
:1017E000FD01468950E009E010E00E947B0DA80150
:1017F00007E613E0040F151F0E94F101E0919D031D
:10180000F0919E030081002339F40FEF1FEF009346
:10181000890110938A011EC0A0919D03B0919E037F
:101820001596ED91FC91A681B781FD01028113818E
:101830002091B4033091B5032017310708F0B4CFDD
:101840000093890110938A0105C00091BA030395A2
:101850000093BA03A991B9910895BD010091B9030C
:10186000002349F001E00093BB0342C00091B7039D
:101870000A950093B7034091B70350E009E010E0E8
:101880000E947B0DF801E959FC4F0081002371F3A0
:101890004091B70350E009E010E00E947B0DA7E6FD
:1018A000B3E0A00FB11F1196ED91FC911297028148
:1018B0001381FD0101831283FD01218132818D019C
:1018C0000D5F1F4F2017310749F41196ED91FC91E0
:1018D000129702811381FD0101831283FD01A18111
:1018E000B28116960D911C910093650310936603C7
:1018F000DB01089562D00E944202FCCF0E94990D44
:10190000D801842F48E050E08D01075E1F4F0E94F0
:10191000E40D00E0FD0100A3843008F083E0FD0148
:10192000868B8D010E5F1F4F0E94EB018D01045FBE
:101930001F4F0E94EB01FD01A087B18704E010E07A
:1019400090E0081B190BFD0104871587FD01A28B90
:10195000B38BE6E00C94A80D8A9380E00EC0482F6C
:1019600050E009E010E00E947B0D980107E613E0CB
:10197000020F131F0E94D0018395843080F30BE87F
:1019800013E00E94D00104E913E00E94D00101EAB3
:1019900013E00E94D0010AEA13E00E94D0010BE894
:1019A00013E000939D0310939E0304E913E000935A
:1019B0009F031093A0038991089508950E94970DA5
:1019C0002801C90101E210E00E944001D8010A2F5C
:1019D0000B2BF1F0082F092B21F482010E9440010A
:1019E00001C08C01FD01078B108FFD010789108D4F
:1019F000012B31F48D010E947401A0E0B0E008C019
:101A0000A20125EA30E0FD010789108D0E94B30D87
:101A10008D01E6E00C94A60D00E00A01F901E40F47
:101A2000F51F719790F4A901605019F06A9539F08B
:101A3000089511E0011610E01106DCF7089511E099
:101A4000011610E01106DCF7089501E0089500E0AA
:101A5000F901E40FF51F719770F421503040420FE7
:101A6000531F440F551F12E0219F11240416150621
:101A700018F40394FACF01E00895792F282EC901B4
:101A800000E0FC01E40FF51F7197E0F40197480FA7
:101A9000591F440F551F605019F06A9551F013C03B
:101AA00012E0819F01C00394112404161506D8F397
:101AB0000AC012E0819F01C0039411240416150688
:101AC000D8F301C001E0822D972F0895000088957A
:101AD000FECF0FE50DBF01E00EBFC0E4D1E00E94D4
:101AE000B10D002311F00E94CA0D0E944B020E940A
:101AF000660D0C94660D149F102D059F100D049F0C
:101B0000002D110D0895169507954A95E2F7089551
:101B100036952795179507954A95D2F70895DA9245
:101B2000CA92BA92AA929A928A927A926A925A9295
:101B30004A92BA93AA939A938A930895DD84CC84A7
:101B4000BB84AA84998488847F806E805D804C8069
:101B5000BB81AA8199818881F0E0EC0FFD1FEF0124
:101B6000089501E00895F80101C02193BA014150A0
:101B70005040672BD1F7089520E006D0E9F708958B
:101B8000259102D0E9F708952D9301501040202FA0
:101B9000212B089586EF9BE1FC0105911491FC0136
:101BA0003296A591B491FC01349625913491422F3F
:101BB000432B19F0F901E4DF01C0DEDF06961CE1DA
:101BC0008230910748F30895BD01D801F9019801C9
:101BD0000DD049F001910D930023D1F707D019F0F2
:101BE00000E00D93FBCF8901DB0108958A0141508C
:101BF0005040012B089533028B0100002B0060013F
:101C0000021C436F6E74726F6C0055415254000297
:101C1000049D0503440510040506E00401EA0305DC
:0D1C200053040F8E045049444C4500FFFF53
:0400000300000000F9
:00000001FF
