:020000020000FC
:100000000C94FF0C18951895189518951895189537
:100010001895189518951895189518951895189578
:100020001895189518951895189518951895189568
:100030000C94D40718951895189518951895189537
:10004000189518950C94B109189518951895189548
:10005000189518950C943F090C94620918951895F9
:100060001895189518951895189518951895189528
:100070001895189518951895189518951895189518
:1000800000C1814001C0804101C0804100C1814068
:1000900001C0804100C1814000C1814001C0804158
:1000A00001C0804100C1814000C1814001C0804148
:1000B00000C1814001C0804101C0804100C1814038
:1000C00001C0804100C1814000C1814001C0804128
:1000D00000C1814001C0804101C0804100C1814018
:1000E00000C1814001C0804101C0804100C1814008
:1000F00001C0804100C1814000C1814001C08041F8
:1001000001C0804100C1814000C1814001C08041E7
:1001100000C1814001C0804101C0804100C18140D7
:1001200000C1814001C0804101C0804100C18140C7
:1001300001C0804100C1814000C1814001C08041B7
:1001400000C1814001C0804101C0804100C18140A7
:1001500001C0804100C1814000C1814001C0804197
:1001600001C0804100C1814000C1814001C0804187
:1001700000C1814001C0804101C0804100C1814077
:1001800000C0C101C30302C2C60607C705C5C40437
:10019000CC0C0DCD0FCFCE0E0ACACB0BC90908C8A7
:1001A000D81819D91BDBDA1A1EDEDF1FDD1D1CDC97
:1001B00014D4D515D71716D6D21213D311D1D01007
:1001C000F03031F133F3F23236F6F737F53534F4F7
:1001D0003CFCFD3DFF3F3EFEFA3A3BFB39F9F83867
:1001E00028E8E929EB2B2AEAEE2E2FEF2DEDEC2C57
:1001F000E42425E527E7E62622E2E323E12120E0C7
:10020000A06061A163A3A26266A6A767A56564A4B6
:100210006CACAD6DAF6F6EAEAA6A6BAB69A9A86826
:1002200078B8B979BB7B7ABABE7E7FBF7DBDBC7C16
:10023000B47475B577B7B67672B2B373B17170B086
:100240005090915193535292965657975595945476
:100250009C5C5D9D5F9F9E5E5A9A9B5B99595898E6
:10026000884849894B8B8A4A4E8E8F4F8D4D4C8CD6
:100270004484854587474686824243834181804046
:100280000E942F0DD80180E090E00E94900A00911A
:100290001B0310911C030A0F1B1F003921E01207DA
:1002A000E8F400911B0310911C0320911B03309173
:1002B0001C032A0F3B1F0217130780F400911B0336
:1002C00010911C038BE891E0800F911FEBE1F3E0AC
:1002D000008111810A0F1B1F008311830E94960A5F
:1002E0008C01E4E00C943E0D08950FEF05B9509A8F
:1002F000519A529A399A389A409A559856985798DE
:100300003C983D983E983F98539A54980895980188
:100310002D5F3F4FF801218332832FEF3FEFF8012C
:100320002383348398012D5F3F4FF8012583368363
:1003300098012D5F3F4FF8012783308720E0F801B7
:100340002083089520E030E0F80120873187089568
:10035000BD01F801A181B281FD0142815381F90102
:1003600042835383F80141815281F90144835583CB
:100370001296ED91FC91139724833583FD0122831E
:100380003383F80121833283F90100871187F80153
:10039000008103950083DB010895AD01F8012481FC
:1003A0003581F801A281B38114962D933C93F80115
:1003B00022813381F801A481B58112962D933C935B
:1003C000F801A085B185FD01218132812017310717
:1003D00031F4F80124813581FD012183328320E04D
:1003E00030E0F801208731870C910A950C93DA01EF
:1003F00008950E94B10208950E94070BFFCF0E944A
:10040000070BFFCF0E94750130E040E052EC61E045
:1004100070E020E011E000E00E9443020E949E0292
:1004200000E010E01A930A9300E010E01A930A9398
:1004300000E010E01A930A9302E00A9360E070E093
:1004400045E550E020E631E00FEF11E00E94D509CC
:1004500000E010E01A930A9300E010E01A930A9368
:1004600000E010E01A930A9301E00A9360E070E064
:1004700045E550E028E631E00CEF11E00E94D50997
:100480000E946A0AFFCF9A938A93902F022E232FFD
:1004900080E0112321F0112311F0183F10F082E0C9
:1004A00049C010931D039923B9F507ED15E000939A
:1004B00021031093220305EE15E00093230310930C
:1004C000240302E216E000931F031093200300EFC1
:1004D00015E0009325031093260300E010E000933D
:1004E0002703109328030EE716E0009329031093C7
:1004F0002A0301ED16E000932B0310932C030BE06D
:1005000017E000932D0310932E03102D00911D036F
:100510000E94AA05802F01C082E0882359F40E941E
:10052000EA07002311F483E005C090931E0301E065
:1005300000936D01082F8991999108958A9380E025
:1005400000916D01013049F4E0912103F091220303
:10055000099500E000936D0101C086E0082F8991A4
:1005600008959A938A93219700E010916D011123C9
:1005700011F006E0B7C08E010E94F607013009F0C5
:10058000B0C00881015041F00A9539F0025001F1E4
:10059000045009F4A6C0A5C0A4C043E353E02FE271
:1005A00033E001E313E0E0912503F0912603099580
:1005B000002369F40091310310911D03011721F00C
:1005C00000913103002319F404E00E94EF0789C071
:1005D000E0912F03F091300300810093320301E09A
:1005E0000093350380E090E001C00196873000E081
:1005F000900774F503E010E0AC010E94110DF801C2
:10060000E259FE4F0081002319F103E010E0AC0134
:100610000E94110DF801E259FE4F00811091320342
:10062000011719F723E333E000912F0310913003F2
:10063000B80143E050E08C010E94110DF801E2592D
:10064000FE4F01811281F8018B010995009335035A
:1006500000913103002309F444C0009135030023C5
:1006600089F100E010E0009333031093340300910C
:10067000320300682091330330913403E0912F035B
:10068000F0913003E20FF31F0083E3E3F3E0008116
:1006900011810F5F1F4F008311830091350320915B
:1006A000330330913403E0912F03F0913003E20FD4
:1006B000F31F0083E3E3F3E0008111810F5F1F4F1D
:1006C00000831183409133035091340320912F0311
:1006D0003091300300911D03E0911F03F09120033E
:1006E000099500E02196899199910895592F282E16
:1006F000C8014FEF6FEF12C0062E1124FC010081DC
:1007000010E0002611260196F001E058FF4F0491F9
:100710004027642FF001E058FE4F44918901980171
:1007200021503040012B41F7142F00E070E0062BE0
:10073000172B822D952F08950E942F0DD90190E03F
:100740002D913C911197253040E0340709F058C0B5
:10075000F801318120E0F801428150E0242B352B53
:100760002F5F3F4FF80113800024F801448150E0CF
:10077000042A152A402D412909F440C040ED0416F1
:1007800047E01406D8F5F80100E010E00D931C9343
:10079000119701E0008331960D911C910F5F1F4F5F
:1007A0001C930E93002D0770002339F043E0800165
:1007B0000E941B0D802F839505C043E080010E949D
:1007C0001B0D802F808331960D911C910F5F1F4F61
:1007D0001C930E9360E0A0018F010E94A20C0023E5
:1007E00021F00E942707902F0CC0082F10E02D91B8
:1007F0003C91200F311F3C932E9303C093E001C026
:1008000093E0092FE4E00C943E0D0E942F0D2297F7
:10081000F80180E0D9010D911C91053020E012070C
:1008200049F5318120E0028110E0202B312B2F5F30
:100830003F4F04810023E1F403810F3F19F003814E
:100840000023B1F400E0098303810F3F19F401E0B4
:10085000088302C000E0088361E041E050E08E01BF
:100860000E94A20C002339F00E942707802F03C0AA
:1008700083E001C083E0082F2296E4E00C943E0D53
:100880000E942F0D0801D90180E0ED91FC91119794
:10089000369708F442C0F001318120E0F001028176
:1008A00010E0202B312B2F5F3F4FF00133802224AB
:1008B000F001048110E0202A312AF0015581022D37
:1008C0000770002331F043E081010E941B0D039566
:1008D00004C043E081010E941B0D122D1329D9F0A1
:1008E00011EB211617E03106B0F40517A1F461E011
:1008F000A10106E0000E00E0101E80010E94A20C83
:10090000002321F00E942707802F08C005E010E097
:100910000D931C9303C083E001C083E0082FE4E043
:100920000C943E0D8A9380E0F901208131812530BD
:1009300040E03407B9F4F801318120E0F801428148
:1009400050E0242B352B2F5F3F4F61E041E050E01A
:100950000D5F1F4F0E94D30C002329F00E94270730
:10096000802F01C083E0082F899108950E942F0DE8
:10097000D90180E0ED91FC911197369790F1F80143
:10098000318120E0F801428150E0242B352B2F5F8C
:100990003F4FF801538140E0F801648170E0462B3D
:1009A000572BF8017581642F652BC9F0493760E03A
:1009B0005607A8F4042E62E0069E701581F461E0EB
:1009C0000A5F1F4F0E94D30C002321F00E942707CB
:1009D000802F08C005E010E00D931C9303C083E056
:1009E00001C083E0082FE4E00C943E0D0E942E0D20
:1009F000F801D90144240D911C911197053020E094
:100A0000120709F046C0318120E0028110E0202B5E
:100A1000312B2F5F3F4F048110E0C801082F092BB5
:100A2000A9F18E3700E0900788F58F0140E050E093
:100A30004D935C93119743E0F80140830F5F1F4F84
:100A40004D915C914F5F5F4F5C934E93582F42E006
:100A5000549FF80100820F5F1F4F4D915C914F5FD3
:100A60005F4F5C934E9360E0AC010E94D30C002377
:100A700021F00E942707402E0EC0880F991F0D916C
:100A80001C91080F191F1C930E9305C003E0402E04
:100A900002C003E0402E042DE5E00C943D0D0E94C1
:100AA0002E0DF801D90144240D911C9111970530A8
:100AB00020E0120709F048C0318120E0028110E0F7
:100AC000202B312B2F5F3F4F938180E0048110E07A
:100AD000802B912B082F092BA1F18D3700E0900777
:100AE00080F58F0140E050E04D935C93119744E016
:100AF000F80140830F5F1F4F4D915C914F5F5F4F37
:100B00005C934E93582F42E0549FF80100820F5F90
:100B10001F4F4D915C914F5F5F4F5C934E93AC01C3
:100B20000E94BD0C002321F00E942707402E0EC01A
:100B3000880F991F0D911C91080F191F1C930E937C
:100B400005C003E0402E02C003E0402E042DE5E086
:100B50000C943D0D0E942C0D612ECA01DB01522E1A
:100B600044240E948509252D18E0AC01BD01062D05
:100B70000E941509013019F003E0402E12C08130A7
:100B80000BE4900700E0A00700E0B00720F003E2CC
:100B900010E020E030E00E948C09013011F003E009
:100BA000402E0E948709042DE7E00C943B0D0E9423
:100BB000850900E00093370310E001E00E94F2088D
:100BC0000E9494090E94870908950E94850910E0F7
:100BD00000E00E94F2080E94A2090E94870908957D
:100BE0000E942B0D3801D901CA0144240E948509B5
:100BF000E0916003F09161033497E0F0209160038D
:100C00003091610308E313E00E947603012B91F415
:100C100000913803F3010083009160031091610398
:100C200003501040FC010083118309E313E00D938E
:100C30001C9302C005E0402E0E948709042DE8E0C5
:100C40000C943A0D0E942D0DB02FC9012A01A0E08D
:100C50000E94850900913703013009F048C00197CF
:100C600080935C0390935D0301E010E000935E03CA
:100C700010935F03E0915C03F0915D03B083EEE5B8
:100C8000F3E000811181040D151D00831183209173
:100C90005E0330915F0300915C0310915D030E943D
:100CA000760320915E0330915F03C9010196809322
:100CB0005E0390935F03402FF901E85CFC4F408393
:100CC00020915E0330915F03C901019680935E031A
:100CD00090935F03012FF901E85CFC4F008301E072
:100CE0000093360311E000E00E94F20801C0A5E085
:100CF0000E9487090A2FE6E00C943C0D0E94300DFB
:100D00002197A0E08E010E943909109137031050FD
:100D100039F01A9559F01A9521F11A9521F03CC035
:100D20000E94940939C00E94940936C000E010E086
:100D300000936003109361030091600310916103BD
:100D4000C801019680936003909361032881F801A4
:100D5000E85CFC4F208302E0009337030E94940973
:100D60001BC0E0916003F0916103B49780F400919F
:100D7000600310916103C801019680936003909312
:100D800061032881F801E85CFC4F208303C003E085
:100D9000009337030E9494090A2F2196E3E00C94F4
:100DA0003F0D8A9380E000913603005019F00A95B8
:100DB00031F02EC010E001E00E94F20829C000913D
:100DC0005E0310915F03012BC1F0E0915C03F09191
:100DD0005D0300810E942F09ECE5F3E000811181A1
:100DE0000F5F1F4F00831183EEE5F3E00081118157
:100DF00001501040008311830BC008E00E94EF07F0
:100E0000802F10E001E00E94F20800E0009336031A
:100E1000082F899108958A9380E00091370300504C
:100E200029F0025041F00A9551F009C001E00E94FA
:100E3000EF07802F04C002E00E94EF07802F0E947E
:100E4000A20901E000933703082F8991089500500B
:100E500029F00A9529F0065029F006C000E008950F
:100E600002E0089506E0089504E00895BC01F80149
:100E700001E10083319702E20083319703E30083AD
:100E80003197CF018901202F20833197012F0083D3
:100E90003197729700E00083319700E80083319723
:100EA00002978C01202F20833197012F00833197E7
:100EB00001E00083319702E00083319703E0008373
:100EC000319704E00083319705E00083319706E015
:100ED0000083319707E00083319708E00083319762
:100EE00009E00083319700E10083319701E100833D
:100EF000319702E10083319703E10083319704E1E8
:100F00000083319705E1008331978A01202F2083E8
:100F10003197012F0083319708E10083319709E170
:100F20000083319700E20083319701E2008331971B
:100F300002E20083319703E20083319704E20083E9
:100F4000319705E20083319706E20083319707E28B
:100F50000083319700E30083319701E300833197E9
:100F600000E000838F01CB01089504D00E94C308E4
:100F700001E0089500E81EE320E030E046E00E9432
:100F8000220D0150104020403040A801012F009355
:100F90008900409388004BE04093810000916F00EE
:100FA000026000936F0008950E94630818950895E9
:100FB000F8940091830103950093830108950091B3
:100FC00083010A950093830100918301002309F4B2
:100FD0007894089500E00093630301E0089511E020
:100FE000109363030093620301E0089520E03091C1
:100FF0006303332341F020916203F801208300E072
:101000000093630321E0022F08950A920FB6F8942B
:101010000A920DB60A920EB60A921A922A923A9241
:101020004A925A926A927A928A929A92AA92BA9220
:10103000CA92DA92EA92FA920A931A932A933A930C
:101040004A935A936A937A938A939A93AA93BA93F8
:10105000EA93FA93009083010A92A0916403B091FD
:101060006503CD93DD930E94C30BA0916403B091FF
:101070006503CD91DD91099000928301F991E99189
:10108000B991A991999189917991699159914991D0
:101090003991299119910991F990E990D990C990C4
:1010A000B990A990999089907990699059904990B8
:1010B00039902990199009900EBE09900DBE0990A3
:1010C0000FBE099008950A920FB6F8940A920DB6D1
:1010D0000A920EB60A921A922A923A924A925A9218
:1010E0006A927A928A929A92AA92BA92CA92DA9260
:1010F000EA92FA920A931A932A933A934A935A934A
:101100006A937A938A939A93AA93BA93EA93FA93F7
:10111000009083010A92A0916403B0916503CD937E
:10112000DD930E94150B0E94C30BA0916403B09144
:101130006503CD91DD91099000928301F991E991C8
:10114000B991A9919991899179916991599149910F
:101150003991299119910991F990E990D990C99003
:10116000B990A990999089907990699059904990F7
:1011700039902990199009900EBE09900DBE0990E2
:101180000FBE09900895A0916403B0916503CD91BD
:10119000DD91099000928301F991E991B991A991AA
:1011A00099918991799169915991499139912991AF
:1011B00019910991F990E990D990C990B990A990A5
:1011C0009990899079906990599049903990299097
:1011D000199009900EBE09900DBE09900FBE09909E
:1011E000089518959A938A93902F812F8ED09923E2
:1011F00031F00091C10000680093C10005C000916A
:10120000C1000F770093C100882331F00091C10025
:1012100000620093C10005C00091C1000F7D0093E2
:10122000C10075D089919991089501E01091C00095
:1012300012601093C00010E01093C1001091C20022
:1012400016601093C20020E130E03093C500209377
:10125000C4001091C10018611093C100089502C02C
:101260000093C6001091C000212F25FFF9CF01E0A7
:1012700008952091C600F801208301E008958A9323
:10128000FA93EA933A922A921A920A927A936A937A
:101290005A934A933A932A931A930A938FB70E94C8
:1012A0007E068FBF099119912991399149915991E0
:1012B000699179910990199029903990E991F99162
:1012C000899118958A93FA93EA933A922A921A92FC
:1012D0000A927A936A935A934A933A932A931A9367
:1012E0000A938FB70E94D1068FBF09911991299156
:1012F0003991499159916991799109901990299061
:101300003990E991F99189911895F8940895789414
:1013100008950E940B07089500E004BD00E005BD9C
:10132000789410D001E0089500916E000160009360
:101330006E0004EE06BD05B5046005BD05B501608F
:1013400005BD089505B50B7F05BD05B50D7F05BD30
:1013500005B50E7F05BD00916E000E7F00936E00F7
:1013600008958A93FA93EA933A922A921A920A92E9
:101370007A936A935A934A933A932A931A930A93C5
:101380008FB704EE06BDC5DF8FBF09911991299172
:1013900039914991599169917991099019902990C0
:1013A0003990E991F991899118950E94250D68016C
:1013B00059013A014B0129893A89830195D2D80113
:1013C0004E840A2F0B2B09F471C0FD018789908D83
:1013D000860D971D01977A926A926D897E89442DB8
:1013E00095018D0121D2A40196018C010E9436073E
:1013F0000D931C931197EF85F8890E2F0F2B11F089
:10140000A083B1830E94D8070091B2030395009393
:10141000B2030091640310916503012B51F4A09372
:101420006403B09365030091B203013089F42AD2BA
:101430000FC00091B703002359F4E0916403F091C9
:1014400065030689401620F0A0936403B0936503FA
:101450000091B503FD011689011720F4FD010689ED
:101460000093B5030091BC0303950093BC03009166
:10147000B603FD011689011720F4FD0106890093CA
:10148000B6039D012E5F3F4FFD01468950E009E004
:1014900010E00E94110DA80106E613E0040F151FCD
:1014A0000E94A80181E00E94DF0701C08FEF813018
:1014B00069F40091B703002349F0E0916403F091CF
:1014C00065030689041510F40E940508082FE5E15C
:1014D0000C94340D00E010E01A930A9300E010E041
:1014E0001A930A9300E010E01A930A9300E00A931B
:1014F00060E070E045E550E024E831E000E11CE008
:1015000054DF013061F4F89401E00093B70300E088
:1015100010E00093B3031093B4030E94B50708953D
:101520000091B80303950093B80308950E942F0D0E
:1015300090E00E94D8070091B8030A950093B80381
:101540000091B803002309F05CC00091B2030023AE
:1015500009F457C080E035C0E091A503F091A603DF
:10156000A681B7818D01045F1F4F0E94CD018D01BF
:101570000E5F1F4F0E94CD010091B603FD01168939
:10158000011720F4FD0106890093B6039D012E5F2B
:101590003F4FFD01468950E009E010E00E94110D27
:1015A000A80106E613E0040F151F0E94A801FD0123
:1015B0000689E0916403F09165031689011708F02C
:1015C00081E00091A003002339F60091B9030023C4
:1015D00039F40BC02AD00091B9030A950093B903DE
:1015E0000091B9030023B1F781E0813021F000912F
:1015F000BA03013031F491E000E00093BA030E9495
:1016000005080E94DF07092FE4E00C943E0D9A9331
:101610008A930E94D8078091B3039091B4030E94EB
:10162000DF078C01899199910895BA93AA9300914B
:10163000B803002309F09FC0E3EBF3E000811181C0
:101640000F5F1F4F008311830091B3031091B40308
:10165000012B99F500919C0310919D0320919E030D
:1016600030919F0320939C0330939D0300939E032E
:1016700010939F030091BB0303950093BB03E0917C
:101680009C03F0919D030081002339F40FEF1FEFBD
:101690000093890110938A0110C0A0919C03B0911E
:1016A0009D031596ED91FC91A681B781FD01028104
:1016B00013810093890110938A010091B303109163
:1016C000B4032091890130918A010217130708F4AD
:1016D00057C02AC08D010E5F1F4F0E94CD01FD0132
:1016E00004891589012B29F08D01045F1F4F0E9489
:1016F000CD010091B603FD011689011720F4FD010B
:1017000006890093B6039D012E5F3F4FFD01468978
:1017100050E009E010E00E94110DA80106E613E078
:10172000040F151F0E94A801E0919C03F0919D03F6
:101730000081002339F40FEF1FEF0093890110930C
:101740008A011EC0A0919C03B0919D031596ED9156
:10175000FC91A681B781FD01028113812091B30321
:101760003091B4032017310708F0B4CF00938901FA
:1017700010938A0105C00091B90303950093B90342
:10178000A991B9910895BD010091B803002349F0D2
:1017900001E00093BA0342C00091B6030A9500939A
:1017A000B6034091B60350E009E010E00E94110D2D
:1017B000F801EA59FC4F0081002371F34091B60310
:1017C00050E009E010E00E94110DA6E6B3E0A00F82
:1017D000B11F1196ED91FC91129702811381FD01C9
:1017E00001831283FD01218132818D010D5F1F4F25
:1017F0002017310749F41196ED91FC91129702815F
:101800001381FD0101831283FD01A181B28116962E
:101810000D911C910093640310936503DB010895FF
:1018200062D00E94F901FCCF0E942F0DD801842FB5
:1018300048E050E08D01075E1F4F0E947A0D00E0E6
:10184000FD0100A3843008F083E0FD01868B8D014B
:101850000E5F1F4F0E94A2018D01045F1F4F0E9467
:10186000A201FD01A087B18704E010E090E0081B11
:10187000190BFD0104871587FD01A28BB38BE6E0F0
:101880000C943E0D8A9380E00EC0482F50E009E092
:1018900010E00E94110D980106E613E0020F131FDD
:1018A0000E9487018395843080F30AE813E00E9448
:1018B000870103E913E00E94870100EA13E00E9418
:1018C000870109EA13E00E9487010AE813E0009308
:1018D0009C0310939D0303E913E000939E03109370
:1018E0009F038991089508950E942D0D2801C90133
:1018F00001E210E00E944001D8010A2F0B2BF1F009
:10190000082F092B21F482010E94400101C08C01A3
:10191000FD01078B108FFD010789108D012B31F41C
:101920008D010E947401A0E0B0E008C0A20125EA88
:1019300030E0FD010789108D0E94490D8D01E6E020
:101940000C943C0D00E00A01F901E40FF51F7197BA
:1019500090F4A901605019F06A9539F0089511E0EA
:10196000011610E01106DCF7089511E0011610E0F1
:101970001106DCF7089501E0089500E0F901E40F95
:10198000F51F719770F421503040420F531F440FE0
:10199000551F12E0219F11240416150618F4039414
:1019A000FACF01E00895792F282EC90100E0FC014B
:1019B000E40FF51F7197E0F40197480F591F440F8A
:1019C000551F605019F06A9551F013C012E0819FC5
:1019D00001C00394112404161506D8F30AC012E0BE
:1019E000819F01C00394112404161506D8F301C089
:1019F00001E0822D972F089500008895FECF0FE516
:101A00000DBF01E00EBFC0E4D1E00E94470D0023EE
:101A100011F00E94600D0E9402020E94FC0C0C94C6
:101A2000FC0C149F102D059F100D049F002D110D0F
:101A30000895169507954A95E2F7089536952795E6
:101A4000179507954A95D2F70895DA92CA92BA92F5
:101A5000AA929A928A927A926A925A924A92BA93E5
:101A6000AA939A938A930895DD84CC84BB84AA8434
:101A7000998488847F806E805D804C80BB81AA8140
:101A800099818881F0E0EC0FFD1FEF01089501E0DE
:101A90000895F80101C02193BA0141505040672BCD
:101AA000D1F7089520E006D0E9F70895259102D0F6
:101AB000E9F708952D9301501040202F212B089510
:101AC00082E29BE1FC0105911491FC013296A59103
:101AD000B491FC01349625913491422F432B19F097
:101AE000F901E4DF01C0DEDF06961BE18E329107CB
:101AF00048F30895BD01D801F90198010DD049F0CE
:101B000001910D930023D1F707D019F000E00D9358
:101B1000FBCF8901DB0108958A0141505040012B20
:101B2000089532028B0100002B0060012E1B436FD1
:101B30006E74726F6C00554152540002044F0503DD
:101B4000F60410B604069204019C030505040F4038
:091B5000045049444C4500FFFF1C
:0400000300000000F9
:00000001FF
