:020000020000FC
:100000000C94640B189518951895189518951895D3
:100010001895189518951895189518951895189578
:100020001895189518951895189518951895189568
:100030000C940E06189518951895189518951895FE
:10004000189518950C94DC0718951895189518951F
:10005000189518950C946A070C948D0718951895A7
:100060001895189518951895189518951895189528
:100070001895189518951895189518951895189518
:1000800000C1814001C0804101C0804100C1814068
:1000900001C0804100C1814000C1814001C0804158
:1000A00001C0804100C1814000C1814001C0804148
:1000B00000C1814001C0804101C0804100C1814038
:1000C00001C0804100C1814000C1814001C0804128
:1000D00000C1814001C0804101C0804100C1814018
:1000E00000C1814001C0804101C0804100C1814008
:1000F00001C0804100C1814000C1814001C08041F8
:1001000001C0804100C1814000C1814001C08041E7
:1001100000C1814001C0804101C0804100C18140D7
:1001200000C1814001C0804101C0804100C18140C7
:1001300001C0804100C1814000C1814001C08041B7
:1001400000C1814001C0804101C0804100C18140A7
:1001500001C0804100C1814000C1814001C0804197
:1001600001C0804100C1814000C1814001C0804187
:1001700000C1814001C0804101C0804100C1814077
:1001800000C0C101C30302C2C60607C705C5C40437
:10019000CC0C0DCD0FCFCE0E0ACACB0BC90908C8A7
:1001A000D81819D91BDBDA1A1EDEDF1FDD1D1CDC97
:1001B00014D4D515D71716D6D21213D311D1D01007
:1001C000F03031F133F3F23236F6F737F53534F4F7
:1001D0003CFCFD3DFF3F3EFEFA3A3BFB39F9F83867
:1001E00028E8E929EB2B2AEAEE2E2FEF2DEDEC2C57
:1001F000E42425E527E7E62622E2E323E12120E0C7
:10020000A06061A163A3A26266A6A767A56564A4B6
:100210006CACAD6DAF6F6EAEAA6A6BAB69A9A86826
:1002200078B8B979BB7B7ABABE7E7FBF7DBDBC7C16
:10023000B47475B577B7B67672B2B373B17170B086
:100240005090915193535292965657975595945476
:100250009C5C5D9D5F9F9E5E5A9A9B5B99595898E6
:10026000884849894B8B8A4A4E8E8F4F8D4D4C8CD6
:100270004484854587474686824243834181804046
:100280000E948F0BD80180E090E00E941809009135
:100290000603109107030A0F1B1F003921E0120704
:1002A000E8F40091060310910703209106033091B2
:1002B00007032A0F3B1F0217130780F40091060360
:1002C0001091070386E791E0800F911FE6E0F3E0CD
:1002D000008111810A0F1B1F008311830E941E09D8
:1002E0008C01E4E00C949E0B08950FEF05B90FEF1D
:1002F00004B9509A5898519A529A399A389A409813
:100300005598569857983C983D983E983F98539AE0
:10031000549808955A98599A000000000000419A94
:1003200000E004B900000000000000E01F99039500
:1003300041981FEF14B908958A93802FEBDF0023B3
:1003400049F000EE00C00A95E9F7E4DF002311F060
:1003500003E00FC05A98599841980000000085B9F1
:1003600000000000419A05E00A95F1F7000041986D
:1003700000E0899108958A93802FCCDF002349F013
:1003800000EE00C00A95E9F7C5DF002311F003E095
:100390000FC05A9A599841980000000085B9000092
:1003A0000000419A05E00A95F1F70000419800E04D
:1003B00089910895AFDF002349F000EE00C00A954F
:1003C000E9F7A8DF002311F003E008955A9A599A3B
:1003D00041980000000000E004B900000000419ACC
:1003E00005E00A95F1F7000000E01F9903951FEF63
:1003F00014B9419808959A938A93902F812F00E021
:10040000803420F400E00E94000803C001E00E9454
:1004100000089770986B092F8FDF033021F08F73DE
:100420008064082F89DF8991999108958A9300E06B
:1004300001C00395083078F410E01038D0F7DBDF06
:10044000802F833011F4082F07C001E094DF802F44
:10045000B1DF082F01C0082F899108958A9300E029
:100460000E94000800EC68DF0FE366DF802F01E0E8
:100470000E94000800EC60DF802F0FE35DDF802F1B
:10048000D5DF802F082F8991089598012D5F3F4F68
:10049000F801218332832FEF3FEFF8012383348368
:1004A00098012D5F3F4FF8012583368398012D5F1A
:1004B0003F4FF8012783308720E0F801208308951B
:1004C00020E030E0F801208731870895BD01F80170
:1004D000A181B281FD0142815381F901428353839D
:1004E000F80141815281F901448355831296ED91BF
:1004F000FC91139724833583FD0122833383F80114
:1005000021833283F90100871187F8010081039567
:100510000083DB0108950D01F901608171816F3F56
:100520004FEF740721F4F801A781B0850FC0D801FF
:10053000139603C0FD01A281B381FD014281538165
:10054000FA014081518164177507A0F7FD014281CE
:100550005381F90142835383F90142815381FA01A6
:1005600024833583F901A483B583FD01228333837A
:10057000F90100871187F801008103950083D001FC
:100580000895AD01F80124813581F801A281B3817C
:1005900014962D933C93F80122813381F801A481B4
:1005A000B58112962D933C93F801A085B185FD018C
:1005B000218132812017310731F4F80124813581FE
:1005C000FD012183328320E030E0F801208731876C
:1005D0000C910A950C93DA010895089522970E94D0
:1005E0008F090883198324E630E08E010E94A80851
:1005F000FACF66970E948F09088319830EC000E026
:100600000E94000800E00A830E891D89010F0A8BF1
:1006100028EE33E08E010E94A8080A81005019F0EC
:100620000A9569F3F1CF01E00E94000801E00A8316
:10063000EBCF0E9475010E942E02002309F0409A20
:1006400030E040E052EC61E070E020E011E000E0DA
:100650000E945F030E94BA0300E010E01A930A931D
:1006600000E010E01A930A9300E010E01A930A9356
:1006700001E00A9360E070E045E550E020E631E0FB
:1006800009EF12E00E94130800E010E01A930A93A9
:1006900000E010E01A930A9300E010E01A930A9326
:1006A00002E00A9360E070E045E550E028E631E0C2
:1006B0000EEE12E00E9413080E94F208FFCF9A93F8
:1006C0008A93902F022E232F80E0112321F01123F3
:1006D00011F0183F10F082E049C0109308039923ED
:1006E000B9F500E214E000930C0310930D030EE241
:1006F00014E000930E0310930F030BE614E0009335
:100700000A0310930B0309E314E000931003109302
:10071000110300E010E0009312031093130307ECA1
:1007200014E000931403109315030AE115E00093FD
:1007300016031093170304E515E0009318031093B4
:100740001903102D009108030E94F303802F01C0AC
:1007500082E0882359F40E942406002311F483E0E8
:1007600005C09093090301E000936D01082F899162
:10077000999108958A9380E000916D01013049F4C8
:10078000E0910C03F0910D03099500E000936D01D9
:1007900001C086E0082F89910895592F282EC8019D
:1007A0004FEF6FEF12C0062E1124FC01008110E004
:1007B000002611260196F001E058FF4F04914027D2
:1007C000642FF001E058FE4F4491890198012150B7
:1007D0003040012B41F7142F00E070E0062B172B5F
:1007E000822D952F08950E948C0B612ECA01DB018A
:1007F000522E44240E94B007252D18E0AC01BD0103
:10080000062D0E944007013019F003E0402E12C06F
:1008100081300BE4900700E0A00700E0B00720F073
:1008200003E210E020E030E00E94B707013011F051
:1008300003E0402E0E94B207042DE7E00C949B0BCE
:100840000E94B00700E000931B0310E001E00E944B
:100850001D070E94BF070E94B20708950E94B007BB
:1008600010E000E00E941D070E94CD070E94B20721
:1008700008950E948B0B3801D901CA0144240E94BB
:10088000B007E0914403F09145033497E0F02091E4
:100890004403309145030CE113E00E94CD03012B8A
:1008A00091F400911C03F301008300914403109123
:1008B000450303501040FC01008311830DE113E058
:1008C0000D931C9302C005E0402E0E94B207042D38
:1008D000E8E00C949A0B0E948D0BB02FC9012A01FD
:1008E000A0E00E94B00700911B03013009F048C04E
:1008F0000197809340039093410301E010E000933F
:10090000420310934303E0914003F0914103B0830D
:10091000E2E4F3E000811181040D151D00831183D1
:100920002091420330914303009140031091410311
:100930000E94CD032091420330914303C9010196E7
:100940008093420390934303402FF901E45EFC4FF0
:1009500040832091420330914303C9010196809363
:10096000420390934303012FF901E45EFC4F00839F
:1009700001E000931A0311E000E00E941D0701C08E
:10098000A5E00E94B2070A2FE6E00C949C0B0E949F
:10099000900B2197A0E08E010E94640710911B0329
:1009A000105039F01A9559F01A9521F11A9521F045
:1009B0003CC00E94BF0739C00E94BF0736C000E09C
:1009C00010E00093440310934503009144031091F9
:1009D0004503C80101968093440390934503288101
:1009E000F801E45EFC4F208302E000931B030E94A9
:1009F000BF071BC0E0914403F0914503B49780F416
:100A00000091440310914503C8010196809344036B
:100A1000909345032881F801E45EFC4F208303C0D6
:100A200003E000931B030E94BF070A2F2196E3E017
:100A30000C949F0B8A9380E000911A03005019F0E8
:100A40000A9531F02EC010E001E00E941D0729C078
:100A50000091420310914303012BC1F0E091400348
:100A6000F091410300810E945A07E0E4F3E0008125
:100A700011810F5F1F4F00831183E2E4F3E00081D7
:100A8000118101501040008311830BC008E00E94C7
:100A90002906802F10E001E00E941D0700E000936E
:100AA0001A03082F899108958A9380E000911B030F
:100AB000005029F0025041F00A9551F009C001E0C0
:100AC0000E942906802F04C002E00E942906802F80
:100AD0000E94CD0701E000931B03082F8991089520
:100AE000BC01F80101E10083319702E200833197F4
:100AF00003E300833197CF018901202F20833197B1
:100B0000012F00833197729700E00083319700E84E
:100B10000083319702978C01202F20833197012F7A
:100B20000083319701E00083319702E00083319721
:100B300003E00083319704E00083319705E00083F0
:100B4000319706E00083319707E00083319708E092
:100B50000083319709E00083319700E100833197EA
:100B600001E10083319702E10083319703E10083C3
:100B7000319704E10083319705E1008331978A01C1
:100B8000202F20833197012F0083319708E10083C4
:100B9000319709E10083319700E20083319701E248
:100BA0000083319702E20083319703E2008331979B
:100BB00004E20083319705E20083319706E2008367
:100BC000319707E20083319700E30083319701E317
:100BD0000083319700E000838F01CB01089504D09A
:100BE0000E94EE0601E0089500E81EE320E030E0F8
:100BF00046E00E94820B0150104020403040A80186
:100C0000012F00938900409388004BE040938100BE
:100C100000916F00026000936F0008950E948E069D
:100C200018950895F89400916E01039500936E0154
:100C3000089500916E010A9500936E0100916E0176
:100C4000002309F47894089500E00093470301E03D
:100C5000089511E0109347030093460301E00895BF
:100C60000A920FB6F8940A920DB60A920EB60A923C
:100C70001A922A923A924A925A926A927A928A9254
:100C80009A92AA92BA92CA92DA92EA92FA920A9343
:100C90001A932A933A934A935A936A937A938A932C
:100CA0009A93AA93BA93EA93FA9300906E010A92E8
:100CB000A0914903B0914A03CD93DD930E944B0A62
:100CC000A0914903B0914A03CD91DD910990009222
:100CD0006E01F991E991B991A991999189917991CF
:100CE0006991599149913991299119910991F990F5
:100CF000E990D990C990B990A990999089907990EC
:100D000069905990499039902990199009900EBE98
:100D100009900DBE09900FBE099008950A920FB672
:100D2000F8940A920DB60A920EB60A921A922A9274
:100D30003A924A925A926A927A928A929A92AA9293
:100D4000BA92CA92DA92EA92FA920A931A932A9380
:100D50003A934A935A936A937A938A939A93AA936B
:100D6000BA93EA93FA9300906E010A92A091490314
:100D7000B0914A03CD93DD930E949D090E944B0AD6
:100D8000A0914903B0914A03CD91DD910990009261
:100D90006E01F991E991B991A9919991899179910E
:100DA0006991599149913991299119910991F99034
:100DB000E990D990C990B990A9909990899079902B
:100DC00069905990499039902990199009900EBED8
:100DD00009900DBE09900FBE09900895A091490396
:100DE000B0914A03CD91DD91099000926E01F99185
:100DF000E991B991A99199918991799169915991C3
:100E000049913991299119910991F990E990D990D5
:100E1000C990B990A99099908990799069905990CA
:100E2000499039902990199009900EBE09900DBEF5
:100E300009900FBE0990089518959A938A93902F60
:100E4000812F8ED0992331F00091C100006800936A
:100E5000C10005C00091C1000F770093C100882335
:100E600031F00091C10000620093C10005C0009103
:100E7000C1000F7D0093C10075D0899199910895AB
:100E800001E01091C00012601093C00010E01093B8
:100E9000C1001091C20016601093C20020E130E042
:100EA0003093C5002093C4001091C10018611093C5
:100EB000C100089502C00093C6001091C000212F08
:100EC00025FFF9CF01E008952091C600F8012083A5
:100ED00001E008958A93FA93EA933A922A921A9239
:100EE0000A927A936A935A934A933A932A931A935B
:100EF0000A938FB70E94C7048FBF09911991299156
:100F00003991499159916991799109901990299054
:100F10003990E991F991899118958A93FA93EA9316
:100F20003A922A921A920A927A936A935A934A931D
:100F30003A932A931A930A938FB70E941A058FBF88
:100F40000991199129913991499159916991799111
:100F50000990199029903990E991F9918991189502
:100F6000F8940895789408950E945405089500E037
:100F700004BD00E005BD789410D001E00895009113
:100F80006E00016000936E0004EE06BD05B50460BE
:100F900005BD05B5016005BD089505B50B7F05BD0F
:100FA00005B50D7F05BD05B50E7F05BD00916E0031
:100FB0000E7F00936E0008958A93FA93EA933A9213
:100FC0002A921A920A927A936A935A934A933A937C
:100FD0002A931A930A938FB704EE06BDC5DF8FBF1D
:100FE0000991199129913991499159916991799171
:100FF0000990199029903990E991F9918991189562
:10100000002321F00DEF0093480303C00EEF00937F
:1010100048030091480305B9409A05E00A95F1F7A5
:101020000000409808950E94850B680159013A011B
:101030004B0129893A89830116D3D8014E840A2F9E
:101040000B2B09F471C0FD018789908D860D971DCA
:1010500001977A926A926D897E89442D95018D015E
:101060006BD2A40196018C010E9470050D931C9314
:101070001197EF85F8890E2F0F2B11F0A083B18304
:101080000E94120600919703039500939703009125
:10109000490310914A03012B51F4A0934903B093E3
:1010A0004A0300919703013089F474D20FC0009174
:1010B0009C03002359F4E0914903F0914A03068907
:1010C000401620F0A0934903B0934A0300919A037D
:1010D000FD011689011720F4FD01068900939A038A
:1010E0000091A10303950093A10300919B03FD01CF
:1010F0001689011720F4FD01068900939B039D01C9
:101100002E5F3F4FFD01468950E009E010E00E944C
:10111000760BA8010BE413E0040F151F0E94660272
:1011200081E00E94190601C08FEF813069F40091BF
:101130009C03002349F0E0914903F0914A0306899A
:10114000041510F40E943006082FE5E10C94940B6E
:101150000E948B0BD801390144246AD08D919C9157
:101160001197860D971D00919803109199032D9169
:101170003C9111970217130780F40D911C91119760
:1011800080179107C8F400919803109199030817EC
:10119000190790F4442443940FC00D911C911197AA
:1011A0008017910738F00091980310919903081760
:1011B000190710F4442443948D939C93442051F0D8
:1011C0000091490310914A030E5F1F4F0E94C10214
:1011D0008C0112D233D0002311F40E943006E8E0D3
:1011E0000C949A0B00E010E01A930A9300E010E0D0
:1011F0001A930A9300E010E01A930A9300E00A930E
:1012000060E070E045E550E02FE631E008E91AE0E3
:101210000ADF013061F4F89401E000939C0300E0E0
:1012200010E000939803109399030E94EF0508952E
:1012300000919D03039500939D0308950E948F0BD9
:1012400090E00E94120600919D030A9500939D0371
:1012500000919D03002309F05CC0009197030023D7
:1012600009F457C080E035C0E0918A03F0918B0308
:10127000A681B7818D01045F1F4F0E94C1028D01BD
:101280000E5F1F4F0E94C10200919B03FD01168952
:10129000011720F4FD01068900939B039D012E5F39
:1012A0003F4FFD01468950E009E010E00E94760BB7
:1012B000A8010BE413E0040F151F0E946602FD0154
:1012C0000689E0914903F0914A031689011708F055
:1012D00081E000918503002339F600919E030023ED
:1012E00039F40BC02AD000919E030A9500939E0307
:1012F00000919E030023B1F781E0813021F000913D
:101300009F03013031F491E000E000939F030E94BD
:1013100030060E941906092FE4E00C949E0B9A9364
:101320008A930E94120680919803909199030E94DB
:1013300019068C01899199910895BA93AA93009105
:101340009D03002309F09FC0E8E9F3E000811181CB
:101350000F5F1F4F00831183009198031091990331
:10136000012B99F500918103109182032091830351
:10137000309184032093810330938203009383038D
:10138000109384030091A00303950093A003E091C0
:101390008103F09182030081002339F40FEF1FEFE6
:1013A000009374011093750110C0A0918103B09156
:1013B00082031596ED91FC91A681B781FD01028112
:1013C000138100937401109375010091980310919B
:1013D000990320917401309175010217130708F4E5
:1013E00057C02AC08D010E5F1F4F0E94C102FD0130
:1013F00004891589012B29F08D01045F1F4F0E947C
:10140000C10200919B03FD011689011720F4FD0123
:10141000068900939B039D012E5F3F4FFD01468986
:1014200050E009E010E00E94760BA8010BE413E005
:10143000040F151F0E946602E0918103F091820360
:101440000081002339F40FEF1FEF00937401109314
:1014500075011EC0A0918103B09182031596ED9194
:10146000FC91A681B781FD0102811381209198032F
:10147000309199032017310708F0B4CF009374011D
:101480001093750105C000919E03039500939E0380
:10149000A991B9910895BD0100919D03002349F0E0
:1014A00001E000939F0342C000919B030A950093C3
:1014B0009B0340919B0350E009E010E00E94760BF3
:1014C000F801E55BFC4F0081002371F340919B0321
:1014D00050E009E010E00E94760BABE4B3E0A00F0F
:1014E000B11F1196ED91FC91129702811381FD01BC
:1014F00001831283FD01218132818D010D5F1F4F18
:101500002017310749F41196ED91FC911297028151
:101510001381FD0101831283FD01A181B281169621
:101520000D911C910093490310934A03DB01089528
:1015300062D00E94ED02FCCF0E948F0BD801842F55
:1015400048E050E08D01075E1F4F0E94DA0B00E07B
:10155000FD0100A3843008F083E0FD01868B8D013E
:101560000E5F1F4F0E9460028D01045F1F4F0E949B
:101570006002FD01A087B18704E010E090E0081B45
:10158000190BFD0104871587FD01A28BB38BE6E0E3
:101590000C949E0B8A9380E00EC0482F50E009E027
:1015A00010E00E94760B98010BE413E0020F131F6A
:1015B0000E9445028395843080F30FE613E00E9479
:1015C000450208E713E00E94450205E813E00E9487
:1015D00045020EE813E00E9445020FE613E0009377
:1015E00081031093820308E713E0009383031093B1
:1015F00084038991089508959A938A93C801E0918C
:101600004903F0914A0382839383009198031091D8
:1016100099038017910768F42091490330914A0398
:101620002E5F3F4F00918303109184030E948B0231
:1016300017C02091490330914A032E5F3F4F00911C
:101640008103109182030E948B020091740110911A
:1016500075018017910720F48093740190937501B0
:101660008991999108950E948D0B2801C90101E289
:1016700010E00E944001D8010A2F0B2BF1F0082F37
:10168000092B21F482010E94400101C08C01FD015F
:10169000078B108FFD010789108D012B31F48D010F
:1016A0000E947401A0E0B0E008C0A20125EA30E089
:1016B000FD010789108D0E94A90B8D01E6E00C94B5
:1016C0009C0B00008895FECF0FE50DBF01E00EBF1B
:1016D000C0E4D1E00E94A70B002311F00E94C00BD0
:1016E0000E9419030E94610B0C94610B149F102D32
:1016F000059F100D049F002D110D08953695279517
:10170000179507954A95D2F70895DA92CA92BA9238
:10171000AA929A928A927A926A925A924A92BA9328
:10172000AA939A938A930895DD84CC84BB84AA8477
:10173000998488847F806E805D804C80BB81AA8183
:1017400099818881F0E0EC0FFD1FEF01089501E021
:101750000895F80101C02193BA0141505040672B10
:10176000D1F7089520E006D0E9F70895259102D039
:10177000E9F708952D9301501040202F212B089553
:1017800082EE97E1FC0105911491FC013296A5913E
:10179000B491FC01349625913491422F432B19F0DA
:1017A000F901E4DF01C0DEDF069617E18E3E910706
:1017B00048F30895BD01D801F90198010DD049F011
:1017C00001910D930023D1F707D019F000E00D939C
:1017D000FBCF8901DB0108958A0141505040012B64
:1017E00008952C027601000016006001EE17436F89
:1017F0006E74726F6C005541525400025049444C53
:041800004500FFFFA1
:0400000300000000F9
:00000001FF
