:020000020000FC
:100000000C947D12189518951895189518951895B3
:100010001895189518951895189518951895189578
:100020001895189518951895189518951895189568
:100030000C948C0C1895189518951895189518957A
:10004000189518950C94C70E18951895189518952D
:10005000189518950C94150E0C943B0E1895189540
:100060001895189518951895189518951895189528
:100070001895189518951895189518951895189518
:10008000000000000000000000065F5F06000000A6
:10009000000007000700000000147F147F14000018
:1000A00000242A7F2A120000002313086462000043
:1000B00000364955225000000000050300000000F2
:1000C000001C3E63410000000041633E1C00000034
:1000D0000014083E081400000008083E080800004C
:1000E00080E06000000000001C1C1C1C1C1C1C008C
:1000F0000060600000000000002010080402000002
:100100003E7F71594D7F3E0000427F7F40000000DE
:10011000627359494F460000226349497F36000007
:100120001C1E13517F7F5000276745457D39000015
:100130003C7E4B4979300000030371790F070000C2
:10014000367F49497F360000266F49497F3E0000CF
:100150000000666600000000000056360000000047
:1001600000081422410000000014141414140000AC
:10017000000041221408000000020151090600009D
:1001800000324979413E00007C7E13137E7C0000E2
:10019000417F7F49497F36001C3E63414163220015
:1001A000417F7F41633E1C00417F7F49496363007B
:1001B000417F7F491D0103001C3E63415173720062
:1001C0007F7F08087F7F000000417F7F41000000A3
:1001D0006141417F7F0100007F7F1C366341000049
:1001E000417F7F41406070007F7F061C067F7F005B
:1001F0007F7F060C187F7F001C3E6341633E1C001E
:10020000417F7F09090F06001C7E6351633E5C003D
:10021000417F7F09197F6600266F4D5973320000B8
:1002200003417F7F410300007F7F40407F7F0000CC
:10023000071F7840781F07007F7F301C307F7F00CA
:1002400041633E083E634100074F78784F07000046
:10025000436171594D47630000007F414100000038
:100260000002040810200000000041417F0000004F
:100270000004020102040000004040404040000031
:10028000000102040000000020545454387840005B
:100290007F7F4844447C3800387C44446C2800000C
:1002A000307848493F7F4000387C54545C18000047
:1002B000487E7F490302000098BCA4A4F87C040097
:1002C000417F7F08047C780000447D7D4000000071
:1002D000206040447D3D0000417F7F10386C440029
:1002E00000417F7F400000007C7C1838187C7C0037
:1002F0007C7C04047C780000387C44447C3800001A
:1003000084FCF8A4243C18000C1E1E92FEFE9200F1
:10031000447C784C041C1800485C5454742400003D
:1003200000043E7F442400003C7C40403C7C400074
:100330001C3C60603C1C00003C7C7038707C3C00C5
:10034000446C3810386C44009CBCA0A0FC7C0000BD
:100350004464745C4C440000000008364100000016
:100360000000007700000000000041360800000097
:10037000000201020402000000FFFFFFFFFF000077
:1003800000C1814001C0804101C0804100C1814065
:1003900001C0804100C1814000C1814001C0804155
:1003A00001C0804100C1814000C1814001C0804145
:1003B00000C1814001C0804101C0804100C1814035
:1003C00001C0804100C1814000C1814001C0804125
:1003D00000C1814001C0804101C0804100C1814015
:1003E00000C1814001C0804101C0804100C1814005
:1003F00001C0804100C1814000C1814001C08041F5
:1004000001C0804100C1814000C1814001C08041E4
:1004100000C1814001C0804101C0804100C18140D4
:1004200000C1814001C0804101C0804100C18140C4
:1004300001C0804100C1814000C1814001C08041B4
:1004400000C1814001C0804101C0804100C18140A4
:1004500001C0804100C1814000C1814001C0804194
:1004600001C0804100C1814000C1814001C0804184
:1004700000C1814001C0804101C0804100C1814074
:1004800000C0C101C30302C2C60607C705C5C40434
:10049000CC0C0DCD0FCFCE0E0ACACB0BC90908C8A4
:1004A000D81819D91BDBDA1A1EDEDF1FDD1D1CDC94
:1004B00014D4D515D71716D6D21213D311D1D01004
:1004C000F03031F133F3F23236F6F737F53534F4F4
:1004D0003CFCFD3DFF3F3EFEFA3A3BFB39F9F83864
:1004E00028E8E929EB2B2AEAEE2E2FEF2DEDEC2C54
:1004F000E42425E527E7E62622E2E323E12120E0C4
:10050000A06061A163A3A26266A6A767A56564A4B3
:100510006CACAD6DAF6F6EAEAA6A6BAB69A9A86823
:1005200078B8B979BB7B7ABABE7E7FBF7DBDBC7C13
:10053000B47475B577B7B67672B2B373B17170B083
:100540005090915193535292965657975595945473
:100550009C5C5D9D5F9F9E5E5A9A9B5B99595898E3
:10056000884849894B8B8A4A4E8E8F4F8D4D4C8CD3
:100570004484854587474686824243834181804043
:10058000000101C708C70801DB0702F90704840856
:10059000089708FB0E941913D80180E090E00E94A0
:1005A00008100091790310917A030A0F1B1F00397C
:1005B00021E01207E8F40091790310917A03209169
:1005C000790330917A032A0F3B1F0217130780F437
:1005D0000091790310917A0389EE91E0800F911FC9
:1005E000E9E7F3E0008111810A0F1B1F00831183EB
:1005F0000E940E108C01E4E00C94281308950FEF74
:1006000005B90FEF04B9509A5898519A529A399AED
:10061000389A40985598569857983C983D983E98E7
:100620003F98539A54985C9A3B9A3A9A089500E0FE
:1006300010E014B95A98599A000000000000419A3D
:100640000000000000001F9B03C003950536D8F38F
:10065000053610F001E001C000E041981FEF14B929
:1006600008958A93802FE3DF002311F003E00FC089
:100670005A98599841980000000085B90000000080
:10068000419A05E00A95F1F70000419800E0899150
:1006900008958A93802FCBDF002311F003E00FC071
:1006A0005A9A599841980000000085B9000000004E
:1006B000419A05E00A95F1F70000419800E0899120
:1006C00008958A93202F812F00E0803418F4429AF5
:1006D000439802C0439A42982770286B022FC1DFCB
:1006E000033021F08F738064082FBBDF8991089558
:1006F0009A938A9390E001C09395983070F480E0CB
:1007000001C083958038C0F7182F092FDADF033036
:1007100021F000E0BEDF0330A1F78991999108959F
:100720008A93429A439800EC9CDF0FE39ADF802F74
:10073000439A429800EC95DF802F0FE392DF802FE1
:10074000D7DF802F082F899108950E941813902FCA
:10075000A12F822FB0E014C0192F1B0F0A2FB1DF79
:10076000482F50E008E010E00E948F122B2F30E05D
:10077000020F131FF801E058F04004918ADFB3958F
:10078000B83050F3042DE5E00C9427130E941813A1
:10079000902F812FD90107C0FD012081182F092F2B
:1007A000D4DF1196985F0C910023B1F7042DE5E09A
:1007B0000C94271398012D5F3F4FF801218332835A
:1007C0002FEF3FEFF8012383348398012D5F3F4FD4
:1007D000F8012583368398012D5F3F4FF801278369
:1007E000308720E0F8012083089520E030E0F80110
:1007F000208731870895BD01F801A181B281FD01F3
:1008000042815381F90142835383F801418152812E
:10081000F901448355831296ED91FC91139724833B
:100820003583FD0122833383F80121833283F9016B
:1008300000871187F801008103950083DB0108958B
:100840000D01F901608171816F3F4FEF740721F451
:10085000F801A781B0850FC0D801139603C0FD0130
:10086000A281B381FD0142815381FA01408151810E
:1008700064177507A0F7FD0142815381F901428396
:100880005383F90142815381FA0124833583F901AD
:10089000A483B583FD0122833383F9010087118787
:1008A000F801008103950083D0010895AD01F8019E
:1008B00024813581F801A281B38114962D933C9354
:1008C000F80122813381F801A481B58112962D931C
:1008D0003C93F801A085B185FD012181328120176B
:1008E000310731F4F80124813581FD012183328300
:1008F00020E030E0F801208731870C910A950C93B5
:10090000DA0108950E94C507089522970E947F107A
:100910000883198320E631E010E000E00E94C6035E
:1009200021E731E011E000E00E94C60322E831E057
:1009300012E000E00E94C60321E731E013E000E08E
:100940000E94C60322E931E014E000E00E94C603E1
:1009500021EA31E015E000E00E94C60322EB31E01D
:1009600016E000E00E94C60328EB31E017E000E04B
:100970000E94C603EBE7F3E0008100FF05C021E31E
:1009800010E000E20E94A503EBE7F3E0008101FF25
:1009900005C021E310E008E30E94A503EBE7F3E0C4
:1009A000008102FF05C021E310E000E50E94A503DD
:1009B000EBE7F3E0008103FF05C021E310E008E767
:1009C0000E94A503EBE7F3E0008104FF05C021E3EB
:1009D00014E008E20E94A503EBE7F3E0008105FFC5
:1009E00005C021E314E008E40E94A503EBE7F3E06F
:1009F000008106FF05C021E314E008E60E94A5037C
:100A0000EBE7F3E0008107FF05C021E315E008E212
:100A10000E94A503EBE7F3E0018100FF05C021E39D
:100A200015E008E40E94A503EBE7F3E0018101FF74
:100A300005C021E315E008E70E94A503EBE7F3E01A
:100A4000018102FF05C021E311E008E70E94A50330
:100A5000EBE7F3E0018103FF05C021E313E008E7C2
:100A60000E94A503EBE7F3E0018104FF05C021E349
:100A700011E000E40E94A503EBE7F3E0018105FF2C
:100A800005C021E313E000E40E94A503EBE7F3E0D7
:100A9000018106FF05C021E312E000E30E94A503E7
:100AA000EBE7F3E0018107FF05C021E312E000E579
:100AB0000E94A503EBE7F3E0028100FF05C021E3FC
:100AC00012E008E10E94A503EBE7F3E0028101FFD9
:100AD00005C021E312E008E60E94A503EBE7F3E07E
:100AE000008500FF05C020E310E000E20E94A5039E
:100AF000EBE7F3E0008501FF05C020E310E008E329
:100B00000E94A503EBE7F3E0008502FF05C020E3A8
:100B100010E000E50E94A503EBE7F3E0008503FF8A
:100B200005C020E310E008E70E94A503EBE7F3E02F
:100B3000008504FF05C020E314E008E20E94A5033D
:100B4000EBE7F3E0008505FF05C020E314E008E4CF
:100B50000E94A503EBE7F3E0008506FF05C020E354
:100B600014E008E60E94A503EBE7F3E0008507FF29
:100B700005C020E315E008E20E94A503EBE7F3E0DF
:100B8000018500FF05C020E315E008E40E94A503ED
:100B9000EBE7F3E0018501FF05C020E315E008E77E
:100BA0000E94A503EBE7F3E0018502FF05C020E307
:100BB00011E008E70E94A503EBE7F3E0018503FFDE
:100BC00005C020E313E008E70E94A503EBE7F3E08C
:100BD000018504FF05C020E311E000E40E94A503A5
:100BE000EBE7F3E0018505FF05C020E313E000E437
:100BF0000E94A503EBE7F3E0018506FF05C020E3B3
:100C000012E000E30E94A503EBE7F3E0018507FF94
:100C100005C020E312E000E50E94A503EBE7F3E046
:100C2000028500FF05C020E312E008E10E94A50351
:100C3000EBE7F3E0028501FF05C020E312E008E6E0
:100C40000E94A50324E130E08E010E94980F92CE0D
:100C50008A932A970E947F100C831D8382C009818A
:100C6000086009830FEF0E94F50E4D9903C00881BB
:100C7000006808834E9903C00981016009834F9978
:100C800003C0098102600983088119812A813B819F
:100C9000488159816A817B81EBE7F3E0048015800C
:100CA000268037804025512562257325042315238E
:100CB00026233723EBE7F3E000831183228333837A
:100CC000088119812A813B81EBE7F3E04081518162
:100CD000628173810427152726273727EBE7F3E086
:100CE0004481558166817781042715272627372778
:100CF000EBE7F3E0008711872287338708811981AA
:100D00002A813B81EBE7F3E0048315832683378355
:100D1000EBE7F3E000811181228133810E831F8391
:100D2000288739870AE010E020E030E03A932A93E0
:100D30001A930A93BE01665F7F4F42E050E020E0C5
:100D400030E001E00E94010908E010E00093870311
:100D5000109388032EE130E08E010C5F1F4F0E943C
:100D6000980F80E000E010E020E030E00883198375
:100D70002A833B830EE00E94F50E06B1007F005BE4
:100D800079F0005249F0005119F0005969F00FC094
:100D90000881016008830BC009810061098307C0D5
:100DA00009810068098303C00881006108830DE0A0
:100DB0000E94F50E06B1007F005B79F0005249F009
:100DC000005119F0005969F00FC0088102600883D2
:100DD0000BC009810460098307C00A8102600A838D
:100DE00003C00881006208830BE00E94F50E06B183
:100DF000007F005B79F0005249F0005119F0005972
:100E000069F00FC00881046008830BC00A8101608B
:100E10000A8307C009810062098303C00881006456
:100E2000088307E00E94F50E06B1007F005B09F41D
:100E300016CF005239F0005109F014CF0881086034
:100E4000088310CF0981006409830CCF0E94FF0240
:100E50000E94900320E040E056E960E070E010E07E
:100E600000E00E9468070E94B20700E010E01A93B9
:100E70000A9300E010E01A930A9300E010E01A933E
:100E80000A9301E00A9360E070E045E550E02EEB44
:100E900031E008E216E00E94030F00E010E01A9330
:100EA0000A9300E010E01A930A9300E010E01A930E
:100EB0000A9302E00A9360E070E045E550E026EC1A
:100EC00031E005E814E00E94030F0E94E20FFFCF1B
:100ED0008A93302F012F122F80E03323A1F52EE3C8
:100EE0003AE020938E0330938F032CE43AE0209372
:100EF00090033093910329E83AE020938C033093D8
:100F00008D0327E53AE0209392033093930320E08A
:100F100030E0209394033093950329EE3AE0209338
:100F200096033093970321E43BE02093980330939A
:100F3000990329E83BE020939A0330939B030E9496
:100F4000040A802F01C082E0882349F40E94A20C89
:100F5000002311F483E003C001E00093CB01082FCC
:100F6000899108958A9380E00091CB01013049F482
:100F7000E0918E03F0918F03099500E00093CB017F
:100F800001C086E0082F899108950E9419132297C5
:100F900000E01091CB01112311F006E0F9C08E01A1
:100FA0000E94B00C013009F0F2C008811981E0E81C
:100FB000F5E00C94CE1240EA53E02CE933E00EE960
:100FC00013E0E0919203F09193030995002351F40B
:100FD00080919E03E4D0801729F404E010E00E9481
:100FE000A70CD5C002E0E4D000E110E00E94A70CFD
:100FF000CEC0E0919C03F0919D03008100939F037C
:1010000001E00093A203EFE9F3E0008107FF08C0CD
:10101000E0919C03F0919D0301810093A20366C0BF
:1010200080E090E001C00196873000E090070CF06E
:101030005DC003E010E0AC010E948F12F801E453A0
:10104000FE4F0081002309F451C003E010E0AC0121
:101050000E948F12F801E453FE4F008110919F030C
:10106000011709F701E098D00E94DC0B002331F151
:101070000E94D70B0093A0031093A103A1E0B0E05E
:10108000A13100E0B00784F50A2F8CD020EA33E0CC
:1010900000919C0310919D03B80103E010E0AC01A6
:1010A0000E948F12F801E453FE4F01811281F80172
:1010B0008B0109950093A2031196E2CF20EA33E059
:1010C00000919C0310919D03B80143E050E08C0116
:1010D0000E948F12F801E453FE4F01811281F80142
:1010E0008B0109950093A20300E056D00091A20362
:1010F000002339F003E05CD000E110E00E94A70C6F
:1011000046C00E94CE0C43C00CE913E00E94CC0BF9
:101110000E94D70BC80143D0AC0120919C033091B1
:101120009D03E0918C03F0918D03099530C03DD073
:10113000802F0CE913E00E94CC0B815029F08A9596
:1011400079F08A95C9F023C00E94D70BC80127D037
:10115000AC0120919C0330919D030E94C20C17C0EA
:101160000E94D70BC8011BD0AC0120919C03309189
:101170009D030E94C60C0BC00E94D70BC8010FD064
:10118000AC0120919C0330919D030E94CA0C00E0A9
:101190002296E4E00C94281300938A0308950091AA
:1011A0008903089500938903089500918B0308959E
:1011B00000938B030895592F282EC8014FEF6FEF2E
:1011C00012C0062E1124FC01008110E00026112619
:1011D0000196F001E058FC4F04914027642FF00184
:1011E000E058FB4F44918901980121503040012B78
:1011F00041F7142F00E070E0062B172B822D952F5E
:1012000008950E9414132297802ED901CA013B0130
:101210004424552400E011E1811610F002E05EC084
:101220008E010E94CC0B082D0E94D20820E1E8819B
:10123000F98120838D01012F202FE881F9812183FD
:101240000A2FE881F98102838C01012FE881F9815D
:101250000383082FE881F9810483182F02E0109F8F
:10126000E881F9810582088119810A5F1F4F08838F
:10127000198325C08201000F111FF301E00FF11F38
:101280001181012FE881F9810083088119810F5FA5
:101290001F4F088319838201000F111FF301E00F14
:1012A000F11F0081E881F981008301E0400E00E038
:1012B000501E088119810F5F1F4F0883198348163C
:1012C0005906C0F2880F991F06968C010E94D20B16
:1012D00008E010E00E94A70C0E94CF0C2296EDE0DF
:1012E0000C9423130E941913229780E0F9010081C6
:1012F0001181053020E0120721F00E94DC0B002351
:1013000099F18E010E94CC0BE881F981318120E0B6
:10131000E881F981028110E0202B312B2F5F3F4FB4
:10132000E881F981538140E0E881F981048110E08E
:10133000402B512BA881B98115966C9170E08A01E0
:10134000000F111F6017710769F461E008811981AE
:101350000A5F1F4F0E945112002339F00E94DF0BD9
:10136000802F03C083E001C083E0082F2296E4E0D1
:101370000C9428130E9417132297D801290180E0AA
:101380000E94DC0B002311F080E039C0F2010081E3
:1013900011810230104090F18E010E94CC0BE88147
:1013A000F981318120E0E881F981028110E0202B70
:1013B000312B2F5F3F4FE881F981538140E0E88175
:1013C000F981048110E0402B512B042F052BA1F053
:1013D0008A01000F111FFD01618170E006171707D8
:1013E00059F460E012968D010E945112002339F0E9
:1013F0000E94DF0B802F03C083E001C083E0082F31
:101400002296E6E00C9426130E941613602ECA0161
:10141000DB01512E44240E94610E252D18E0AC0101
:10142000BD01062D0E94F10D013019F003E0402EA0
:101430001FC081300BE4900700E0A00700E0B00778
:1014400028F003E210E020E030E00CC0880F991F84
:10145000AA1FBB1FAC01BD0100EA1FE727E130E076
:101460000E949E120E946B0E013011F003E0402E8C
:101470000E94630E042DE7E00C9425130E94610E78
:1014800000E00093A40310E001E00E94CE0D0E9452
:10149000840E0E94630E08950E94610E10E000E029
:1014A0000E94CE0D0E94B80E0E94630E08950E9405
:1014B00015133801D901CA0144240E94610EE0913C
:1014C000EB03F091EC033497E0F02091EB033091C3
:1014D000EC0305EC13E00E94DB08012B91F4009172
:1014E000C503F30100830091EB031091EC0303505B
:1014F0001040FC010083118306EC13E00D931C9354
:1015000002C005E0402E0E94630E042DE8E00C941A
:1015100024130E941713B02FC9012A01A0E0B13192
:1015200010F002E053C00E94610E0091A40301304C
:1015300009F048C001978093E7039093E80301E026
:1015400010E00093E9031093EA03E091E703F091C0
:10155000E803B083E9EEF3E000811181040D151D6D
:10156000008311832091E9033091EA030091E7039E
:101570001091E8030E94DB082091E9033091EA030F
:10158000C90101968093E9039093EA03402FF90182
:10159000EB55FC4F40832091E9033091EA03C901E8
:1015A00001968093E9039093EA03012FF901EB552B
:1015B000FC4F008301E00093A30311E000E00E94D0
:1015C000CE0D01C0A5E00E94630E0A2FE6E00C9448
:1015D00026130E941A132197A0E08E010E940F0E7D
:1015E0001091A403105039F01A9559F01A9549F149
:1015F0001A9521F041C00E94840E3EC00E94840EC4
:101600003BC00E94B80E00E00093A30300E010E08E
:101610000093EB031093EC030091EB031091EC03A8
:10162000C80101968093EB039093EC032881F801A5
:10163000EB53FC4F208302E00093A4030E94840E2E
:101640001BC0E091EB03F091EC03B09780F40091A4
:10165000EB031091EC03C80101968093EB03909388
:10166000EC032881F801EB53FC4F208303C003E017
:101670000093A4030E94840E0A2F2196E3E00C94A9
:1016800029138A9380E00091A303005019F00A9572
:1016900031F03CC010E001E00E94CE0D37C0009157
:1016A000E9031091EA03012BC1F0E091E703F09107
:1016B000E80300810E94060EE7EEF3E0008111814D
:1016C0000F5F1F4F00831183E9EEF3E0008111816A
:1016D000015010400083118319C00091A50300231D
:1016E00011F401E001C000E00093ED0310E001E01F
:1016F0000E94CE0D02E00093A3030091ED030130A0
:1017000019F40E94960E02C00E94A70E082F89911C
:1017100008958A9380E00091A403005029F00250BC
:1017200049F00A9569F014C001E010E00E94A70C8E
:10173000802F0EC002E010E00E94A70C802F08C08E
:1017400002E00E94D80800E110E00E94A70C802F60
:1017500001E00093A4030091A303023061F400911F
:10176000ED03002341F401E00E94D80800E110E0FD
:101770000E94A70C802F00E00093A3030E94B80EE4
:101780000091EE03023029F404E010E00E94A70C5F
:10179000802F082F8991089526EA33E0F8012083ED
:1017A000318308950093E5031093E60308950091B3
:1017B000E5031091E60308950091ED0308950050AC
:1017C00029F00A9529F0065029F006C000E0089596
:1017D00002E0089506E0089504E00895BC01F801D0
:1017E00001E10083319702E20083319703E3008334
:1017F0003197CF018901202F20833197012F00835A
:101800003197729700E00083319700E800833197A9
:1018100002978C01202F20833197012F008331976D
:1018200001E00083319702E00083319703E00083F9
:10183000319704E00083319705E00083319706E09B
:101840000083319707E00083319708E000833197E8
:1018500009E00083319700E10083319701E10083C3
:10186000319702E10083319703E10083319704E16E
:101870000083319705E1008331978A01202F20836F
:101880003197012F0083319708E10083319709E1F7
:101890000083319700E20083319701E200833197A2
:1018A00002E20083319703E20083319704E2008370
:1018B000319705E20083319706E20083319707E212
:1018C0000083319700E30083319701E30083319770
:1018D00000E000838F01CB01089504D00E949F0D8A
:1018E00001E0089500E81EE320E030E046E00E94B9
:1018F0009B120150104020403040A801012F00935E
:101900008900409388004BE04093810000916F0074
:10191000026000936F0008950E943F0D189508958E
:10192000F8940091E10103950093E101089500917D
:10193000E1010A950093E1010091E101002309F41E
:101940007894089500E00093F10301E0089521E008
:101950002093F1030093EF031093F00301E0089547
:1019600020E03091F103332359F02091EF033091BF
:10197000F003F8012083318300E00093F10321E0BC
:10198000022F089501E00093F203089502E000930E
:10199000F203089503E00093F2030895089500E030
:1019A000B09771F0B09739F0E054F04031F0E05862
:1019B000F04029F0089504E0089503E0089506E05A
:1019C00008950A920FB6F8940A920DB60A920EB6CE
:1019D0000A921A922A923A924A925A926A927A9267
:1019E0008A929A92AA92BA92CA92DA92EA92FA9257
:1019F0000A931A932A933A934A935A936A937A933F
:101A00008A939A93AA93BA93EA93FA930090E10186
:101A10000A92A091F703B091F803CD93DD930E9451
:101A20003B11A091F703B091F803CD91DD9109909E
:101A30000092E101F991E991B991A9919991899166
:101A40007991699159914991399129911991099106
:101A5000F990E990D990C990B990A99099908990FE
:101A600079906990599049903990299019900990EE
:101A70000EBE09900DBE09900FBE099008950A92FE
:101A80000FB6F8940A920DB60A920EB60A921A92FE
:101A90002A923A924A925A926A927A928A929A92A6
:101AA000AA92BA92CA92DA92EA92FA920A931A9394
:101AB0002A933A934A935A936A937A938A939A937E
:101AC000AA93BA93EA93FA930090E1010A92A09143
:101AD000F703B091F803CD93DD930E948D100E941F
:101AE0003B11A091F703B091F803CD91DD910990DE
:101AF0000092E101F991E991B991A99199918991A6
:101B00007991699159914991399129911991099145
:101B1000F990E990D990C990B990A990999089903D
:101B2000799069905990499039902990199009902D
:101B30000EBE09900DBE09900FBE09900895A091A8
:101B4000F703B091F803CD91DD9109900092E10186
:101B5000F991E991B991A9919991899179916991B5
:101B6000599149913991299119910991F990E990E7
:101B7000D990C990B990A9909990899079906990DD
:101B80005990499039902990199009900EBE09906A
:101B90000DBE09900FBE0990089518959A938A93E7
:101BA000902F812F8ED0992331F00091C1000068D1
:101BB0000093C10005C00091C1000F770093C100E0
:101BC000882331F00091C10000620093C10005C07C
:101BD0000091C1000F7D0093C10075D0899199914A
:101BE000089501E010E01093C1001091C20016604A
:101BF0001093C20029E130E03093C5002093C40067
:101C00001091C10018611093C10008951091C00097
:101C1000212F25FFFBCF0093C60001E008952091FE
:101C2000C600F801208301E008958A93FA93EA93AD
:101C30003A922A921A920A927A936A935A934A9300
:101C40003A932A931A930A938FB7E0919603F091EF
:101C5000970309958FBF099119912991399149915C
:101C60005991699179910990199029903990E99148
:101C7000F991899118958A93FA93EA933A922A9264
:101C80001A920A927A936A935A934A933A932A93AE
:101C90001A930A938FB7E0919803F09199030995ED
:101CA0008FBF099119912991399149915991699160
:101CB00079910990199029903990E991F991899138
:101CC0001895F894089578940895E0919A03F09106
:101CD0009B0309950895A8012FEF30E000E213E07F
:101CE0000E948F12012F10E006950695201B310BE4
:101CF0002093F4033093F50300E004BD00E005BD3C
:101D0000789436D001E0089500916E000160009350
:101D10006E000091F40306BD05B5046005BD05B570
:101D2000016005BD00E00093F303089500916E008B
:101D3000016000936E000FE506BD05B5046005BDAA
:101D400005B5016005BD04E10093F303089500911A
:101D50006E00016000936E000FE506BD05B50460DE
:101D600005BD05B5016005BD0AE00093F3030895C4
:101D700005B50B7F05BD05B50D7F05BD05B50E7F0E
:101D800005BD00916E000E7F00936E0008958A934A
:101D9000FA93EA933A922A921A920A927A936A935F
:101DA0005A934A933A932A931A930A938FB70FE55B
:101DB00006BD0091F303002331F00091F3030A956F
:101DC0000093F30301C081DF8FBF0991199129911D
:101DD0003991499159916991799109901990299076
:101DE0003990E991F99189911895000F000F0093AE
:101DF000F6030091F60305B9409A05E00A95F1F75C
:101E00000000409808950E940F13680159013A019B
:101E10004B0129893A89830116D3D8014E840A2FB0
:101E20000B2B09F471C0FD018789908D860D971DDC
:101E300001977A926A926D897E89442D95018D0170
:101E40006BD2A40196018C010E94EE0B0D931C93A2
:101E50001197EF85F8890E2F0F2B11F0A083B18316
:101E60000E94900C00914504039500934504009155
:101E7000F7031091F803012B51F4A093F703B093EB
:101E8000F80300914504013089F474D20FC0009129
:101E90004A04002359F4E091F703F091F80306890E
:101EA000401620F0A093F703B093F8030091480484
:101EB000FD011689011720F4FD01068900934804ED
:101EC00000914F04039500934F0400914904FD01D4
:101ED0001689011720F4FD010689009349049D012C
:101EE0002E5F3F4FFD01468950E009E010E00E945F
:101EF0008F12A80109EF13E0040F151F0E94FB03C6
:101F000081E00E94970C01C08FEF813069F400914D
:101F10004A04002349F0E091F703F091F8030689A1
:101F2000041510F40E94E10C082FE5E10C941E1337
:101F30000E941513D801390144246AD08D919C91D7
:101F40001197860D971D00914604109147042D911D
:101F50003C9111970217130780F40D911C91119772
:101F600080179107C8F400914604109147040817A0
:101F7000190790F4442443940FC00D911C911197BC
:101F80008017910738F00091460410914704081714
:101F9000190710F4442443948D939C93442051F0EA
:101FA0000091F7031091F8030E5F1F4F0E94560433
:101FB0008C0112D233D0002311F40E94E10CE8E02E
:101FC0000C94241300E010E01A930A9300E010E050
:101FD0001A930A9300E010E01A930A9300E00A9320
:101FE00060E070E045E550E022EE31E008E811E104
:101FF0000ADF013061F4F89401E000934A0400E044
:1020000010E000934604109347040E946D0C08955D
:1020100000914B04039500934B0408950E941913FB
:1020200090E00E94900C00914B040A9500934B04A1
:1020300000914B04002309F05CC00091450400238B
:1020400009F457C080E035C0E0913804F0913904BC
:10205000A681B7818D01045F1F4F0E9456048D0138
:102060000E5F1F4F0E94560400914904FD0116891E
:10207000011720F4FD010689009349049D012E5F9C
:102080003F4FFD01468950E009E010E00E948F12A9
:10209000A80109EF13E0040F151F0E94FB03FD01C7
:1020A0000689E091F703F091F8031689011708F00B
:1020B00081E000913304002339F600914C040023A1
:1020C00039F40BC02AD000914C040A9500934C04BB
:1020D00000914C040023B1F781E0813021F00091A0
:1020E0004D04013031F491E000E000934D040E9472
:1020F000E10C0E94970C092FE4E00C9428139A93AA
:102100008A930E94900C80914604909147040E940B
:10211000970C8C01899199910895BA93AA93009193
:102120004B04002309F09FC0E6E4F4E00081118134
:102130000F5F1F4F008311830091460410914704E5
:10214000012B99F500912F04109130042091310456
:102150003091320420932F043093300400933104E3
:102160001093320400914E04039500934E04E091C5
:102170002F04F09130040081002339F40FEF1FEF9A
:102180000093E7011093E80110C0A0912F04B091D3
:1021900030041596ED91FC91A681B781FD01028175
:1021A00013810093E7011093E80100914604109118
:1021B00047042091E7013091E8010217130708F462
:1021C00057C02AC08D010E5F1F4F0E945604FD01AB
:1021D00004891589012B29F08D01045F1F4F0E948E
:1021E000560400914904FD011689011720F4FD01F0
:1021F0000689009349049D012E5F3F4FFD014689EA
:1022000050E009E010E00E948F12A80109EF13E0EE
:10221000040F151F0E94FB03E0912F04F09130047E
:102220000081002339F40FEF1FEF0093E7011093B3
:10223000E8011EC0A0912F04B09130041596ED91D5
:10224000FC91A681B781FD01028113812091460492
:10225000309147042017310708F0B4CF0093E7010D
:102260001093E80105C000914C04039500934C04C1
:10227000A991B9910895BD0100914B04002349F043
:1022800001E000934D0442C0009149040A95009377
:1022900049044091490450E009E010E00E948F1287
:1022A000F801E750FC4F0081002371F3409149048D
:1022B00050E009E010E00E948F12A9EFB3E0A00FF8
:1022C000B11F1196ED91FC91129702811381FD01CE
:1022D00001831283FD01218132818D010D5F1F4F2A
:1022E0002017310749F41196ED91FC911297028164
:1022F0001381FD0101831283FD01A181B281169634
:102300000D911C910093F7031093F803DB010895DE
:1023100062D00E948204FCCF0E941913D801842F3E
:1023200048E050E08D01075E1F4F0E94641300E0FB
:10233000FD0100A3843008F083E0FD01868B8D0150
:102340000E5F1F4F0E94F5038D01045F1F4F0E9417
:10235000F503FD01A087B18704E010E090E0081BC1
:10236000190BFD0104871587FD01A28BB38BE6E0F5
:102370000C9428138A9380E00EC0482F50E009E0A7
:1023800010E00E948F12980109EF13E0020F131F53
:102390000E94DA038395843080F30DE114E00E94FB
:1023A000DA0306E214E00E94DA0303E314E00E9479
:1023B000DA030CE314E00E94DA030DE114E0009369
:1023C0002F041093300406E214E0009331041093BC
:1023D00032048991089508959A938A93C801E091EF
:1023E000F703F091F80382839383009146041091E0
:1023F00047048017910768F42091F7033091F803A0
:102400002E5F3F4F00913104109132040E9420044E
:1024100017C02091F7033091F8032E5F3F4F0091D2
:102420002F04109130040E9420040091E7011091C4
:10243000E8018017910720F48093E7019093E80169
:102440008991999108950E9417132801C90101E209
:1024500010E00E94CA02D8010A2F0B2BF1F0082FBE
:10246000092B21F482010E94CA0201C08C01FD01E6
:10247000078B108FFD010789108D012B31F48D0121
:102480000E94FE02A0E0B0E008C0A20125EA30E010
:10249000FD010789108D0E9433138D01E6E00C9435
:1024A0002613792F282EC90100E0FC01E40FF51F47
:1024B0007197E0F40197480F591F440F551F605062
:1024C00019F06A9551F013C012E0819F01C0039486
:1024D000112404161506D8F30AC012E0819F01C02A
:1024E0000394112404161506D8F301C001E0822DCF
:1024F000972F089500008895FECF0FE50DBF01E0EE
:102500000EBFC0E4D1E00E943113002311F00E94FD
:102510004A130E9426070E947A120C947A12149F82
:10252000102D059F100D049F002D110D0895369557
:102530002795179507954A95D2F7089500241124F9
:102540001001E0E2EA9592F0001F111F221F331FD5
:10255000001C111C221C331C041615062606370607
:1025600088F3041A150A260A370AECCF001F111F38
:10257000221F331FA001B1010095109520953095C1
:1025800008957591659155914591159011FA259091
:1025900035900895F9DF041B10E003C0F4DF041B3D
:1025A000150B20E030E005C0ECDF041B150B260BFB
:1025B000370BB8F010FC17C045910590E00FF11FE4
:1025C0000417100540E02407340758F436F404914A
:1025D0000024F101E01BF0090994E00FF11F2590A0
:1025E0003590F101099411F4D6F7F1CF31960EF040
:1025F000319650E060E070E045914B3F48F089F340
:102600004F3F29F04E3F11F07591659155914591DD
:10261000041B150B260B370B39F318F3E7CFDA92AF
:10262000CA92BA92AA929A928A927A926A925A928A
:102630004A92BA93AA939A938A930895DD84CC849C
:10264000BB84AA84998488847F806E805D804C805E
:10265000BB81AA8199818881F0E0EC0FFD1FEF0119
:10266000089501E00895F80101C02193BA01415095
:102670005040672BD1F7089520E006D0E9F7089580
:10268000259102D0E9F708952D9301501040202F95
:10269000212B089586EF96E2FC0105911491FC012F
:1026A0003296A591B491FC01349625913491422F34
:1026B000432B19F0F901E4DF01C0DEDF069617E2D3
:1026C0008230910748F30895BD01D801F9019801BE
:1026D0000DD049F001910D930023D1F707D019F0E7
:1026E00000E00D93FBCF8901DB0108958A01415081
:1026F0005040012B08956702E90100008900600144
:1027000002275345543A303C3A303E3A3043616EEA
:102710003A30002020202020205E3A302020202047
:102720005D3A3000205B3A303C3A30203E3A305D32
:102730003A5F2000464545443A30492B3A30492D0E
:102740003A3000535441523A3053533A3053544F75
:10275000503A300053454E443A00524543563A00F1
:10276000436F6E74726F6C0055415254000203BA8D
:1027700009107209000000000000000000000000C5
:0B2780000000005049444C4500FFFFE2
:0400000300000000F9
:00000001FF
